{
	"contracts/CarRegistratiom.sol": {
		"CarRegistration": {
			"abi": [
				{
					"inputs": [
						{
							"internalType": "address payable",
							"name": "_serviceAddress",
							"type": "address"
						}
					],
					"stateMutability": "nonpayable",
					"type": "constructor"
				},
				{
					"anonymous": false,
					"inputs": [
						{
							"indexed": false,
							"internalType": "uint256",
							"name": "repairId",
							"type": "uint256"
						},
						{
							"indexed": false,
							"internalType": "string",
							"name": "description",
							"type": "string"
						},
						{
							"indexed": false,
							"internalType": "uint256",
							"name": "cost",
							"type": "uint256"
						}
					],
					"name": "NewRepair",
					"type": "event"
				},
				{
					"anonymous": false,
					"inputs": [
						{
							"indexed": false,
							"internalType": "uint256",
							"name": "repairId",
							"type": "uint256"
						}
					],
					"name": "RepairPaid",
					"type": "event"
				},
				{
					"inputs": [
						{
							"internalType": "string",
							"name": "_description",
							"type": "string"
						},
						{
							"internalType": "uint256",
							"name": "_cost",
							"type": "uint256"
						}
					],
					"name": "addRepair",
					"outputs": [],
					"stateMutability": "nonpayable",
					"type": "function"
				},
				{
					"inputs": [
						{
							"internalType": "uint256",
							"name": "_serviceDate",
							"type": "uint256"
						}
					],
					"name": "bookServiceOnDate",
					"outputs": [],
					"stateMutability": "nonpayable",
					"type": "function"
				},
				{
					"inputs": [],
					"name": "getRepairsCount",
					"outputs": [
						{
							"internalType": "uint256",
							"name": "",
							"type": "uint256"
						}
					],
					"stateMutability": "view",
					"type": "function"
				},
				{
					"inputs": [],
					"name": "getServiceOnDate",
					"outputs": [
						{
							"internalType": "uint256",
							"name": "",
							"type": "uint256"
						}
					],
					"stateMutability": "view",
					"type": "function"
				},
				{
					"inputs": [
						{
							"internalType": "uint256",
							"name": "_repairId",
							"type": "uint256"
						}
					],
					"name": "payRepair",
					"outputs": [],
					"stateMutability": "payable",
					"type": "function"
				},
				{
					"inputs": [
						{
							"internalType": "string",
							"name": "_make",
							"type": "string"
						},
						{
							"internalType": "string",
							"name": "_model",
							"type": "string"
						},
						{
							"internalType": "uint256",
							"name": "_year",
							"type": "uint256"
						},
						{
							"internalType": "string",
							"name": "_vin",
							"type": "string"
						}
					],
					"name": "registerCar",
					"outputs": [],
					"stateMutability": "nonpayable",
					"type": "function"
				},
				{
					"inputs": [
						{
							"internalType": "address",
							"name": "",
							"type": "address"
						}
					],
					"name": "registeredCars",
					"outputs": [
						{
							"internalType": "string",
							"name": "make",
							"type": "string"
						},
						{
							"internalType": "string",
							"name": "model",
							"type": "string"
						},
						{
							"internalType": "uint256",
							"name": "year",
							"type": "uint256"
						},
						{
							"internalType": "string",
							"name": "vin",
							"type": "string"
						},
						{
							"internalType": "address",
							"name": "owner",
							"type": "address"
						},
						{
							"internalType": "uint256",
							"name": "serviceDate",
							"type": "uint256"
						}
					],
					"stateMutability": "view",
					"type": "function"
				},
				{
					"inputs": [
						{
							"internalType": "uint256",
							"name": "",
							"type": "uint256"
						}
					],
					"name": "repairs",
					"outputs": [
						{
							"internalType": "string",
							"name": "description",
							"type": "string"
						},
						{
							"internalType": "uint256",
							"name": "cost",
							"type": "uint256"
						},
						{
							"internalType": "bool",
							"name": "paid",
							"type": "bool"
						}
					],
					"stateMutability": "view",
					"type": "function"
				},
				{
					"inputs": [],
					"name": "serviceAddress",
					"outputs": [
						{
							"internalType": "address payable",
							"name": "",
							"type": "address"
						}
					],
					"stateMutability": "view",
					"type": "function"
				},
				{
					"inputs": [
						{
							"internalType": "address",
							"name": "_newOwner",
							"type": "address"
						}
					],
					"name": "transferOwnership",
					"outputs": [],
					"stateMutability": "nonpayable",
					"type": "function"
				}
			],
			"devdoc": {
				"kind": "dev",
				"methods": {},
				"version": 1
			},
			"evm": {
				"assembly": "    /* \"contracts/CarRegistratiom.sol\":1358:6945  contract CarRegistration {... */\n  mstore(0x40, 0x80)\n    /* \"contracts/CarRegistratiom.sol\":5376:5472  constructor(address payable _serviceAddress) {... */\n  callvalue\n  dup1\n  iszero\n  tag_1\n  jumpi\n  0x00\n  dup1\n  revert\ntag_1:\n  pop\n  mload(0x40)\n  sub(codesize, bytecodeSize)\n  dup1\n  bytecodeSize\n  dup4\n  codecopy\n  dup2\n  dup2\n  add\n  0x40\n  mstore\n  dup2\n  add\n  swap1\n  tag_2\n  swap2\n  swap1\n  tag_3\n  jump\t// in\ntag_2:\n    /* \"contracts/CarRegistratiom.sol\":5449:5464  _serviceAddress */\n  dup1\n    /* \"contracts/CarRegistratiom.sol\":5432:5446  serviceAddress */\n  0x01\n  0x00\n    /* \"contracts/CarRegistratiom.sol\":5432:5464  serviceAddress = _serviceAddress */\n  0x0100\n  exp\n  dup2\n  sload\n  dup2\n  0xffffffffffffffffffffffffffffffffffffffff\n  mul\n  not\n  and\n  swap1\n  dup4\n  0xffffffffffffffffffffffffffffffffffffffff\n  and\n  mul\n  or\n  swap1\n  sstore\n  pop\n    /* \"contracts/CarRegistratiom.sol\":5376:5472  constructor(address payable _serviceAddress) {... */\n  pop\n    /* \"contracts/CarRegistratiom.sol\":1358:6945  contract CarRegistration {... */\n  jump(tag_6)\n    /* \"#utility.yul\":88:205   */\ntag_8:\n    /* \"#utility.yul\":197:198   */\n  0x00\n    /* \"#utility.yul\":194:195   */\n  dup1\n    /* \"#utility.yul\":187:199   */\n  revert\n    /* \"#utility.yul\":334:460   */\ntag_10:\n    /* \"#utility.yul\":371:378   */\n  0x00\n    /* \"#utility.yul\":411:453   */\n  0xffffffffffffffffffffffffffffffffffffffff\n    /* \"#utility.yul\":404:409   */\n  dup3\n    /* \"#utility.yul\":400:454   */\n  and\n    /* \"#utility.yul\":389:454   */\n  swap1\n  pop\n    /* \"#utility.yul\":334:460   */\n  swap2\n  swap1\n  pop\n  jump\t// out\n    /* \"#utility.yul\":466:570   */\ntag_11:\n    /* \"#utility.yul\":511:518   */\n  0x00\n    /* \"#utility.yul\":540:564   */\n  tag_20\n    /* \"#utility.yul\":558:563   */\n  dup3\n    /* \"#utility.yul\":540:564   */\n  tag_10\n  jump\t// in\ntag_20:\n    /* \"#utility.yul\":529:564   */\n  swap1\n  pop\n    /* \"#utility.yul\":466:570   */\n  swap2\n  swap1\n  pop\n  jump\t// out\n    /* \"#utility.yul\":576:714   */\ntag_12:\n    /* \"#utility.yul\":657:689   */\n  tag_22\n    /* \"#utility.yul\":683:688   */\n  dup2\n    /* \"#utility.yul\":657:689   */\n  tag_11\n  jump\t// in\ntag_22:\n    /* \"#utility.yul\":650:655   */\n  dup2\n    /* \"#utility.yul\":647:690   */\n  eq\n    /* \"#utility.yul\":637:708   */\n  tag_23\n  jumpi\n    /* \"#utility.yul\":704:705   */\n  0x00\n    /* \"#utility.yul\":701:702   */\n  dup1\n    /* \"#utility.yul\":694:706   */\n  revert\n    /* \"#utility.yul\":637:708   */\ntag_23:\n    /* \"#utility.yul\":576:714   */\n  pop\n  jump\t// out\n    /* \"#utility.yul\":720:879   */\ntag_13:\n    /* \"#utility.yul\":785:790   */\n  0x00\n    /* \"#utility.yul\":816:822   */\n  dup2\n    /* \"#utility.yul\":810:823   */\n  mload\n    /* \"#utility.yul\":801:823   */\n  swap1\n  pop\n    /* \"#utility.yul\":832:873   */\n  tag_25\n    /* \"#utility.yul\":867:872   */\n  dup2\n    /* \"#utility.yul\":832:873   */\n  tag_12\n  jump\t// in\ntag_25:\n    /* \"#utility.yul\":720:879   */\n  swap3\n  swap2\n  pop\n  pop\n  jump\t// out\n    /* \"#utility.yul\":885:1252   */\ntag_3:\n    /* \"#utility.yul\":963:969   */\n  0x00\n    /* \"#utility.yul\":1012:1014   */\n  0x20\n    /* \"#utility.yul\":1000:1009   */\n  dup3\n    /* \"#utility.yul\":991:998   */\n  dup5\n    /* \"#utility.yul\":987:1010   */\n  sub\n    /* \"#utility.yul\":983:1015   */\n  slt\n    /* \"#utility.yul\":980:1099   */\n  iszero\n  tag_27\n  jumpi\n    /* \"#utility.yul\":1018:1097   */\n  tag_28\n  tag_8\n  jump\t// in\ntag_28:\n    /* \"#utility.yul\":980:1099   */\ntag_27:\n    /* \"#utility.yul\":1138:1139   */\n  0x00\n    /* \"#utility.yul\":1163:1235   */\n  tag_29\n    /* \"#utility.yul\":1227:1234   */\n  dup5\n    /* \"#utility.yul\":1218:1224   */\n  dup3\n    /* \"#utility.yul\":1207:1216   */\n  dup6\n    /* \"#utility.yul\":1203:1225   */\n  add\n    /* \"#utility.yul\":1163:1235   */\n  tag_13\n  jump\t// in\ntag_29:\n    /* \"#utility.yul\":1153:1235   */\n  swap2\n  pop\n    /* \"#utility.yul\":1109:1245   */\n  pop\n    /* \"#utility.yul\":885:1252   */\n  swap3\n  swap2\n  pop\n  pop\n  jump\t// out\n    /* \"contracts/CarRegistratiom.sol\":1358:6945  contract CarRegistration {... */\ntag_6:\n  dataSize(sub_0)\n  dup1\n  dataOffset(sub_0)\n  0x00\n  codecopy\n  0x00\n  return\nstop\n\nsub_0: assembly {\n        /* \"contracts/CarRegistratiom.sol\":1358:6945  contract CarRegistration {... */\n      mstore(0x40, 0x80)\n      jumpi(tag_1, lt(calldatasize, 0x04))\n      shr(0xe0, calldataload(0x00))\n      dup1\n      0x94d2da2d\n      gt\n      tag_12\n      jumpi\n      dup1\n      0x94d2da2d\n      eq\n      tag_7\n      jumpi\n      dup1\n      0xafac49f8\n      eq\n      tag_8\n      jumpi\n      dup1\n      0xd92cc1f1\n      eq\n      tag_9\n      jumpi\n      dup1\n      0xe6289a78\n      eq\n      tag_10\n      jumpi\n      dup1\n      0xf2fde38b\n      eq\n      tag_11\n      jumpi\n      jump(tag_1)\n    tag_12:\n      dup1\n      0x0b51698f\n      eq\n      tag_2\n      jumpi\n      dup1\n      0x6d7b0f46\n      eq\n      tag_3\n      jumpi\n      dup1\n      0x703174bb\n      eq\n      tag_4\n      jumpi\n      dup1\n      0x7379170a\n      eq\n      tag_5\n      jumpi\n      dup1\n      0x8d5b87b6\n      eq\n      tag_6\n      jumpi\n    tag_1:\n      0x00\n      dup1\n      revert\n        /* \"contracts/CarRegistratiom.sol\":4275:4522  function bookServiceOnDate(uint256 _serviceDate) public {... */\n    tag_2:\n      callvalue\n      dup1\n      iszero\n      tag_13\n      jumpi\n      0x00\n      dup1\n      revert\n    tag_13:\n      pop\n      tag_14\n      0x04\n      dup1\n      calldatasize\n      sub\n      dup2\n      add\n      swap1\n      tag_15\n      swap2\n      swap1\n      tag_16\n      jump\t// in\n    tag_15:\n      tag_17\n      jump\t// in\n    tag_14:\n      stop\n        /* \"contracts/CarRegistratiom.sol\":4598:4751  function getServiceOnDate() public view returns (uint256) {... */\n    tag_3:\n      callvalue\n      dup1\n      iszero\n      tag_18\n      jumpi\n      0x00\n      dup1\n      revert\n    tag_18:\n      pop\n      tag_19\n      tag_20\n      jump\t// in\n    tag_19:\n      mload(0x40)\n      tag_21\n      swap2\n      swap1\n      tag_22\n      jump\t// in\n    tag_21:\n      mload(0x40)\n      dup1\n      swap2\n      sub\n      swap1\n      return\n        /* \"contracts/CarRegistratiom.sol\":2604:3334  function registerCar(string memory _make, string memory _model, uint256 _year, string memory _vin) public {... */\n    tag_4:\n      callvalue\n      dup1\n      iszero\n      tag_23\n      jumpi\n      0x00\n      dup1\n      revert\n    tag_23:\n      pop\n      tag_24\n      0x04\n      dup1\n      calldatasize\n      sub\n      dup2\n      add\n      swap1\n      tag_25\n      swap2\n      swap1\n      tag_26\n      jump\t// in\n    tag_25:\n      tag_27\n      jump\t// in\n    tag_24:\n      stop\n        /* \"contracts/CarRegistratiom.sol\":5949:6046  function getRepairsCount() public view returns (uint256) {... */\n    tag_5:\n      callvalue\n      dup1\n      iszero\n      tag_28\n      jumpi\n      0x00\n      dup1\n      revert\n    tag_28:\n      pop\n      tag_29\n      tag_30\n      jump\t// in\n    tag_29:\n      mload(0x40)\n      tag_31\n      swap2\n      swap1\n      tag_22\n      jump\t// in\n    tag_31:\n      mload(0x40)\n      dup1\n      swap2\n      sub\n      swap1\n      return\n        /* \"contracts/CarRegistratiom.sol\":2362:2399  address payable public serviceAddress */\n    tag_6:\n      callvalue\n      dup1\n      iszero\n      tag_32\n      jumpi\n      0x00\n      dup1\n      revert\n    tag_32:\n      pop\n      tag_33\n      tag_34\n      jump\t// in\n    tag_33:\n      mload(0x40)\n      tag_35\n      swap2\n      swap1\n      tag_36\n      jump\t// in\n    tag_35:\n      mload(0x40)\n      dup1\n      swap2\n      sub\n      swap1\n      return\n        /* \"contracts/CarRegistratiom.sol\":2483:2529  mapping (address => Car) public registeredCars */\n    tag_7:\n      callvalue\n      dup1\n      iszero\n      tag_37\n      jumpi\n      0x00\n      dup1\n      revert\n    tag_37:\n      pop\n      tag_38\n      0x04\n      dup1\n      calldatasize\n      sub\n      dup2\n      add\n      swap1\n      tag_39\n      swap2\n      swap1\n      tag_40\n      jump\t// in\n    tag_39:\n      tag_41\n      jump\t// in\n    tag_38:\n      mload(0x40)\n      tag_42\n      swap7\n      swap6\n      swap5\n      swap4\n      swap3\n      swap2\n      swap1\n      tag_43\n      jump\t// in\n    tag_42:\n      mload(0x40)\n      dup1\n      swap2\n      sub\n      swap1\n      return\n        /* \"contracts/CarRegistratiom.sol\":6328:6940  function payRepair(uint256 _repairId) public payable {... */\n    tag_8:\n      tag_44\n      0x04\n      dup1\n      calldatasize\n      sub\n      dup2\n      add\n      swap1\n      tag_45\n      swap2\n      swap1\n      tag_16\n      jump\t// in\n    tag_45:\n      tag_46\n      jump\t// in\n    tag_44:\n      stop\n        /* \"contracts/CarRegistratiom.sol\":5562:5851  function addRepair(string memory _description, uint256 _cost) public {... */\n    tag_9:\n      callvalue\n      dup1\n      iszero\n      tag_47\n      jumpi\n      0x00\n      dup1\n      revert\n    tag_47:\n      pop\n      tag_48\n      0x04\n      dup1\n      calldatasize\n      sub\n      dup2\n      add\n      swap1\n      tag_49\n      swap2\n      swap1\n      tag_50\n      jump\t// in\n    tag_49:\n      tag_51\n      jump\t// in\n    tag_48:\n      stop\n        /* \"contracts/CarRegistratiom.sol\":2242:2265  Repair[] public repairs */\n    tag_10:\n      callvalue\n      dup1\n      iszero\n      tag_52\n      jumpi\n      0x00\n      dup1\n      revert\n    tag_52:\n      pop\n      tag_53\n      0x04\n      dup1\n      calldatasize\n      sub\n      dup2\n      add\n      swap1\n      tag_54\n      swap2\n      swap1\n      tag_16\n      jump\t// in\n    tag_54:\n      tag_55\n      jump\t// in\n    tag_53:\n      mload(0x40)\n      tag_56\n      swap4\n      swap3\n      swap2\n      swap1\n      tag_57\n      jump\t// in\n    tag_56:\n      mload(0x40)\n      dup1\n      swap2\n      sub\n      swap1\n      return\n        /* \"contracts/CarRegistratiom.sol\":3523:4224  function transferOwnership(address _newOwner) public {... */\n    tag_11:\n      callvalue\n      dup1\n      iszero\n      tag_58\n      jumpi\n      0x00\n      dup1\n      revert\n    tag_58:\n      pop\n      tag_59\n      0x04\n      dup1\n      calldatasize\n      sub\n      dup2\n      add\n      swap1\n      tag_60\n      swap2\n      swap1\n      tag_40\n      jump\t// in\n    tag_60:\n      tag_61\n      jump\t// in\n    tag_59:\n      stop\n        /* \"contracts/CarRegistratiom.sol\":4275:4522  function bookServiceOnDate(uint256 _serviceDate) public {... */\n    tag_17:\n        /* \"contracts/CarRegistratiom.sol\":4342:4356  Car memory car */\n      0x00\n        /* \"contracts/CarRegistratiom.sol\":4359:4373  registeredCars */\n      0x02\n        /* \"contracts/CarRegistratiom.sol\":4359:4385  registeredCars[msg.sender] */\n      0x00\n        /* \"contracts/CarRegistratiom.sol\":4374:4384  msg.sender */\n      caller\n        /* \"contracts/CarRegistratiom.sol\":4359:4385  registeredCars[msg.sender] */\n      0xffffffffffffffffffffffffffffffffffffffff\n      and\n      0xffffffffffffffffffffffffffffffffffffffff\n      and\n      dup2\n      mstore\n      0x20\n      add\n      swap1\n      dup2\n      mstore\n      0x20\n      add\n      0x00\n      keccak256\n        /* \"contracts/CarRegistratiom.sol\":4342:4385  Car memory car = registeredCars[msg.sender] */\n      mload(0x40)\n      dup1\n      0xc0\n      add\n      0x40\n      mstore\n      swap1\n      dup2\n      0x00\n      dup3\n      add\n      dup1\n      sload\n      tag_63\n      swap1\n      tag_64\n      jump\t// in\n    tag_63:\n      dup1\n      0x1f\n      add\n      0x20\n      dup1\n      swap2\n      div\n      mul\n      0x20\n      add\n      mload(0x40)\n      swap1\n      dup2\n      add\n      0x40\n      mstore\n      dup1\n      swap3\n      swap2\n      swap1\n      dup2\n      dup2\n      mstore\n      0x20\n      add\n      dup3\n      dup1\n      sload\n      tag_65\n      swap1\n      tag_64\n      jump\t// in\n    tag_65:\n      dup1\n      iszero\n      tag_66\n      jumpi\n      dup1\n      0x1f\n      lt\n      tag_67\n      jumpi\n      0x0100\n      dup1\n      dup4\n      sload\n      div\n      mul\n      dup4\n      mstore\n      swap2\n      0x20\n      add\n      swap2\n      jump(tag_66)\n    tag_67:\n      dup3\n      add\n      swap2\n      swap1\n      0x00\n      mstore\n      keccak256(0x00, 0x20)\n      swap1\n    tag_68:\n      dup2\n      sload\n      dup2\n      mstore\n      swap1\n      0x01\n      add\n      swap1\n      0x20\n      add\n      dup1\n      dup4\n      gt\n      tag_68\n      jumpi\n      dup3\n      swap1\n      sub\n      0x1f\n      and\n      dup3\n      add\n      swap2\n    tag_66:\n      pop\n      pop\n      pop\n      pop\n      pop\n      dup2\n      mstore\n      0x20\n      add\n      0x01\n      dup3\n      add\n      dup1\n      sload\n      tag_69\n      swap1\n      tag_64\n      jump\t// in\n    tag_69:\n      dup1\n      0x1f\n      add\n      0x20\n      dup1\n      swap2\n      div\n      mul\n      0x20\n      add\n      mload(0x40)\n      swap1\n      dup2\n      add\n      0x40\n      mstore\n      dup1\n      swap3\n      swap2\n      swap1\n      dup2\n      dup2\n      mstore\n      0x20\n      add\n      dup3\n      dup1\n      sload\n      tag_70\n      swap1\n      tag_64\n      jump\t// in\n    tag_70:\n      dup1\n      iszero\n      tag_71\n      jumpi\n      dup1\n      0x1f\n      lt\n      tag_72\n      jumpi\n      0x0100\n      dup1\n      dup4\n      sload\n      div\n      mul\n      dup4\n      mstore\n      swap2\n      0x20\n      add\n      swap2\n      jump(tag_71)\n    tag_72:\n      dup3\n      add\n      swap2\n      swap1\n      0x00\n      mstore\n      keccak256(0x00, 0x20)\n      swap1\n    tag_73:\n      dup2\n      sload\n      dup2\n      mstore\n      swap1\n      0x01\n      add\n      swap1\n      0x20\n      add\n      dup1\n      dup4\n      gt\n      tag_73\n      jumpi\n      dup3\n      swap1\n      sub\n      0x1f\n      and\n      dup3\n      add\n      swap2\n    tag_71:\n      pop\n      pop\n      pop\n      pop\n      pop\n      dup2\n      mstore\n      0x20\n      add\n      0x02\n      dup3\n      add\n      sload\n      dup2\n      mstore\n      0x20\n      add\n      0x03\n      dup3\n      add\n      dup1\n      sload\n      tag_74\n      swap1\n      tag_64\n      jump\t// in\n    tag_74:\n      dup1\n      0x1f\n      add\n      0x20\n      dup1\n      swap2\n      div\n      mul\n      0x20\n      add\n      mload(0x40)\n      swap1\n      dup2\n      add\n      0x40\n      mstore\n      dup1\n      swap3\n      swap2\n      swap1\n      dup2\n      dup2\n      mstore\n      0x20\n      add\n      dup3\n      dup1\n      sload\n      tag_75\n      swap1\n      tag_64\n      jump\t// in\n    tag_75:\n      dup1\n      iszero\n      tag_76\n      jumpi\n      dup1\n      0x1f\n      lt\n      tag_77\n      jumpi\n      0x0100\n      dup1\n      dup4\n      sload\n      div\n      mul\n      dup4\n      mstore\n      swap2\n      0x20\n      add\n      swap2\n      jump(tag_76)\n    tag_77:\n      dup3\n      add\n      swap2\n      swap1\n      0x00\n      mstore\n      keccak256(0x00, 0x20)\n      swap1\n    tag_78:\n      dup2\n      sload\n      dup2\n      mstore\n      swap1\n      0x01\n      add\n      swap1\n      0x20\n      add\n      dup1\n      dup4\n      gt\n      tag_78\n      jumpi\n      dup3\n      swap1\n      sub\n      0x1f\n      and\n      dup3\n      add\n      swap2\n    tag_76:\n      pop\n      pop\n      pop\n      pop\n      pop\n      dup2\n      mstore\n      0x20\n      add\n      0x04\n      dup3\n      add\n      0x00\n      swap1\n      sload\n      swap1\n      0x0100\n      exp\n      swap1\n      div\n      0xffffffffffffffffffffffffffffffffffffffff\n      and\n      0xffffffffffffffffffffffffffffffffffffffff\n      and\n      0xffffffffffffffffffffffffffffffffffffffff\n      and\n      dup2\n      mstore\n      0x20\n      add\n      0x05\n      dup3\n      add\n      sload\n      dup2\n      mstore\n      pop\n      pop\n      swap1\n      pop\n        /* \"contracts/CarRegistratiom.sol\":4419:4434  block.timestamp */\n      timestamp\n        /* \"contracts/CarRegistratiom.sol\":4404:4416  _serviceDate */\n      dup3\n        /* \"contracts/CarRegistratiom.sol\":4404:4434  _serviceDate > block.timestamp */\n      gt\n        /* \"contracts/CarRegistratiom.sol\":4396:4473  require(_serviceDate > block.timestamp, \"Service date cannot be in the past\") */\n      tag_79\n      jumpi\n      mload(0x40)\n      0x08c379a000000000000000000000000000000000000000000000000000000000\n      dup2\n      mstore\n      0x04\n      add\n      tag_80\n      swap1\n      tag_81\n      jump\t// in\n    tag_80:\n      mload(0x40)\n      dup1\n      swap2\n      sub\n      swap1\n      revert\n    tag_79:\n        /* \"contracts/CarRegistratiom.sol\":4502:4514  _serviceDate */\n      dup2\n        /* \"contracts/CarRegistratiom.sol\":4484:4487  car */\n      dup2\n        /* \"contracts/CarRegistratiom.sol\":4484:4499  car.serviceDate */\n      0xa0\n      add\n        /* \"contracts/CarRegistratiom.sol\":4484:4514  car.serviceDate = _serviceDate */\n      dup2\n      dup2\n      mstore\n      pop\n      pop\n        /* \"contracts/CarRegistratiom.sol\":4331:4522  {... */\n      pop\n        /* \"contracts/CarRegistratiom.sol\":4275:4522  function bookServiceOnDate(uint256 _serviceDate) public {... */\n      pop\n      jump\t// out\n        /* \"contracts/CarRegistratiom.sol\":4598:4751  function getServiceOnDate() public view returns (uint256) {... */\n    tag_20:\n        /* \"contracts/CarRegistratiom.sol\":4647:4654  uint256 */\n      0x00\n        /* \"contracts/CarRegistratiom.sol\":4667:4681  Car memory car */\n      dup1\n        /* \"contracts/CarRegistratiom.sol\":4684:4698  registeredCars */\n      0x02\n        /* \"contracts/CarRegistratiom.sol\":4684:4710  registeredCars[msg.sender] */\n      0x00\n        /* \"contracts/CarRegistratiom.sol\":4699:4709  msg.sender */\n      caller\n        /* \"contracts/CarRegistratiom.sol\":4684:4710  registeredCars[msg.sender] */\n      0xffffffffffffffffffffffffffffffffffffffff\n      and\n      0xffffffffffffffffffffffffffffffffffffffff\n      and\n      dup2\n      mstore\n      0x20\n      add\n      swap1\n      dup2\n      mstore\n      0x20\n      add\n      0x00\n      keccak256\n        /* \"contracts/CarRegistratiom.sol\":4667:4710  Car memory car = registeredCars[msg.sender] */\n      mload(0x40)\n      dup1\n      0xc0\n      add\n      0x40\n      mstore\n      swap1\n      dup2\n      0x00\n      dup3\n      add\n      dup1\n      sload\n      tag_83\n      swap1\n      tag_64\n      jump\t// in\n    tag_83:\n      dup1\n      0x1f\n      add\n      0x20\n      dup1\n      swap2\n      div\n      mul\n      0x20\n      add\n      mload(0x40)\n      swap1\n      dup2\n      add\n      0x40\n      mstore\n      dup1\n      swap3\n      swap2\n      swap1\n      dup2\n      dup2\n      mstore\n      0x20\n      add\n      dup3\n      dup1\n      sload\n      tag_84\n      swap1\n      tag_64\n      jump\t// in\n    tag_84:\n      dup1\n      iszero\n      tag_85\n      jumpi\n      dup1\n      0x1f\n      lt\n      tag_86\n      jumpi\n      0x0100\n      dup1\n      dup4\n      sload\n      div\n      mul\n      dup4\n      mstore\n      swap2\n      0x20\n      add\n      swap2\n      jump(tag_85)\n    tag_86:\n      dup3\n      add\n      swap2\n      swap1\n      0x00\n      mstore\n      keccak256(0x00, 0x20)\n      swap1\n    tag_87:\n      dup2\n      sload\n      dup2\n      mstore\n      swap1\n      0x01\n      add\n      swap1\n      0x20\n      add\n      dup1\n      dup4\n      gt\n      tag_87\n      jumpi\n      dup3\n      swap1\n      sub\n      0x1f\n      and\n      dup3\n      add\n      swap2\n    tag_85:\n      pop\n      pop\n      pop\n      pop\n      pop\n      dup2\n      mstore\n      0x20\n      add\n      0x01\n      dup3\n      add\n      dup1\n      sload\n      tag_88\n      swap1\n      tag_64\n      jump\t// in\n    tag_88:\n      dup1\n      0x1f\n      add\n      0x20\n      dup1\n      swap2\n      div\n      mul\n      0x20\n      add\n      mload(0x40)\n      swap1\n      dup2\n      add\n      0x40\n      mstore\n      dup1\n      swap3\n      swap2\n      swap1\n      dup2\n      dup2\n      mstore\n      0x20\n      add\n      dup3\n      dup1\n      sload\n      tag_89\n      swap1\n      tag_64\n      jump\t// in\n    tag_89:\n      dup1\n      iszero\n      tag_90\n      jumpi\n      dup1\n      0x1f\n      lt\n      tag_91\n      jumpi\n      0x0100\n      dup1\n      dup4\n      sload\n      div\n      mul\n      dup4\n      mstore\n      swap2\n      0x20\n      add\n      swap2\n      jump(tag_90)\n    tag_91:\n      dup3\n      add\n      swap2\n      swap1\n      0x00\n      mstore\n      keccak256(0x00, 0x20)\n      swap1\n    tag_92:\n      dup2\n      sload\n      dup2\n      mstore\n      swap1\n      0x01\n      add\n      swap1\n      0x20\n      add\n      dup1\n      dup4\n      gt\n      tag_92\n      jumpi\n      dup3\n      swap1\n      sub\n      0x1f\n      and\n      dup3\n      add\n      swap2\n    tag_90:\n      pop\n      pop\n      pop\n      pop\n      pop\n      dup2\n      mstore\n      0x20\n      add\n      0x02\n      dup3\n      add\n      sload\n      dup2\n      mstore\n      0x20\n      add\n      0x03\n      dup3\n      add\n      dup1\n      sload\n      tag_93\n      swap1\n      tag_64\n      jump\t// in\n    tag_93:\n      dup1\n      0x1f\n      add\n      0x20\n      dup1\n      swap2\n      div\n      mul\n      0x20\n      add\n      mload(0x40)\n      swap1\n      dup2\n      add\n      0x40\n      mstore\n      dup1\n      swap3\n      swap2\n      swap1\n      dup2\n      dup2\n      mstore\n      0x20\n      add\n      dup3\n      dup1\n      sload\n      tag_94\n      swap1\n      tag_64\n      jump\t// in\n    tag_94:\n      dup1\n      iszero\n      tag_95\n      jumpi\n      dup1\n      0x1f\n      lt\n      tag_96\n      jumpi\n      0x0100\n      dup1\n      dup4\n      sload\n      div\n      mul\n      dup4\n      mstore\n      swap2\n      0x20\n      add\n      swap2\n      jump(tag_95)\n    tag_96:\n      dup3\n      add\n      swap2\n      swap1\n      0x00\n      mstore\n      keccak256(0x00, 0x20)\n      swap1\n    tag_97:\n      dup2\n      sload\n      dup2\n      mstore\n      swap1\n      0x01\n      add\n      swap1\n      0x20\n      add\n      dup1\n      dup4\n      gt\n      tag_97\n      jumpi\n      dup3\n      swap1\n      sub\n      0x1f\n      and\n      dup3\n      add\n      swap2\n    tag_95:\n      pop\n      pop\n      pop\n      pop\n      pop\n      dup2\n      mstore\n      0x20\n      add\n      0x04\n      dup3\n      add\n      0x00\n      swap1\n      sload\n      swap1\n      0x0100\n      exp\n      swap1\n      div\n      0xffffffffffffffffffffffffffffffffffffffff\n      and\n      0xffffffffffffffffffffffffffffffffffffffff\n      and\n      0xffffffffffffffffffffffffffffffffffffffff\n      and\n      dup2\n      mstore\n      0x20\n      add\n      0x05\n      dup3\n      add\n      sload\n      dup2\n      mstore\n      pop\n      pop\n      swap1\n      pop\n        /* \"contracts/CarRegistratiom.sol\":4728:4731  car */\n      dup1\n        /* \"contracts/CarRegistratiom.sol\":4728:4743  car.serviceDate */\n      0xa0\n      add\n      mload\n        /* \"contracts/CarRegistratiom.sol\":4721:4743  return car.serviceDate */\n      swap2\n      pop\n      pop\n        /* \"contracts/CarRegistratiom.sol\":4598:4751  function getServiceOnDate() public view returns (uint256) {... */\n      swap1\n      jump\t// out\n        /* \"contracts/CarRegistratiom.sol\":2604:3334  function registerCar(string memory _make, string memory _model, uint256 _year, string memory _vin) public {... */\n    tag_27:\n        /* \"contracts/CarRegistratiom.sol\":2870:2871  0 */\n      0x00\n        /* \"contracts/CarRegistratiom.sol\":2826:2872  registeredCars[msg.sender].owner == address(0) */\n      0xffffffffffffffffffffffffffffffffffffffff\n      and\n        /* \"contracts/CarRegistratiom.sol\":2826:2840  registeredCars */\n      0x02\n        /* \"contracts/CarRegistratiom.sol\":2826:2852  registeredCars[msg.sender] */\n      0x00\n        /* \"contracts/CarRegistratiom.sol\":2841:2851  msg.sender */\n      caller\n        /* \"contracts/CarRegistratiom.sol\":2826:2852  registeredCars[msg.sender] */\n      0xffffffffffffffffffffffffffffffffffffffff\n      and\n      0xffffffffffffffffffffffffffffffffffffffff\n      and\n      dup2\n      mstore\n      0x20\n      add\n      swap1\n      dup2\n      mstore\n      0x20\n      add\n      0x00\n      keccak256\n        /* \"contracts/CarRegistratiom.sol\":2826:2858  registeredCars[msg.sender].owner */\n      0x04\n      add\n      0x00\n      swap1\n      sload\n      swap1\n      0x0100\n      exp\n      swap1\n      div\n      0xffffffffffffffffffffffffffffffffffffffff\n      and\n        /* \"contracts/CarRegistratiom.sol\":2826:2872  registeredCars[msg.sender].owner == address(0) */\n      0xffffffffffffffffffffffffffffffffffffffff\n      and\n      eq\n        /* \"contracts/CarRegistratiom.sol\":2818:2902  require(registeredCars[msg.sender].owner == address(0), \"Car is already registered\") */\n      tag_99\n      jumpi\n      mload(0x40)\n      0x08c379a000000000000000000000000000000000000000000000000000000000\n      dup2\n      mstore\n      0x04\n      add\n      tag_100\n      swap1\n      tag_101\n      jump\t// in\n    tag_100:\n      mload(0x40)\n      dup1\n      swap2\n      sub\n      swap1\n      revert\n    tag_99:\n        /* \"contracts/CarRegistratiom.sol\":2990:3007  Car memory newCar */\n      0x00\n        /* \"contracts/CarRegistratiom.sol\":3010:3194  Car({... */\n      mload(0x40)\n      dup1\n      0xc0\n      add\n      0x40\n      mstore\n      dup1\n        /* \"contracts/CarRegistratiom.sol\":3035:3040  _make */\n      dup7\n        /* \"contracts/CarRegistratiom.sol\":3010:3194  Car({... */\n      dup2\n      mstore\n      0x20\n      add\n        /* \"contracts/CarRegistratiom.sol\":3062:3068  _model */\n      dup6\n        /* \"contracts/CarRegistratiom.sol\":3010:3194  Car({... */\n      dup2\n      mstore\n      0x20\n      add\n        /* \"contracts/CarRegistratiom.sol\":3089:3094  _year */\n      dup5\n        /* \"contracts/CarRegistratiom.sol\":3010:3194  Car({... */\n      dup2\n      mstore\n      0x20\n      add\n        /* \"contracts/CarRegistratiom.sol\":3114:3118  _vin */\n      dup4\n        /* \"contracts/CarRegistratiom.sol\":3010:3194  Car({... */\n      dup2\n      mstore\n      0x20\n      add\n        /* \"contracts/CarRegistratiom.sol\":3140:3150  msg.sender */\n      caller\n        /* \"contracts/CarRegistratiom.sol\":3010:3194  Car({... */\n      0xffffffffffffffffffffffffffffffffffffffff\n      and\n      dup2\n      mstore\n      0x20\n      add\n        /* \"contracts/CarRegistratiom.sol\":3178:3179  0 */\n      0x00\n        /* \"contracts/CarRegistratiom.sol\":3010:3194  Car({... */\n      dup2\n      mstore\n      pop\n        /* \"contracts/CarRegistratiom.sol\":2990:3194  Car memory newCar = Car({... */\n      swap1\n      pop\n        /* \"contracts/CarRegistratiom.sol\":3320:3326  newCar */\n      dup1\n        /* \"contracts/CarRegistratiom.sol\":3291:3305  registeredCars */\n      0x02\n        /* \"contracts/CarRegistratiom.sol\":3291:3317  registeredCars[msg.sender] */\n      0x00\n        /* \"contracts/CarRegistratiom.sol\":3306:3316  msg.sender */\n      caller\n        /* \"contracts/CarRegistratiom.sol\":3291:3317  registeredCars[msg.sender] */\n      0xffffffffffffffffffffffffffffffffffffffff\n      and\n      0xffffffffffffffffffffffffffffffffffffffff\n      and\n      dup2\n      mstore\n      0x20\n      add\n      swap1\n      dup2\n      mstore\n      0x20\n      add\n      0x00\n      keccak256\n        /* \"contracts/CarRegistratiom.sol\":3291:3326  registeredCars[msg.sender] = newCar */\n      0x00\n      dup3\n      add\n      mload\n      dup2\n      0x00\n      add\n      swap1\n      dup2\n      tag_102\n      swap2\n      swap1\n      tag_103\n      jump\t// in\n    tag_102:\n      pop\n      0x20\n      dup3\n      add\n      mload\n      dup2\n      0x01\n      add\n      swap1\n      dup2\n      tag_104\n      swap2\n      swap1\n      tag_103\n      jump\t// in\n    tag_104:\n      pop\n      0x40\n      dup3\n      add\n      mload\n      dup2\n      0x02\n      add\n      sstore\n      0x60\n      dup3\n      add\n      mload\n      dup2\n      0x03\n      add\n      swap1\n      dup2\n      tag_105\n      swap2\n      swap1\n      tag_103\n      jump\t// in\n    tag_105:\n      pop\n      0x80\n      dup3\n      add\n      mload\n      dup2\n      0x04\n      add\n      exp(0x0100, 0x00)\n      dup2\n      sload\n      dup2\n      0xffffffffffffffffffffffffffffffffffffffff\n      mul\n      not\n      and\n      swap1\n      dup4\n      0xffffffffffffffffffffffffffffffffffffffff\n      and\n      mul\n      or\n      swap1\n      sstore\n      pop\n      0xa0\n      dup3\n      add\n      mload\n      dup2\n      0x05\n      add\n      sstore\n      swap1\n      pop\n      pop\n        /* \"contracts/CarRegistratiom.sol\":2710:3334  {... */\n      pop\n        /* \"contracts/CarRegistratiom.sol\":2604:3334  function registerCar(string memory _make, string memory _model, uint256 _year, string memory _vin) public {... */\n      pop\n      pop\n      pop\n      pop\n      jump\t// out\n        /* \"contracts/CarRegistratiom.sol\":5949:6046  function getRepairsCount() public view returns (uint256) {... */\n    tag_30:\n        /* \"contracts/CarRegistratiom.sol\":5997:6004  uint256 */\n      0x00\n        /* \"contracts/CarRegistratiom.sol\":6024:6031  repairs */\n      dup1\n        /* \"contracts/CarRegistratiom.sol\":6024:6038  repairs.length */\n      dup1\n      sload\n      swap1\n      pop\n        /* \"contracts/CarRegistratiom.sol\":6017:6038  return repairs.length */\n      swap1\n      pop\n        /* \"contracts/CarRegistratiom.sol\":5949:6046  function getRepairsCount() public view returns (uint256) {... */\n      swap1\n      jump\t// out\n        /* \"contracts/CarRegistratiom.sol\":2362:2399  address payable public serviceAddress */\n    tag_34:\n      0x01\n      0x00\n      swap1\n      sload\n      swap1\n      0x0100\n      exp\n      swap1\n      div\n      0xffffffffffffffffffffffffffffffffffffffff\n      and\n      dup2\n      jump\t// out\n        /* \"contracts/CarRegistratiom.sol\":2483:2529  mapping (address => Car) public registeredCars */\n    tag_41:\n      mstore(0x20, 0x02)\n      dup1\n      0x00\n      mstore\n      keccak256(0x00, 0x40)\n      0x00\n      swap2\n      pop\n      swap1\n      pop\n      dup1\n      0x00\n      add\n      dup1\n      sload\n      tag_107\n      swap1\n      tag_64\n      jump\t// in\n    tag_107:\n      dup1\n      0x1f\n      add\n      0x20\n      dup1\n      swap2\n      div\n      mul\n      0x20\n      add\n      mload(0x40)\n      swap1\n      dup2\n      add\n      0x40\n      mstore\n      dup1\n      swap3\n      swap2\n      swap1\n      dup2\n      dup2\n      mstore\n      0x20\n      add\n      dup3\n      dup1\n      sload\n      tag_108\n      swap1\n      tag_64\n      jump\t// in\n    tag_108:\n      dup1\n      iszero\n      tag_109\n      jumpi\n      dup1\n      0x1f\n      lt\n      tag_110\n      jumpi\n      0x0100\n      dup1\n      dup4\n      sload\n      div\n      mul\n      dup4\n      mstore\n      swap2\n      0x20\n      add\n      swap2\n      jump(tag_109)\n    tag_110:\n      dup3\n      add\n      swap2\n      swap1\n      0x00\n      mstore\n      keccak256(0x00, 0x20)\n      swap1\n    tag_111:\n      dup2\n      sload\n      dup2\n      mstore\n      swap1\n      0x01\n      add\n      swap1\n      0x20\n      add\n      dup1\n      dup4\n      gt\n      tag_111\n      jumpi\n      dup3\n      swap1\n      sub\n      0x1f\n      and\n      dup3\n      add\n      swap2\n    tag_109:\n      pop\n      pop\n      pop\n      pop\n      pop\n      swap1\n      dup1\n      0x01\n      add\n      dup1\n      sload\n      tag_112\n      swap1\n      tag_64\n      jump\t// in\n    tag_112:\n      dup1\n      0x1f\n      add\n      0x20\n      dup1\n      swap2\n      div\n      mul\n      0x20\n      add\n      mload(0x40)\n      swap1\n      dup2\n      add\n      0x40\n      mstore\n      dup1\n      swap3\n      swap2\n      swap1\n      dup2\n      dup2\n      mstore\n      0x20\n      add\n      dup3\n      dup1\n      sload\n      tag_113\n      swap1\n      tag_64\n      jump\t// in\n    tag_113:\n      dup1\n      iszero\n      tag_114\n      jumpi\n      dup1\n      0x1f\n      lt\n      tag_115\n      jumpi\n      0x0100\n      dup1\n      dup4\n      sload\n      div\n      mul\n      dup4\n      mstore\n      swap2\n      0x20\n      add\n      swap2\n      jump(tag_114)\n    tag_115:\n      dup3\n      add\n      swap2\n      swap1\n      0x00\n      mstore\n      keccak256(0x00, 0x20)\n      swap1\n    tag_116:\n      dup2\n      sload\n      dup2\n      mstore\n      swap1\n      0x01\n      add\n      swap1\n      0x20\n      add\n      dup1\n      dup4\n      gt\n      tag_116\n      jumpi\n      dup3\n      swap1\n      sub\n      0x1f\n      and\n      dup3\n      add\n      swap2\n    tag_114:\n      pop\n      pop\n      pop\n      pop\n      pop\n      swap1\n      dup1\n      0x02\n      add\n      sload\n      swap1\n      dup1\n      0x03\n      add\n      dup1\n      sload\n      tag_117\n      swap1\n      tag_64\n      jump\t// in\n    tag_117:\n      dup1\n      0x1f\n      add\n      0x20\n      dup1\n      swap2\n      div\n      mul\n      0x20\n      add\n      mload(0x40)\n      swap1\n      dup2\n      add\n      0x40\n      mstore\n      dup1\n      swap3\n      swap2\n      swap1\n      dup2\n      dup2\n      mstore\n      0x20\n      add\n      dup3\n      dup1\n      sload\n      tag_118\n      swap1\n      tag_64\n      jump\t// in\n    tag_118:\n      dup1\n      iszero\n      tag_119\n      jumpi\n      dup1\n      0x1f\n      lt\n      tag_120\n      jumpi\n      0x0100\n      dup1\n      dup4\n      sload\n      div\n      mul\n      dup4\n      mstore\n      swap2\n      0x20\n      add\n      swap2\n      jump(tag_119)\n    tag_120:\n      dup3\n      add\n      swap2\n      swap1\n      0x00\n      mstore\n      keccak256(0x00, 0x20)\n      swap1\n    tag_121:\n      dup2\n      sload\n      dup2\n      mstore\n      swap1\n      0x01\n      add\n      swap1\n      0x20\n      add\n      dup1\n      dup4\n      gt\n      tag_121\n      jumpi\n      dup3\n      swap1\n      sub\n      0x1f\n      and\n      dup3\n      add\n      swap2\n    tag_119:\n      pop\n      pop\n      pop\n      pop\n      pop\n      swap1\n      dup1\n      0x04\n      add\n      0x00\n      swap1\n      sload\n      swap1\n      0x0100\n      exp\n      swap1\n      div\n      0xffffffffffffffffffffffffffffffffffffffff\n      and\n      swap1\n      dup1\n      0x05\n      add\n      sload\n      swap1\n      pop\n      dup7\n      jump\t// out\n        /* \"contracts/CarRegistratiom.sol\":6328:6940  function payRepair(uint256 _repairId) public payable {... */\n    tag_46:\n        /* \"contracts/CarRegistratiom.sol\":6412:6419  repairs */\n      0x00\n        /* \"contracts/CarRegistratiom.sol\":6412:6426  repairs.length */\n      dup1\n      sload\n      swap1\n      pop\n        /* \"contracts/CarRegistratiom.sol\":6400:6409  _repairId */\n      dup2\n        /* \"contracts/CarRegistratiom.sol\":6400:6426  _repairId < repairs.length */\n      lt\n        /* \"contracts/CarRegistratiom.sol\":6392:6448  require(_repairId < repairs.length, \"Invalid repair ID\") */\n      tag_123\n      jumpi\n      mload(0x40)\n      0x08c379a000000000000000000000000000000000000000000000000000000000\n      dup2\n      mstore\n      0x04\n      add\n      tag_124\n      swap1\n      tag_125\n      jump\t// in\n    tag_124:\n      mload(0x40)\n      dup1\n      swap2\n      sub\n      swap1\n      revert\n    tag_123:\n        /* \"contracts/CarRegistratiom.sol\":6480:6487  repairs */\n      0x00\n        /* \"contracts/CarRegistratiom.sol\":6488:6497  _repairId */\n      dup2\n        /* \"contracts/CarRegistratiom.sol\":6480:6498  repairs[_repairId] */\n      dup2\n      sload\n      dup2\n      lt\n      tag_126\n      jumpi\n      tag_127\n      tag_128\n      jump\t// in\n    tag_127:\n    tag_126:\n      swap1\n      0x00\n      mstore\n      keccak256(0x00, 0x20)\n      swap1\n      0x03\n      mul\n      add\n        /* \"contracts/CarRegistratiom.sol\":6480:6503  repairs[_repairId].cost */\n      0x01\n      add\n      sload\n        /* \"contracts/CarRegistratiom.sol\":6467:6476  msg.value */\n      callvalue\n        /* \"contracts/CarRegistratiom.sol\":6467:6503  msg.value == repairs[_repairId].cost */\n      eq\n        /* \"contracts/CarRegistratiom.sol\":6459:6532  require(msg.value == repairs[_repairId].cost, \"Incorrect payment amount\") */\n      tag_130\n      jumpi\n      mload(0x40)\n      0x08c379a000000000000000000000000000000000000000000000000000000000\n      dup2\n      mstore\n      0x04\n      add\n      tag_131\n      swap1\n      tag_132\n      jump\t// in\n    tag_131:\n      mload(0x40)\n      dup1\n      swap2\n      sub\n      swap1\n      revert\n    tag_130:\n        /* \"contracts/CarRegistratiom.sol\":6552:6559  repairs */\n      0x00\n        /* \"contracts/CarRegistratiom.sol\":6560:6569  _repairId */\n      dup2\n        /* \"contracts/CarRegistratiom.sol\":6552:6570  repairs[_repairId] */\n      dup2\n      sload\n      dup2\n      lt\n      tag_133\n      jumpi\n      tag_134\n      tag_128\n      jump\t// in\n    tag_134:\n    tag_133:\n      swap1\n      0x00\n      mstore\n      keccak256(0x00, 0x20)\n      swap1\n      0x03\n      mul\n      add\n        /* \"contracts/CarRegistratiom.sol\":6552:6575  repairs[_repairId].paid */\n      0x02\n      add\n      0x00\n      swap1\n      sload\n      swap1\n      0x0100\n      exp\n      swap1\n      div\n      0xff\n      and\n        /* \"contracts/CarRegistratiom.sol\":6551:6575  !repairs[_repairId].paid */\n      iszero\n        /* \"contracts/CarRegistratiom.sol\":6543:6613  require(!repairs[_repairId].paid, \"This repair has already been paid\") */\n      tag_136\n      jumpi\n      mload(0x40)\n      0x08c379a000000000000000000000000000000000000000000000000000000000\n      dup2\n      mstore\n      0x04\n      add\n      tag_137\n      swap1\n      tag_138\n      jump\t// in\n    tag_137:\n      mload(0x40)\n      dup1\n      swap2\n      sub\n      swap1\n      revert\n    tag_136:\n        /* \"contracts/CarRegistratiom.sol\":6718:6732  serviceAddress */\n      0x01\n      0x00\n      swap1\n      sload\n      swap1\n      0x0100\n      exp\n      swap1\n      div\n      0xffffffffffffffffffffffffffffffffffffffff\n      and\n        /* \"contracts/CarRegistratiom.sol\":6718:6741  serviceAddress.transfer */\n      0xffffffffffffffffffffffffffffffffffffffff\n      and\n        /* \"contracts/CarRegistratiom.sol\":6718:6752  serviceAddress.transfer(msg.value) */\n      0x08fc\n        /* \"contracts/CarRegistratiom.sol\":6742:6751  msg.value */\n      callvalue\n        /* \"contracts/CarRegistratiom.sol\":6718:6752  serviceAddress.transfer(msg.value) */\n      swap1\n      dup2\n      iszero\n      mul\n      swap1\n      mload(0x40)\n      0x00\n      mload(0x40)\n      dup1\n      dup4\n      sub\n      dup2\n      dup6\n      dup9\n      dup9\n      call\n      swap4\n      pop\n      pop\n      pop\n      pop\n      iszero\n      dup1\n      iszero\n      tag_140\n      jumpi\n      returndatasize\n      0x00\n      dup1\n      returndatacopy\n      revert(0x00, returndatasize)\n    tag_140:\n      pop\n        /* \"contracts/CarRegistratiom.sol\":6881:6885  true */\n      0x01\n        /* \"contracts/CarRegistratiom.sol\":6855:6862  repairs */\n      0x00\n        /* \"contracts/CarRegistratiom.sol\":6863:6872  _repairId */\n      dup3\n        /* \"contracts/CarRegistratiom.sol\":6855:6873  repairs[_repairId] */\n      dup2\n      sload\n      dup2\n      lt\n      tag_141\n      jumpi\n      tag_142\n      tag_128\n      jump\t// in\n    tag_142:\n    tag_141:\n      swap1\n      0x00\n      mstore\n      keccak256(0x00, 0x20)\n      swap1\n      0x03\n      mul\n      add\n        /* \"contracts/CarRegistratiom.sol\":6855:6878  repairs[_repairId].paid */\n      0x02\n      add\n      0x00\n        /* \"contracts/CarRegistratiom.sol\":6855:6885  repairs[_repairId].paid = true */\n      0x0100\n      exp\n      dup2\n      sload\n      dup2\n      0xff\n      mul\n      not\n      and\n      swap1\n      dup4\n      iszero\n      iszero\n      mul\n      or\n      swap1\n      sstore\n      pop\n        /* \"contracts/CarRegistratiom.sol\":6911:6932  RepairPaid(_repairId) */\n      0xd477afad70aa960fbbeeb73ccddf30f5eb5dc17171b5b73736bd63754eaffa73\n        /* \"contracts/CarRegistratiom.sol\":6922:6931  _repairId */\n      dup2\n        /* \"contracts/CarRegistratiom.sol\":6911:6932  RepairPaid(_repairId) */\n      mload(0x40)\n      tag_144\n      swap2\n      swap1\n      tag_22\n      jump\t// in\n    tag_144:\n      mload(0x40)\n      dup1\n      swap2\n      sub\n      swap1\n      log1\n        /* \"contracts/CarRegistratiom.sol\":6328:6940  function payRepair(uint256 _repairId) public payable {... */\n      pop\n      jump\t// out\n        /* \"contracts/CarRegistratiom.sol\":5562:5851  function addRepair(string memory _description, uint256 _cost) public {... */\n    tag_51:\n        /* \"contracts/CarRegistratiom.sol\":5642:5649  repairs */\n      0x00\n        /* \"contracts/CarRegistratiom.sol\":5655:5766  Repair({... */\n      mload(0x40)\n      dup1\n      0x60\n      add\n      0x40\n      mstore\n      dup1\n        /* \"contracts/CarRegistratiom.sol\":5690:5702  _description */\n      dup5\n        /* \"contracts/CarRegistratiom.sol\":5655:5766  Repair({... */\n      dup2\n      mstore\n      0x20\n      add\n        /* \"contracts/CarRegistratiom.sol\":5723:5728  _cost */\n      dup4\n        /* \"contracts/CarRegistratiom.sol\":5655:5766  Repair({... */\n      dup2\n      mstore\n      0x20\n      add\n        /* \"contracts/CarRegistratiom.sol\":5749:5754  false */\n      0x00\n        /* \"contracts/CarRegistratiom.sol\":5655:5766  Repair({... */\n      iszero\n      iszero\n      dup2\n      mstore\n      pop\n        /* \"contracts/CarRegistratiom.sol\":5642:5767  repairs.push(Repair({... */\n      swap1\n      dup1\n      0x01\n      dup2\n      sload\n      add\n      dup1\n      dup3\n      sstore\n      dup1\n      swap2\n      pop\n      pop\n      0x01\n      swap1\n      sub\n      swap1\n      0x00\n      mstore\n      keccak256(0x00, 0x20)\n      swap1\n      0x03\n      mul\n      add\n      0x00\n      swap1\n      swap2\n      swap1\n      swap2\n      swap1\n      swap2\n      pop\n      0x00\n      dup3\n      add\n      mload\n      dup2\n      0x00\n      add\n      swap1\n      dup2\n      tag_147\n      swap2\n      swap1\n      tag_103\n      jump\t// in\n    tag_147:\n      pop\n      0x20\n      dup3\n      add\n      mload\n      dup2\n      0x01\n      add\n      sstore\n      0x40\n      dup3\n      add\n      mload\n      dup2\n      0x02\n      add\n      exp(0x0100, 0x00)\n      dup2\n      sload\n      dup2\n      0xff\n      mul\n      not\n      and\n      swap1\n      dup4\n      iszero\n      iszero\n      mul\n      or\n      swap1\n      sstore\n      pop\n      pop\n      pop\n        /* \"contracts/CarRegistratiom.sol\":5793:5843  NewRepair(repairs.length - 1, _description, _cost) */\n      0xfbd2fb28dc54becd774801659cef1fb9f8cd42c2b8995633ab96af3a64feade0\n        /* \"contracts/CarRegistratiom.sol\":5820:5821  1 */\n      0x01\n        /* \"contracts/CarRegistratiom.sol\":5803:5810  repairs */\n      0x00\n        /* \"contracts/CarRegistratiom.sol\":5803:5817  repairs.length */\n      dup1\n      sload\n      swap1\n      pop\n        /* \"contracts/CarRegistratiom.sol\":5803:5821  repairs.length - 1 */\n      tag_148\n      swap2\n      swap1\n      tag_149\n      jump\t// in\n    tag_148:\n        /* \"contracts/CarRegistratiom.sol\":5823:5835  _description */\n      dup4\n        /* \"contracts/CarRegistratiom.sol\":5837:5842  _cost */\n      dup4\n        /* \"contracts/CarRegistratiom.sol\":5793:5843  NewRepair(repairs.length - 1, _description, _cost) */\n      mload(0x40)\n      tag_150\n      swap4\n      swap3\n      swap2\n      swap1\n      tag_151\n      jump\t// in\n    tag_150:\n      mload(0x40)\n      dup1\n      swap2\n      sub\n      swap1\n      log1\n        /* \"contracts/CarRegistratiom.sol\":5562:5851  function addRepair(string memory _description, uint256 _cost) public {... */\n      pop\n      pop\n      jump\t// out\n        /* \"contracts/CarRegistratiom.sol\":2242:2265  Repair[] public repairs */\n    tag_55:\n      0x00\n      dup2\n      dup2\n      sload\n      dup2\n      lt\n      tag_152\n      jumpi\n      0x00\n      dup1\n      revert\n    tag_152:\n      swap1\n      0x00\n      mstore\n      keccak256(0x00, 0x20)\n      swap1\n      0x03\n      mul\n      add\n      0x00\n      swap2\n      pop\n      swap1\n      pop\n      dup1\n      0x00\n      add\n      dup1\n      sload\n      tag_154\n      swap1\n      tag_64\n      jump\t// in\n    tag_154:\n      dup1\n      0x1f\n      add\n      0x20\n      dup1\n      swap2\n      div\n      mul\n      0x20\n      add\n      mload(0x40)\n      swap1\n      dup2\n      add\n      0x40\n      mstore\n      dup1\n      swap3\n      swap2\n      swap1\n      dup2\n      dup2\n      mstore\n      0x20\n      add\n      dup3\n      dup1\n      sload\n      tag_155\n      swap1\n      tag_64\n      jump\t// in\n    tag_155:\n      dup1\n      iszero\n      tag_156\n      jumpi\n      dup1\n      0x1f\n      lt\n      tag_157\n      jumpi\n      0x0100\n      dup1\n      dup4\n      sload\n      div\n      mul\n      dup4\n      mstore\n      swap2\n      0x20\n      add\n      swap2\n      jump(tag_156)\n    tag_157:\n      dup3\n      add\n      swap2\n      swap1\n      0x00\n      mstore\n      keccak256(0x00, 0x20)\n      swap1\n    tag_158:\n      dup2\n      sload\n      dup2\n      mstore\n      swap1\n      0x01\n      add\n      swap1\n      0x20\n      add\n      dup1\n      dup4\n      gt\n      tag_158\n      jumpi\n      dup3\n      swap1\n      sub\n      0x1f\n      and\n      dup3\n      add\n      swap2\n    tag_156:\n      pop\n      pop\n      pop\n      pop\n      pop\n      swap1\n      dup1\n      0x01\n      add\n      sload\n      swap1\n      dup1\n      0x02\n      add\n      0x00\n      swap1\n      sload\n      swap1\n      0x0100\n      exp\n      swap1\n      div\n      0xff\n      and\n      swap1\n      pop\n      dup4\n      jump\t// out\n        /* \"contracts/CarRegistratiom.sol\":3523:4224  function transferOwnership(address _newOwner) public {... */\n    tag_61:\n        /* \"contracts/CarRegistratiom.sol\":3653:3667  Car memory car */\n      0x00\n        /* \"contracts/CarRegistratiom.sol\":3670:3684  registeredCars */\n      0x02\n        /* \"contracts/CarRegistratiom.sol\":3670:3696  registeredCars[msg.sender] */\n      0x00\n        /* \"contracts/CarRegistratiom.sol\":3685:3695  msg.sender */\n      caller\n        /* \"contracts/CarRegistratiom.sol\":3670:3696  registeredCars[msg.sender] */\n      0xffffffffffffffffffffffffffffffffffffffff\n      and\n      0xffffffffffffffffffffffffffffffffffffffff\n      and\n      dup2\n      mstore\n      0x20\n      add\n      swap1\n      dup2\n      mstore\n      0x20\n      add\n      0x00\n      keccak256\n        /* \"contracts/CarRegistratiom.sol\":3653:3696  Car memory car = registeredCars[msg.sender] */\n      mload(0x40)\n      dup1\n      0xc0\n      add\n      0x40\n      mstore\n      swap1\n      dup2\n      0x00\n      dup3\n      add\n      dup1\n      sload\n      tag_160\n      swap1\n      tag_64\n      jump\t// in\n    tag_160:\n      dup1\n      0x1f\n      add\n      0x20\n      dup1\n      swap2\n      div\n      mul\n      0x20\n      add\n      mload(0x40)\n      swap1\n      dup2\n      add\n      0x40\n      mstore\n      dup1\n      swap3\n      swap2\n      swap1\n      dup2\n      dup2\n      mstore\n      0x20\n      add\n      dup3\n      dup1\n      sload\n      tag_161\n      swap1\n      tag_64\n      jump\t// in\n    tag_161:\n      dup1\n      iszero\n      tag_162\n      jumpi\n      dup1\n      0x1f\n      lt\n      tag_163\n      jumpi\n      0x0100\n      dup1\n      dup4\n      sload\n      div\n      mul\n      dup4\n      mstore\n      swap2\n      0x20\n      add\n      swap2\n      jump(tag_162)\n    tag_163:\n      dup3\n      add\n      swap2\n      swap1\n      0x00\n      mstore\n      keccak256(0x00, 0x20)\n      swap1\n    tag_164:\n      dup2\n      sload\n      dup2\n      mstore\n      swap1\n      0x01\n      add\n      swap1\n      0x20\n      add\n      dup1\n      dup4\n      gt\n      tag_164\n      jumpi\n      dup3\n      swap1\n      sub\n      0x1f\n      and\n      dup3\n      add\n      swap2\n    tag_162:\n      pop\n      pop\n      pop\n      pop\n      pop\n      dup2\n      mstore\n      0x20\n      add\n      0x01\n      dup3\n      add\n      dup1\n      sload\n      tag_165\n      swap1\n      tag_64\n      jump\t// in\n    tag_165:\n      dup1\n      0x1f\n      add\n      0x20\n      dup1\n      swap2\n      div\n      mul\n      0x20\n      add\n      mload(0x40)\n      swap1\n      dup2\n      add\n      0x40\n      mstore\n      dup1\n      swap3\n      swap2\n      swap1\n      dup2\n      dup2\n      mstore\n      0x20\n      add\n      dup3\n      dup1\n      sload\n      tag_166\n      swap1\n      tag_64\n      jump\t// in\n    tag_166:\n      dup1\n      iszero\n      tag_167\n      jumpi\n      dup1\n      0x1f\n      lt\n      tag_168\n      jumpi\n      0x0100\n      dup1\n      dup4\n      sload\n      div\n      mul\n      dup4\n      mstore\n      swap2\n      0x20\n      add\n      swap2\n      jump(tag_167)\n    tag_168:\n      dup3\n      add\n      swap2\n      swap1\n      0x00\n      mstore\n      keccak256(0x00, 0x20)\n      swap1\n    tag_169:\n      dup2\n      sload\n      dup2\n      mstore\n      swap1\n      0x01\n      add\n      swap1\n      0x20\n      add\n      dup1\n      dup4\n      gt\n      tag_169\n      jumpi\n      dup3\n      swap1\n      sub\n      0x1f\n      and\n      dup3\n      add\n      swap2\n    tag_167:\n      pop\n      pop\n      pop\n      pop\n      pop\n      dup2\n      mstore\n      0x20\n      add\n      0x02\n      dup3\n      add\n      sload\n      dup2\n      mstore\n      0x20\n      add\n      0x03\n      dup3\n      add\n      dup1\n      sload\n      tag_170\n      swap1\n      tag_64\n      jump\t// in\n    tag_170:\n      dup1\n      0x1f\n      add\n      0x20\n      dup1\n      swap2\n      div\n      mul\n      0x20\n      add\n      mload(0x40)\n      swap1\n      dup2\n      add\n      0x40\n      mstore\n      dup1\n      swap3\n      swap2\n      swap1\n      dup2\n      dup2\n      mstore\n      0x20\n      add\n      dup3\n      dup1\n      sload\n      tag_171\n      swap1\n      tag_64\n      jump\t// in\n    tag_171:\n      dup1\n      iszero\n      tag_172\n      jumpi\n      dup1\n      0x1f\n      lt\n      tag_173\n      jumpi\n      0x0100\n      dup1\n      dup4\n      sload\n      div\n      mul\n      dup4\n      mstore\n      swap2\n      0x20\n      add\n      swap2\n      jump(tag_172)\n    tag_173:\n      dup3\n      add\n      swap2\n      swap1\n      0x00\n      mstore\n      keccak256(0x00, 0x20)\n      swap1\n    tag_174:\n      dup2\n      sload\n      dup2\n      mstore\n      swap1\n      0x01\n      add\n      swap1\n      0x20\n      add\n      dup1\n      dup4\n      gt\n      tag_174\n      jumpi\n      dup3\n      swap1\n      sub\n      0x1f\n      and\n      dup3\n      add\n      swap2\n    tag_172:\n      pop\n      pop\n      pop\n      pop\n      pop\n      dup2\n      mstore\n      0x20\n      add\n      0x04\n      dup3\n      add\n      0x00\n      swap1\n      sload\n      swap1\n      0x0100\n      exp\n      swap1\n      div\n      0xffffffffffffffffffffffffffffffffffffffff\n      and\n      0xffffffffffffffffffffffffffffffffffffffff\n      and\n      0xffffffffffffffffffffffffffffffffffffffff\n      and\n      dup2\n      mstore\n      0x20\n      add\n      0x05\n      dup3\n      add\n      sload\n      dup2\n      mstore\n      pop\n      pop\n      swap1\n      pop\n        /* \"contracts/CarRegistratiom.sol\":3898:3901  car */\n      dup1\n        /* \"contracts/CarRegistratiom.sol\":3898:3907  car.owner */\n      0x80\n      add\n      mload\n        /* \"contracts/CarRegistratiom.sol\":3884:3907  msg.sender == car.owner */\n      0xffffffffffffffffffffffffffffffffffffffff\n      and\n        /* \"contracts/CarRegistratiom.sol\":3884:3894  msg.sender */\n      caller\n        /* \"contracts/CarRegistratiom.sol\":3884:3907  msg.sender == car.owner */\n      0xffffffffffffffffffffffffffffffffffffffff\n      and\n      eq\n        /* \"contracts/CarRegistratiom.sol\":3876:3944  require(msg.sender == car.owner, \"You are not the owner of the car\") */\n      tag_175\n      jumpi\n      mload(0x40)\n      0x08c379a000000000000000000000000000000000000000000000000000000000\n      dup2\n      mstore\n      0x04\n      add\n      tag_176\n      swap1\n      tag_177\n      jump\t// in\n    tag_176:\n      mload(0x40)\n      dup1\n      swap2\n      sub\n      swap1\n      revert\n    tag_175:\n        /* \"contracts/CarRegistratiom.sol\":4056:4065  _newOwner */\n      dup2\n        /* \"contracts/CarRegistratiom.sol\":4044:4047  car */\n      dup2\n        /* \"contracts/CarRegistratiom.sol\":4044:4053  car.owner */\n      0x80\n      add\n        /* \"contracts/CarRegistratiom.sol\":4044:4065  car.owner = _newOwner */\n      swap1\n      0xffffffffffffffffffffffffffffffffffffffff\n      and\n      swap1\n      dup2\n      0xffffffffffffffffffffffffffffffffffffffff\n      and\n      dup2\n      mstore\n      pop\n      pop\n        /* \"contracts/CarRegistratiom.sol\":4213:4216  car */\n      dup1\n        /* \"contracts/CarRegistratiom.sol\":4185:4199  registeredCars */\n      0x02\n        /* \"contracts/CarRegistratiom.sol\":4185:4210  registeredCars[_newOwner] */\n      0x00\n        /* \"contracts/CarRegistratiom.sol\":4200:4209  _newOwner */\n      dup5\n        /* \"contracts/CarRegistratiom.sol\":4185:4210  registeredCars[_newOwner] */\n      0xffffffffffffffffffffffffffffffffffffffff\n      and\n      0xffffffffffffffffffffffffffffffffffffffff\n      and\n      dup2\n      mstore\n      0x20\n      add\n      swap1\n      dup2\n      mstore\n      0x20\n      add\n      0x00\n      keccak256\n        /* \"contracts/CarRegistratiom.sol\":4185:4216  registeredCars[_newOwner] = car */\n      0x00\n      dup3\n      add\n      mload\n      dup2\n      0x00\n      add\n      swap1\n      dup2\n      tag_178\n      swap2\n      swap1\n      tag_103\n      jump\t// in\n    tag_178:\n      pop\n      0x20\n      dup3\n      add\n      mload\n      dup2\n      0x01\n      add\n      swap1\n      dup2\n      tag_179\n      swap2\n      swap1\n      tag_103\n      jump\t// in\n    tag_179:\n      pop\n      0x40\n      dup3\n      add\n      mload\n      dup2\n      0x02\n      add\n      sstore\n      0x60\n      dup3\n      add\n      mload\n      dup2\n      0x03\n      add\n      swap1\n      dup2\n      tag_180\n      swap2\n      swap1\n      tag_103\n      jump\t// in\n    tag_180:\n      pop\n      0x80\n      dup3\n      add\n      mload\n      dup2\n      0x04\n      add\n      exp(0x0100, 0x00)\n      dup2\n      sload\n      dup2\n      0xffffffffffffffffffffffffffffffffffffffff\n      mul\n      not\n      and\n      swap1\n      dup4\n      0xffffffffffffffffffffffffffffffffffffffff\n      and\n      mul\n      or\n      swap1\n      sstore\n      pop\n      0xa0\n      dup3\n      add\n      mload\n      dup2\n      0x05\n      add\n      sstore\n      swap1\n      pop\n      pop\n        /* \"contracts/CarRegistratiom.sol\":3576:4224  {... */\n      pop\n        /* \"contracts/CarRegistratiom.sol\":3523:4224  function transferOwnership(address _newOwner) public {... */\n      pop\n      jump\t// out\n        /* \"#utility.yul\":7:82   */\n    tag_181:\n        /* \"#utility.yul\":40:46   */\n      0x00\n        /* \"#utility.yul\":73:75   */\n      0x40\n        /* \"#utility.yul\":67:76   */\n      mload\n        /* \"#utility.yul\":57:76   */\n      swap1\n      pop\n        /* \"#utility.yul\":7:82   */\n      swap1\n      jump\t// out\n        /* \"#utility.yul\":88:205   */\n    tag_182:\n        /* \"#utility.yul\":197:198   */\n      0x00\n        /* \"#utility.yul\":194:195   */\n      dup1\n        /* \"#utility.yul\":187:199   */\n      revert\n        /* \"#utility.yul\":211:328   */\n    tag_183:\n        /* \"#utility.yul\":320:321   */\n      0x00\n        /* \"#utility.yul\":317:318   */\n      dup1\n        /* \"#utility.yul\":310:322   */\n      revert\n        /* \"#utility.yul\":334:411   */\n    tag_184:\n        /* \"#utility.yul\":371:378   */\n      0x00\n        /* \"#utility.yul\":400:405   */\n      dup2\n        /* \"#utility.yul\":389:405   */\n      swap1\n      pop\n        /* \"#utility.yul\":334:411   */\n      swap2\n      swap1\n      pop\n      jump\t// out\n        /* \"#utility.yul\":417:539   */\n    tag_185:\n        /* \"#utility.yul\":490:514   */\n      tag_246\n        /* \"#utility.yul\":508:513   */\n      dup2\n        /* \"#utility.yul\":490:514   */\n      tag_184\n      jump\t// in\n    tag_246:\n        /* \"#utility.yul\":483:488   */\n      dup2\n        /* \"#utility.yul\":480:515   */\n      eq\n        /* \"#utility.yul\":470:533   */\n      tag_247\n      jumpi\n        /* \"#utility.yul\":529:530   */\n      0x00\n        /* \"#utility.yul\":526:527   */\n      dup1\n        /* \"#utility.yul\":519:531   */\n      revert\n        /* \"#utility.yul\":470:533   */\n    tag_247:\n        /* \"#utility.yul\":417:539   */\n      pop\n      jump\t// out\n        /* \"#utility.yul\":545:684   */\n    tag_186:\n        /* \"#utility.yul\":591:596   */\n      0x00\n        /* \"#utility.yul\":629:635   */\n      dup2\n        /* \"#utility.yul\":616:636   */\n      calldataload\n        /* \"#utility.yul\":607:636   */\n      swap1\n      pop\n        /* \"#utility.yul\":645:678   */\n      tag_249\n        /* \"#utility.yul\":672:677   */\n      dup2\n        /* \"#utility.yul\":645:678   */\n      tag_185\n      jump\t// in\n    tag_249:\n        /* \"#utility.yul\":545:684   */\n      swap3\n      swap2\n      pop\n      pop\n      jump\t// out\n        /* \"#utility.yul\":690:1019   */\n    tag_16:\n        /* \"#utility.yul\":749:755   */\n      0x00\n        /* \"#utility.yul\":798:800   */\n      0x20\n        /* \"#utility.yul\":786:795   */\n      dup3\n        /* \"#utility.yul\":777:784   */\n      dup5\n        /* \"#utility.yul\":773:796   */\n      sub\n        /* \"#utility.yul\":769:801   */\n      slt\n        /* \"#utility.yul\":766:885   */\n      iszero\n      tag_251\n      jumpi\n        /* \"#utility.yul\":804:883   */\n      tag_252\n      tag_182\n      jump\t// in\n    tag_252:\n        /* \"#utility.yul\":766:885   */\n    tag_251:\n        /* \"#utility.yul\":924:925   */\n      0x00\n        /* \"#utility.yul\":949:1002   */\n      tag_253\n        /* \"#utility.yul\":994:1001   */\n      dup5\n        /* \"#utility.yul\":985:991   */\n      dup3\n        /* \"#utility.yul\":974:983   */\n      dup6\n        /* \"#utility.yul\":970:992   */\n      add\n        /* \"#utility.yul\":949:1002   */\n      tag_186\n      jump\t// in\n    tag_253:\n        /* \"#utility.yul\":939:1002   */\n      swap2\n      pop\n        /* \"#utility.yul\":895:1012   */\n      pop\n        /* \"#utility.yul\":690:1019   */\n      swap3\n      swap2\n      pop\n      pop\n      jump\t// out\n        /* \"#utility.yul\":1025:1143   */\n    tag_187:\n        /* \"#utility.yul\":1112:1136   */\n      tag_255\n        /* \"#utility.yul\":1130:1135   */\n      dup2\n        /* \"#utility.yul\":1112:1136   */\n      tag_184\n      jump\t// in\n    tag_255:\n        /* \"#utility.yul\":1107:1110   */\n      dup3\n        /* \"#utility.yul\":1100:1137   */\n      mstore\n        /* \"#utility.yul\":1025:1143   */\n      pop\n      pop\n      jump\t// out\n        /* \"#utility.yul\":1149:1371   */\n    tag_22:\n        /* \"#utility.yul\":1242:1246   */\n      0x00\n        /* \"#utility.yul\":1280:1282   */\n      0x20\n        /* \"#utility.yul\":1269:1278   */\n      dup3\n        /* \"#utility.yul\":1265:1283   */\n      add\n        /* \"#utility.yul\":1257:1283   */\n      swap1\n      pop\n        /* \"#utility.yul\":1293:1364   */\n      tag_257\n        /* \"#utility.yul\":1361:1362   */\n      0x00\n        /* \"#utility.yul\":1350:1359   */\n      dup4\n        /* \"#utility.yul\":1346:1363   */\n      add\n        /* \"#utility.yul\":1337:1343   */\n      dup5\n        /* \"#utility.yul\":1293:1364   */\n      tag_187\n      jump\t// in\n    tag_257:\n        /* \"#utility.yul\":1149:1371   */\n      swap3\n      swap2\n      pop\n      pop\n      jump\t// out\n        /* \"#utility.yul\":1377:1494   */\n    tag_188:\n        /* \"#utility.yul\":1486:1487   */\n      0x00\n        /* \"#utility.yul\":1483:1484   */\n      dup1\n        /* \"#utility.yul\":1476:1488   */\n      revert\n        /* \"#utility.yul\":1500:1617   */\n    tag_189:\n        /* \"#utility.yul\":1609:1610   */\n      0x00\n        /* \"#utility.yul\":1606:1607   */\n      dup1\n        /* \"#utility.yul\":1599:1611   */\n      revert\n        /* \"#utility.yul\":1623:1725   */\n    tag_190:\n        /* \"#utility.yul\":1664:1670   */\n      0x00\n        /* \"#utility.yul\":1715:1717   */\n      0x1f\n        /* \"#utility.yul\":1711:1718   */\n      not\n        /* \"#utility.yul\":1706:1708   */\n      0x1f\n        /* \"#utility.yul\":1699:1704   */\n      dup4\n        /* \"#utility.yul\":1695:1709   */\n      add\n        /* \"#utility.yul\":1691:1719   */\n      and\n        /* \"#utility.yul\":1681:1719   */\n      swap1\n      pop\n        /* \"#utility.yul\":1623:1725   */\n      swap2\n      swap1\n      pop\n      jump\t// out\n        /* \"#utility.yul\":1731:1911   */\n    tag_191:\n        /* \"#utility.yul\":1779:1856   */\n      0x4e487b7100000000000000000000000000000000000000000000000000000000\n        /* \"#utility.yul\":1776:1777   */\n      0x00\n        /* \"#utility.yul\":1769:1857   */\n      mstore\n        /* \"#utility.yul\":1876:1880   */\n      0x41\n        /* \"#utility.yul\":1873:1874   */\n      0x04\n        /* \"#utility.yul\":1866:1881   */\n      mstore\n        /* \"#utility.yul\":1900:1904   */\n      0x24\n        /* \"#utility.yul\":1897:1898   */\n      0x00\n        /* \"#utility.yul\":1890:1905   */\n      revert\n        /* \"#utility.yul\":1917:2198   */\n    tag_192:\n        /* \"#utility.yul\":2000:2027   */\n      tag_263\n        /* \"#utility.yul\":2022:2026   */\n      dup3\n        /* \"#utility.yul\":2000:2027   */\n      tag_190\n      jump\t// in\n    tag_263:\n        /* \"#utility.yul\":1992:1998   */\n      dup2\n        /* \"#utility.yul\":1988:2028   */\n      add\n        /* \"#utility.yul\":2130:2136   */\n      dup2\n        /* \"#utility.yul\":2118:2128   */\n      dup2\n        /* \"#utility.yul\":2115:2137   */\n      lt\n        /* \"#utility.yul\":2094:2112   */\n      0xffffffffffffffff\n        /* \"#utility.yul\":2082:2092   */\n      dup3\n        /* \"#utility.yul\":2079:2113   */\n      gt\n        /* \"#utility.yul\":2076:2138   */\n      or\n        /* \"#utility.yul\":2073:2161   */\n      iszero\n      tag_264\n      jumpi\n        /* \"#utility.yul\":2141:2159   */\n      tag_265\n      tag_191\n      jump\t// in\n    tag_265:\n        /* \"#utility.yul\":2073:2161   */\n    tag_264:\n        /* \"#utility.yul\":2181:2191   */\n      dup1\n        /* \"#utility.yul\":2177:2179   */\n      0x40\n        /* \"#utility.yul\":2170:2192   */\n      mstore\n        /* \"#utility.yul\":1960:2198   */\n      pop\n        /* \"#utility.yul\":1917:2198   */\n      pop\n      pop\n      jump\t// out\n        /* \"#utility.yul\":2204:2333   */\n    tag_193:\n        /* \"#utility.yul\":2238:2244   */\n      0x00\n        /* \"#utility.yul\":2265:2285   */\n      tag_267\n      tag_181\n      jump\t// in\n    tag_267:\n        /* \"#utility.yul\":2255:2285   */\n      swap1\n      pop\n        /* \"#utility.yul\":2294:2327   */\n      tag_268\n        /* \"#utility.yul\":2322:2326   */\n      dup3\n        /* \"#utility.yul\":2314:2320   */\n      dup3\n        /* \"#utility.yul\":2294:2327   */\n      tag_192\n      jump\t// in\n    tag_268:\n        /* \"#utility.yul\":2204:2333   */\n      swap2\n      swap1\n      pop\n      jump\t// out\n        /* \"#utility.yul\":2339:2647   */\n    tag_194:\n        /* \"#utility.yul\":2401:2405   */\n      0x00\n        /* \"#utility.yul\":2491:2509   */\n      0xffffffffffffffff\n        /* \"#utility.yul\":2483:2489   */\n      dup3\n        /* \"#utility.yul\":2480:2510   */\n      gt\n        /* \"#utility.yul\":2477:2533   */\n      iszero\n      tag_270\n      jumpi\n        /* \"#utility.yul\":2513:2531   */\n      tag_271\n      tag_191\n      jump\t// in\n    tag_271:\n        /* \"#utility.yul\":2477:2533   */\n    tag_270:\n        /* \"#utility.yul\":2551:2580   */\n      tag_272\n        /* \"#utility.yul\":2573:2579   */\n      dup3\n        /* \"#utility.yul\":2551:2580   */\n      tag_190\n      jump\t// in\n    tag_272:\n        /* \"#utility.yul\":2543:2580   */\n      swap1\n      pop\n        /* \"#utility.yul\":2635:2639   */\n      0x20\n        /* \"#utility.yul\":2629:2633   */\n      dup2\n        /* \"#utility.yul\":2625:2640   */\n      add\n        /* \"#utility.yul\":2617:2640   */\n      swap1\n      pop\n        /* \"#utility.yul\":2339:2647   */\n      swap2\n      swap1\n      pop\n      jump\t// out\n        /* \"#utility.yul\":2653:2799   */\n    tag_195:\n        /* \"#utility.yul\":2750:2756   */\n      dup3\n        /* \"#utility.yul\":2745:2748   */\n      dup2\n        /* \"#utility.yul\":2740:2743   */\n      dup4\n        /* \"#utility.yul\":2727:2757   */\n      calldatacopy\n        /* \"#utility.yul\":2791:2792   */\n      0x00\n        /* \"#utility.yul\":2782:2788   */\n      dup4\n        /* \"#utility.yul\":2777:2780   */\n      dup4\n        /* \"#utility.yul\":2773:2789   */\n      add\n        /* \"#utility.yul\":2766:2793   */\n      mstore\n        /* \"#utility.yul\":2653:2799   */\n      pop\n      pop\n      pop\n      jump\t// out\n        /* \"#utility.yul\":2805:3230   */\n    tag_196:\n        /* \"#utility.yul\":2883:2888   */\n      0x00\n        /* \"#utility.yul\":2908:2974   */\n      tag_275\n        /* \"#utility.yul\":2924:2973   */\n      tag_276\n        /* \"#utility.yul\":2966:2972   */\n      dup5\n        /* \"#utility.yul\":2924:2973   */\n      tag_194\n      jump\t// in\n    tag_276:\n        /* \"#utility.yul\":2908:2974   */\n      tag_193\n      jump\t// in\n    tag_275:\n        /* \"#utility.yul\":2899:2974   */\n      swap1\n      pop\n        /* \"#utility.yul\":2997:3003   */\n      dup3\n        /* \"#utility.yul\":2990:2995   */\n      dup2\n        /* \"#utility.yul\":2983:3004   */\n      mstore\n        /* \"#utility.yul\":3035:3039   */\n      0x20\n        /* \"#utility.yul\":3028:3033   */\n      dup2\n        /* \"#utility.yul\":3024:3040   */\n      add\n        /* \"#utility.yul\":3073:3076   */\n      dup5\n        /* \"#utility.yul\":3064:3070   */\n      dup5\n        /* \"#utility.yul\":3059:3062   */\n      dup5\n        /* \"#utility.yul\":3055:3071   */\n      add\n        /* \"#utility.yul\":3052:3077   */\n      gt\n        /* \"#utility.yul\":3049:3161   */\n      iszero\n      tag_277\n      jumpi\n        /* \"#utility.yul\":3080:3159   */\n      tag_278\n      tag_189\n      jump\t// in\n    tag_278:\n        /* \"#utility.yul\":3049:3161   */\n    tag_277:\n        /* \"#utility.yul\":3170:3224   */\n      tag_279\n        /* \"#utility.yul\":3217:3223   */\n      dup5\n        /* \"#utility.yul\":3212:3215   */\n      dup3\n        /* \"#utility.yul\":3207:3210   */\n      dup6\n        /* \"#utility.yul\":3170:3224   */\n      tag_195\n      jump\t// in\n    tag_279:\n        /* \"#utility.yul\":2889:3230   */\n      pop\n        /* \"#utility.yul\":2805:3230   */\n      swap4\n      swap3\n      pop\n      pop\n      pop\n      jump\t// out\n        /* \"#utility.yul\":3250:3590   */\n    tag_197:\n        /* \"#utility.yul\":3306:3311   */\n      0x00\n        /* \"#utility.yul\":3355:3358   */\n      dup3\n        /* \"#utility.yul\":3348:3352   */\n      0x1f\n        /* \"#utility.yul\":3340:3346   */\n      dup4\n        /* \"#utility.yul\":3336:3353   */\n      add\n        /* \"#utility.yul\":3332:3359   */\n      slt\n        /* \"#utility.yul\":3322:3444   */\n      tag_281\n      jumpi\n        /* \"#utility.yul\":3363:3442   */\n      tag_282\n      tag_188\n      jump\t// in\n    tag_282:\n        /* \"#utility.yul\":3322:3444   */\n    tag_281:\n        /* \"#utility.yul\":3480:3486   */\n      dup2\n        /* \"#utility.yul\":3467:3487   */\n      calldataload\n        /* \"#utility.yul\":3505:3584   */\n      tag_283\n        /* \"#utility.yul\":3580:3583   */\n      dup5\n        /* \"#utility.yul\":3572:3578   */\n      dup3\n        /* \"#utility.yul\":3565:3569   */\n      0x20\n        /* \"#utility.yul\":3557:3563   */\n      dup7\n        /* \"#utility.yul\":3553:3570   */\n      add\n        /* \"#utility.yul\":3505:3584   */\n      tag_196\n      jump\t// in\n    tag_283:\n        /* \"#utility.yul\":3496:3584   */\n      swap2\n      pop\n        /* \"#utility.yul\":3312:3590   */\n      pop\n        /* \"#utility.yul\":3250:3590   */\n      swap3\n      swap2\n      pop\n      pop\n      jump\t// out\n        /* \"#utility.yul\":3596:4901   */\n    tag_26:\n        /* \"#utility.yul\":3712:3718   */\n      0x00\n        /* \"#utility.yul\":3720:3726   */\n      dup1\n        /* \"#utility.yul\":3728:3734   */\n      0x00\n        /* \"#utility.yul\":3736:3742   */\n      dup1\n        /* \"#utility.yul\":3785:3788   */\n      0x80\n        /* \"#utility.yul\":3773:3782   */\n      dup6\n        /* \"#utility.yul\":3764:3771   */\n      dup8\n        /* \"#utility.yul\":3760:3783   */\n      sub\n        /* \"#utility.yul\":3756:3789   */\n      slt\n        /* \"#utility.yul\":3753:3873   */\n      iszero\n      tag_285\n      jumpi\n        /* \"#utility.yul\":3792:3871   */\n      tag_286\n      tag_182\n      jump\t// in\n    tag_286:\n        /* \"#utility.yul\":3753:3873   */\n    tag_285:\n        /* \"#utility.yul\":3940:3941   */\n      0x00\n        /* \"#utility.yul\":3929:3938   */\n      dup6\n        /* \"#utility.yul\":3925:3942   */\n      add\n        /* \"#utility.yul\":3912:3943   */\n      calldataload\n        /* \"#utility.yul\":3970:3988   */\n      0xffffffffffffffff\n        /* \"#utility.yul\":3962:3968   */\n      dup2\n        /* \"#utility.yul\":3959:3989   */\n      gt\n        /* \"#utility.yul\":3956:4073   */\n      iszero\n      tag_287\n      jumpi\n        /* \"#utility.yul\":3992:4071   */\n      tag_288\n      tag_183\n      jump\t// in\n    tag_288:\n        /* \"#utility.yul\":3956:4073   */\n    tag_287:\n        /* \"#utility.yul\":4097:4160   */\n      tag_289\n        /* \"#utility.yul\":4152:4159   */\n      dup8\n        /* \"#utility.yul\":4143:4149   */\n      dup3\n        /* \"#utility.yul\":4132:4141   */\n      dup9\n        /* \"#utility.yul\":4128:4150   */\n      add\n        /* \"#utility.yul\":4097:4160   */\n      tag_197\n      jump\t// in\n    tag_289:\n        /* \"#utility.yul\":4087:4160   */\n      swap5\n      pop\n        /* \"#utility.yul\":3883:4170   */\n      pop\n        /* \"#utility.yul\":4237:4239   */\n      0x20\n        /* \"#utility.yul\":4226:4235   */\n      dup6\n        /* \"#utility.yul\":4222:4240   */\n      add\n        /* \"#utility.yul\":4209:4241   */\n      calldataload\n        /* \"#utility.yul\":4268:4286   */\n      0xffffffffffffffff\n        /* \"#utility.yul\":4260:4266   */\n      dup2\n        /* \"#utility.yul\":4257:4287   */\n      gt\n        /* \"#utility.yul\":4254:4371   */\n      iszero\n      tag_290\n      jumpi\n        /* \"#utility.yul\":4290:4369   */\n      tag_291\n      tag_183\n      jump\t// in\n    tag_291:\n        /* \"#utility.yul\":4254:4371   */\n    tag_290:\n        /* \"#utility.yul\":4395:4458   */\n      tag_292\n        /* \"#utility.yul\":4450:4457   */\n      dup8\n        /* \"#utility.yul\":4441:4447   */\n      dup3\n        /* \"#utility.yul\":4430:4439   */\n      dup9\n        /* \"#utility.yul\":4426:4448   */\n      add\n        /* \"#utility.yul\":4395:4458   */\n      tag_197\n      jump\t// in\n    tag_292:\n        /* \"#utility.yul\":4385:4458   */\n      swap4\n      pop\n        /* \"#utility.yul\":4180:4468   */\n      pop\n        /* \"#utility.yul\":4507:4509   */\n      0x40\n        /* \"#utility.yul\":4533:4586   */\n      tag_293\n        /* \"#utility.yul\":4578:4585   */\n      dup8\n        /* \"#utility.yul\":4569:4575   */\n      dup3\n        /* \"#utility.yul\":4558:4567   */\n      dup9\n        /* \"#utility.yul\":4554:4576   */\n      add\n        /* \"#utility.yul\":4533:4586   */\n      tag_186\n      jump\t// in\n    tag_293:\n        /* \"#utility.yul\":4523:4586   */\n      swap3\n      pop\n        /* \"#utility.yul\":4478:4596   */\n      pop\n        /* \"#utility.yul\":4663:4665   */\n      0x60\n        /* \"#utility.yul\":4652:4661   */\n      dup6\n        /* \"#utility.yul\":4648:4666   */\n      add\n        /* \"#utility.yul\":4635:4667   */\n      calldataload\n        /* \"#utility.yul\":4694:4712   */\n      0xffffffffffffffff\n        /* \"#utility.yul\":4686:4692   */\n      dup2\n        /* \"#utility.yul\":4683:4713   */\n      gt\n        /* \"#utility.yul\":4680:4797   */\n      iszero\n      tag_294\n      jumpi\n        /* \"#utility.yul\":4716:4795   */\n      tag_295\n      tag_183\n      jump\t// in\n    tag_295:\n        /* \"#utility.yul\":4680:4797   */\n    tag_294:\n        /* \"#utility.yul\":4821:4884   */\n      tag_296\n        /* \"#utility.yul\":4876:4883   */\n      dup8\n        /* \"#utility.yul\":4867:4873   */\n      dup3\n        /* \"#utility.yul\":4856:4865   */\n      dup9\n        /* \"#utility.yul\":4852:4874   */\n      add\n        /* \"#utility.yul\":4821:4884   */\n      tag_197\n      jump\t// in\n    tag_296:\n        /* \"#utility.yul\":4811:4884   */\n      swap2\n      pop\n        /* \"#utility.yul\":4606:4894   */\n      pop\n        /* \"#utility.yul\":3596:4901   */\n      swap3\n      swap6\n      swap2\n      swap5\n      pop\n      swap3\n      pop\n      jump\t// out\n        /* \"#utility.yul\":4907:5033   */\n    tag_198:\n        /* \"#utility.yul\":4944:4951   */\n      0x00\n        /* \"#utility.yul\":4984:5026   */\n      0xffffffffffffffffffffffffffffffffffffffff\n        /* \"#utility.yul\":4977:4982   */\n      dup3\n        /* \"#utility.yul\":4973:5027   */\n      and\n        /* \"#utility.yul\":4962:5027   */\n      swap1\n      pop\n        /* \"#utility.yul\":4907:5033   */\n      swap2\n      swap1\n      pop\n      jump\t// out\n        /* \"#utility.yul\":5039:5143   */\n    tag_199:\n        /* \"#utility.yul\":5084:5091   */\n      0x00\n        /* \"#utility.yul\":5113:5137   */\n      tag_299\n        /* \"#utility.yul\":5131:5136   */\n      dup3\n        /* \"#utility.yul\":5113:5137   */\n      tag_198\n      jump\t// in\n    tag_299:\n        /* \"#utility.yul\":5102:5137   */\n      swap1\n      pop\n        /* \"#utility.yul\":5039:5143   */\n      swap2\n      swap1\n      pop\n      jump\t// out\n        /* \"#utility.yul\":5149:5291   */\n    tag_200:\n        /* \"#utility.yul\":5252:5284   */\n      tag_301\n        /* \"#utility.yul\":5278:5283   */\n      dup2\n        /* \"#utility.yul\":5252:5284   */\n      tag_199\n      jump\t// in\n    tag_301:\n        /* \"#utility.yul\":5247:5250   */\n      dup3\n        /* \"#utility.yul\":5240:5285   */\n      mstore\n        /* \"#utility.yul\":5149:5291   */\n      pop\n      pop\n      jump\t// out\n        /* \"#utility.yul\":5297:5551   */\n    tag_36:\n        /* \"#utility.yul\":5406:5410   */\n      0x00\n        /* \"#utility.yul\":5444:5446   */\n      0x20\n        /* \"#utility.yul\":5433:5442   */\n      dup3\n        /* \"#utility.yul\":5429:5447   */\n      add\n        /* \"#utility.yul\":5421:5447   */\n      swap1\n      pop\n        /* \"#utility.yul\":5457:5544   */\n      tag_303\n        /* \"#utility.yul\":5541:5542   */\n      0x00\n        /* \"#utility.yul\":5530:5539   */\n      dup4\n        /* \"#utility.yul\":5526:5543   */\n      add\n        /* \"#utility.yul\":5517:5523   */\n      dup5\n        /* \"#utility.yul\":5457:5544   */\n      tag_200\n      jump\t// in\n    tag_303:\n        /* \"#utility.yul\":5297:5551   */\n      swap3\n      swap2\n      pop\n      pop\n      jump\t// out\n        /* \"#utility.yul\":5557:5653   */\n    tag_201:\n        /* \"#utility.yul\":5594:5601   */\n      0x00\n        /* \"#utility.yul\":5623:5647   */\n      tag_305\n        /* \"#utility.yul\":5641:5646   */\n      dup3\n        /* \"#utility.yul\":5623:5647   */\n      tag_198\n      jump\t// in\n    tag_305:\n        /* \"#utility.yul\":5612:5647   */\n      swap1\n      pop\n        /* \"#utility.yul\":5557:5653   */\n      swap2\n      swap1\n      pop\n      jump\t// out\n        /* \"#utility.yul\":5659:5781   */\n    tag_202:\n        /* \"#utility.yul\":5732:5756   */\n      tag_307\n        /* \"#utility.yul\":5750:5755   */\n      dup2\n        /* \"#utility.yul\":5732:5756   */\n      tag_201\n      jump\t// in\n    tag_307:\n        /* \"#utility.yul\":5725:5730   */\n      dup2\n        /* \"#utility.yul\":5722:5757   */\n      eq\n        /* \"#utility.yul\":5712:5775   */\n      tag_308\n      jumpi\n        /* \"#utility.yul\":5771:5772   */\n      0x00\n        /* \"#utility.yul\":5768:5769   */\n      dup1\n        /* \"#utility.yul\":5761:5773   */\n      revert\n        /* \"#utility.yul\":5712:5775   */\n    tag_308:\n        /* \"#utility.yul\":5659:5781   */\n      pop\n      jump\t// out\n        /* \"#utility.yul\":5787:5926   */\n    tag_203:\n        /* \"#utility.yul\":5833:5838   */\n      0x00\n        /* \"#utility.yul\":5871:5877   */\n      dup2\n        /* \"#utility.yul\":5858:5878   */\n      calldataload\n        /* \"#utility.yul\":5849:5878   */\n      swap1\n      pop\n        /* \"#utility.yul\":5887:5920   */\n      tag_310\n        /* \"#utility.yul\":5914:5919   */\n      dup2\n        /* \"#utility.yul\":5887:5920   */\n      tag_202\n      jump\t// in\n    tag_310:\n        /* \"#utility.yul\":5787:5926   */\n      swap3\n      swap2\n      pop\n      pop\n      jump\t// out\n        /* \"#utility.yul\":5932:6261   */\n    tag_40:\n        /* \"#utility.yul\":5991:5997   */\n      0x00\n        /* \"#utility.yul\":6040:6042   */\n      0x20\n        /* \"#utility.yul\":6028:6037   */\n      dup3\n        /* \"#utility.yul\":6019:6026   */\n      dup5\n        /* \"#utility.yul\":6015:6038   */\n      sub\n        /* \"#utility.yul\":6011:6043   */\n      slt\n        /* \"#utility.yul\":6008:6127   */\n      iszero\n      tag_312\n      jumpi\n        /* \"#utility.yul\":6046:6125   */\n      tag_313\n      tag_182\n      jump\t// in\n    tag_313:\n        /* \"#utility.yul\":6008:6127   */\n    tag_312:\n        /* \"#utility.yul\":6166:6167   */\n      0x00\n        /* \"#utility.yul\":6191:6244   */\n      tag_314\n        /* \"#utility.yul\":6236:6243   */\n      dup5\n        /* \"#utility.yul\":6227:6233   */\n      dup3\n        /* \"#utility.yul\":6216:6225   */\n      dup6\n        /* \"#utility.yul\":6212:6234   */\n      add\n        /* \"#utility.yul\":6191:6244   */\n      tag_203\n      jump\t// in\n    tag_314:\n        /* \"#utility.yul\":6181:6244   */\n      swap2\n      pop\n        /* \"#utility.yul\":6137:6254   */\n      pop\n        /* \"#utility.yul\":5932:6261   */\n      swap3\n      swap2\n      pop\n      pop\n      jump\t// out\n        /* \"#utility.yul\":6267:6366   */\n    tag_204:\n        /* \"#utility.yul\":6319:6325   */\n      0x00\n        /* \"#utility.yul\":6353:6358   */\n      dup2\n        /* \"#utility.yul\":6347:6359   */\n      mload\n        /* \"#utility.yul\":6337:6359   */\n      swap1\n      pop\n        /* \"#utility.yul\":6267:6366   */\n      swap2\n      swap1\n      pop\n      jump\t// out\n        /* \"#utility.yul\":6372:6541   */\n    tag_205:\n        /* \"#utility.yul\":6456:6467   */\n      0x00\n        /* \"#utility.yul\":6490:6496   */\n      dup3\n        /* \"#utility.yul\":6485:6488   */\n      dup3\n        /* \"#utility.yul\":6478:6497   */\n      mstore\n        /* \"#utility.yul\":6530:6534   */\n      0x20\n        /* \"#utility.yul\":6525:6528   */\n      dup3\n        /* \"#utility.yul\":6521:6535   */\n      add\n        /* \"#utility.yul\":6506:6535   */\n      swap1\n      pop\n        /* \"#utility.yul\":6372:6541   */\n      swap3\n      swap2\n      pop\n      pop\n      jump\t// out\n        /* \"#utility.yul\":6547:6793   */\n    tag_206:\n        /* \"#utility.yul\":6628:6629   */\n      0x00\n        /* \"#utility.yul\":6638:6751   */\n    tag_318:\n        /* \"#utility.yul\":6652:6658   */\n      dup4\n        /* \"#utility.yul\":6649:6650   */\n      dup2\n        /* \"#utility.yul\":6646:6659   */\n      lt\n        /* \"#utility.yul\":6638:6751   */\n      iszero\n      tag_320\n      jumpi\n        /* \"#utility.yul\":6737:6738   */\n      dup1\n        /* \"#utility.yul\":6732:6735   */\n      dup3\n        /* \"#utility.yul\":6728:6739   */\n      add\n        /* \"#utility.yul\":6722:6740   */\n      mload\n        /* \"#utility.yul\":6718:6719   */\n      dup2\n        /* \"#utility.yul\":6713:6716   */\n      dup5\n        /* \"#utility.yul\":6709:6720   */\n      add\n        /* \"#utility.yul\":6702:6741   */\n      mstore\n        /* \"#utility.yul\":6674:6676   */\n      0x20\n        /* \"#utility.yul\":6671:6672   */\n      dup2\n        /* \"#utility.yul\":6667:6677   */\n      add\n        /* \"#utility.yul\":6662:6677   */\n      swap1\n      pop\n        /* \"#utility.yul\":6638:6751   */\n      jump(tag_318)\n    tag_320:\n        /* \"#utility.yul\":6785:6786   */\n      0x00\n        /* \"#utility.yul\":6776:6782   */\n      dup5\n        /* \"#utility.yul\":6771:6774   */\n      dup5\n        /* \"#utility.yul\":6767:6783   */\n      add\n        /* \"#utility.yul\":6760:6787   */\n      mstore\n        /* \"#utility.yul\":6609:6793   */\n      pop\n        /* \"#utility.yul\":6547:6793   */\n      pop\n      pop\n      pop\n      jump\t// out\n        /* \"#utility.yul\":6799:7176   */\n    tag_207:\n        /* \"#utility.yul\":6887:6890   */\n      0x00\n        /* \"#utility.yul\":6915:6954   */\n      tag_322\n        /* \"#utility.yul\":6948:6953   */\n      dup3\n        /* \"#utility.yul\":6915:6954   */\n      tag_204\n      jump\t// in\n    tag_322:\n        /* \"#utility.yul\":6970:7041   */\n      tag_323\n        /* \"#utility.yul\":7034:7040   */\n      dup2\n        /* \"#utility.yul\":7029:7032   */\n      dup6\n        /* \"#utility.yul\":6970:7041   */\n      tag_205\n      jump\t// in\n    tag_323:\n        /* \"#utility.yul\":6963:7041   */\n      swap4\n      pop\n        /* \"#utility.yul\":7050:7115   */\n      tag_324\n        /* \"#utility.yul\":7108:7114   */\n      dup2\n        /* \"#utility.yul\":7103:7106   */\n      dup6\n        /* \"#utility.yul\":7096:7100   */\n      0x20\n        /* \"#utility.yul\":7089:7094   */\n      dup7\n        /* \"#utility.yul\":7085:7101   */\n      add\n        /* \"#utility.yul\":7050:7115   */\n      tag_206\n      jump\t// in\n    tag_324:\n        /* \"#utility.yul\":7140:7169   */\n      tag_325\n        /* \"#utility.yul\":7162:7168   */\n      dup2\n        /* \"#utility.yul\":7140:7169   */\n      tag_190\n      jump\t// in\n    tag_325:\n        /* \"#utility.yul\":7135:7138   */\n      dup5\n        /* \"#utility.yul\":7131:7170   */\n      add\n        /* \"#utility.yul\":7124:7170   */\n      swap2\n      pop\n        /* \"#utility.yul\":6891:7176   */\n      pop\n        /* \"#utility.yul\":6799:7176   */\n      swap3\n      swap2\n      pop\n      pop\n      jump\t// out\n        /* \"#utility.yul\":7182:7300   */\n    tag_208:\n        /* \"#utility.yul\":7269:7293   */\n      tag_327\n        /* \"#utility.yul\":7287:7292   */\n      dup2\n        /* \"#utility.yul\":7269:7293   */\n      tag_201\n      jump\t// in\n    tag_327:\n        /* \"#utility.yul\":7264:7267   */\n      dup3\n        /* \"#utility.yul\":7257:7294   */\n      mstore\n        /* \"#utility.yul\":7182:7300   */\n      pop\n      pop\n      jump\t// out\n        /* \"#utility.yul\":7306:8354   */\n    tag_43:\n        /* \"#utility.yul\":7599:7603   */\n      0x00\n        /* \"#utility.yul\":7637:7640   */\n      0xc0\n        /* \"#utility.yul\":7626:7635   */\n      dup3\n        /* \"#utility.yul\":7622:7641   */\n      add\n        /* \"#utility.yul\":7614:7641   */\n      swap1\n      pop\n        /* \"#utility.yul\":7687:7696   */\n      dup2\n        /* \"#utility.yul\":7681:7685   */\n      dup2\n        /* \"#utility.yul\":7677:7697   */\n      sub\n        /* \"#utility.yul\":7673:7674   */\n      0x00\n        /* \"#utility.yul\":7662:7671   */\n      dup4\n        /* \"#utility.yul\":7658:7675   */\n      add\n        /* \"#utility.yul\":7651:7698   */\n      mstore\n        /* \"#utility.yul\":7715:7793   */\n      tag_329\n        /* \"#utility.yul\":7788:7792   */\n      dup2\n        /* \"#utility.yul\":7779:7785   */\n      dup10\n        /* \"#utility.yul\":7715:7793   */\n      tag_207\n      jump\t// in\n    tag_329:\n        /* \"#utility.yul\":7707:7793   */\n      swap1\n      pop\n        /* \"#utility.yul\":7840:7849   */\n      dup2\n        /* \"#utility.yul\":7834:7838   */\n      dup2\n        /* \"#utility.yul\":7830:7850   */\n      sub\n        /* \"#utility.yul\":7825:7827   */\n      0x20\n        /* \"#utility.yul\":7814:7823   */\n      dup4\n        /* \"#utility.yul\":7810:7828   */\n      add\n        /* \"#utility.yul\":7803:7851   */\n      mstore\n        /* \"#utility.yul\":7868:7946   */\n      tag_330\n        /* \"#utility.yul\":7941:7945   */\n      dup2\n        /* \"#utility.yul\":7932:7938   */\n      dup9\n        /* \"#utility.yul\":7868:7946   */\n      tag_207\n      jump\t// in\n    tag_330:\n        /* \"#utility.yul\":7860:7946   */\n      swap1\n      pop\n        /* \"#utility.yul\":7956:8028   */\n      tag_331\n        /* \"#utility.yul\":8024:8026   */\n      0x40\n        /* \"#utility.yul\":8013:8022   */\n      dup4\n        /* \"#utility.yul\":8009:8027   */\n      add\n        /* \"#utility.yul\":8000:8006   */\n      dup8\n        /* \"#utility.yul\":7956:8028   */\n      tag_187\n      jump\t// in\n    tag_331:\n        /* \"#utility.yul\":8075:8084   */\n      dup2\n        /* \"#utility.yul\":8069:8073   */\n      dup2\n        /* \"#utility.yul\":8065:8085   */\n      sub\n        /* \"#utility.yul\":8060:8062   */\n      0x60\n        /* \"#utility.yul\":8049:8058   */\n      dup4\n        /* \"#utility.yul\":8045:8063   */\n      add\n        /* \"#utility.yul\":8038:8086   */\n      mstore\n        /* \"#utility.yul\":8103:8181   */\n      tag_332\n        /* \"#utility.yul\":8176:8180   */\n      dup2\n        /* \"#utility.yul\":8167:8173   */\n      dup7\n        /* \"#utility.yul\":8103:8181   */\n      tag_207\n      jump\t// in\n    tag_332:\n        /* \"#utility.yul\":8095:8181   */\n      swap1\n      pop\n        /* \"#utility.yul\":8191:8264   */\n      tag_333\n        /* \"#utility.yul\":8259:8262   */\n      0x80\n        /* \"#utility.yul\":8248:8257   */\n      dup4\n        /* \"#utility.yul\":8244:8263   */\n      add\n        /* \"#utility.yul\":8235:8241   */\n      dup6\n        /* \"#utility.yul\":8191:8264   */\n      tag_208\n      jump\t// in\n    tag_333:\n        /* \"#utility.yul\":8274:8347   */\n      tag_334\n        /* \"#utility.yul\":8342:8345   */\n      0xa0\n        /* \"#utility.yul\":8331:8340   */\n      dup4\n        /* \"#utility.yul\":8327:8346   */\n      add\n        /* \"#utility.yul\":8318:8324   */\n      dup5\n        /* \"#utility.yul\":8274:8347   */\n      tag_187\n      jump\t// in\n    tag_334:\n        /* \"#utility.yul\":7306:8354   */\n      swap8\n      swap7\n      pop\n      pop\n      pop\n      pop\n      pop\n      pop\n      pop\n      jump\t// out\n        /* \"#utility.yul\":8360:9014   */\n    tag_50:\n        /* \"#utility.yul\":8438:8444   */\n      0x00\n        /* \"#utility.yul\":8446:8452   */\n      dup1\n        /* \"#utility.yul\":8495:8497   */\n      0x40\n        /* \"#utility.yul\":8483:8492   */\n      dup4\n        /* \"#utility.yul\":8474:8481   */\n      dup6\n        /* \"#utility.yul\":8470:8493   */\n      sub\n        /* \"#utility.yul\":8466:8498   */\n      slt\n        /* \"#utility.yul\":8463:8582   */\n      iszero\n      tag_336\n      jumpi\n        /* \"#utility.yul\":8501:8580   */\n      tag_337\n      tag_182\n      jump\t// in\n    tag_337:\n        /* \"#utility.yul\":8463:8582   */\n    tag_336:\n        /* \"#utility.yul\":8649:8650   */\n      0x00\n        /* \"#utility.yul\":8638:8647   */\n      dup4\n        /* \"#utility.yul\":8634:8651   */\n      add\n        /* \"#utility.yul\":8621:8652   */\n      calldataload\n        /* \"#utility.yul\":8679:8697   */\n      0xffffffffffffffff\n        /* \"#utility.yul\":8671:8677   */\n      dup2\n        /* \"#utility.yul\":8668:8698   */\n      gt\n        /* \"#utility.yul\":8665:8782   */\n      iszero\n      tag_338\n      jumpi\n        /* \"#utility.yul\":8701:8780   */\n      tag_339\n      tag_183\n      jump\t// in\n    tag_339:\n        /* \"#utility.yul\":8665:8782   */\n    tag_338:\n        /* \"#utility.yul\":8806:8869   */\n      tag_340\n        /* \"#utility.yul\":8861:8868   */\n      dup6\n        /* \"#utility.yul\":8852:8858   */\n      dup3\n        /* \"#utility.yul\":8841:8850   */\n      dup7\n        /* \"#utility.yul\":8837:8859   */\n      add\n        /* \"#utility.yul\":8806:8869   */\n      tag_197\n      jump\t// in\n    tag_340:\n        /* \"#utility.yul\":8796:8869   */\n      swap3\n      pop\n        /* \"#utility.yul\":8592:8879   */\n      pop\n        /* \"#utility.yul\":8918:8920   */\n      0x20\n        /* \"#utility.yul\":8944:8997   */\n      tag_341\n        /* \"#utility.yul\":8989:8996   */\n      dup6\n        /* \"#utility.yul\":8980:8986   */\n      dup3\n        /* \"#utility.yul\":8969:8978   */\n      dup7\n        /* \"#utility.yul\":8965:8987   */\n      add\n        /* \"#utility.yul\":8944:8997   */\n      tag_186\n      jump\t// in\n    tag_341:\n        /* \"#utility.yul\":8934:8997   */\n      swap2\n      pop\n        /* \"#utility.yul\":8889:9007   */\n      pop\n        /* \"#utility.yul\":8360:9014   */\n      swap3\n      pop\n      swap3\n      swap1\n      pop\n      jump\t// out\n        /* \"#utility.yul\":9020:9110   */\n    tag_209:\n        /* \"#utility.yul\":9054:9061   */\n      0x00\n        /* \"#utility.yul\":9097:9102   */\n      dup2\n        /* \"#utility.yul\":9090:9103   */\n      iszero\n        /* \"#utility.yul\":9083:9104   */\n      iszero\n        /* \"#utility.yul\":9072:9104   */\n      swap1\n      pop\n        /* \"#utility.yul\":9020:9110   */\n      swap2\n      swap1\n      pop\n      jump\t// out\n        /* \"#utility.yul\":9116:9225   */\n    tag_210:\n        /* \"#utility.yul\":9197:9218   */\n      tag_344\n        /* \"#utility.yul\":9212:9217   */\n      dup2\n        /* \"#utility.yul\":9197:9218   */\n      tag_209\n      jump\t// in\n    tag_344:\n        /* \"#utility.yul\":9192:9195   */\n      dup3\n        /* \"#utility.yul\":9185:9219   */\n      mstore\n        /* \"#utility.yul\":9116:9225   */\n      pop\n      pop\n      jump\t// out\n        /* \"#utility.yul\":9231:9752   */\n    tag_57:\n        /* \"#utility.yul\":9394:9398   */\n      0x00\n        /* \"#utility.yul\":9432:9434   */\n      0x60\n        /* \"#utility.yul\":9421:9430   */\n      dup3\n        /* \"#utility.yul\":9417:9435   */\n      add\n        /* \"#utility.yul\":9409:9435   */\n      swap1\n      pop\n        /* \"#utility.yul\":9481:9490   */\n      dup2\n        /* \"#utility.yul\":9475:9479   */\n      dup2\n        /* \"#utility.yul\":9471:9491   */\n      sub\n        /* \"#utility.yul\":9467:9468   */\n      0x00\n        /* \"#utility.yul\":9456:9465   */\n      dup4\n        /* \"#utility.yul\":9452:9469   */\n      add\n        /* \"#utility.yul\":9445:9492   */\n      mstore\n        /* \"#utility.yul\":9509:9587   */\n      tag_346\n        /* \"#utility.yul\":9582:9586   */\n      dup2\n        /* \"#utility.yul\":9573:9579   */\n      dup7\n        /* \"#utility.yul\":9509:9587   */\n      tag_207\n      jump\t// in\n    tag_346:\n        /* \"#utility.yul\":9501:9587   */\n      swap1\n      pop\n        /* \"#utility.yul\":9597:9669   */\n      tag_347\n        /* \"#utility.yul\":9665:9667   */\n      0x20\n        /* \"#utility.yul\":9654:9663   */\n      dup4\n        /* \"#utility.yul\":9650:9668   */\n      add\n        /* \"#utility.yul\":9641:9647   */\n      dup6\n        /* \"#utility.yul\":9597:9669   */\n      tag_187\n      jump\t// in\n    tag_347:\n        /* \"#utility.yul\":9679:9745   */\n      tag_348\n        /* \"#utility.yul\":9741:9743   */\n      0x40\n        /* \"#utility.yul\":9730:9739   */\n      dup4\n        /* \"#utility.yul\":9726:9744   */\n      add\n        /* \"#utility.yul\":9717:9723   */\n      dup5\n        /* \"#utility.yul\":9679:9745   */\n      tag_210\n      jump\t// in\n    tag_348:\n        /* \"#utility.yul\":9231:9752   */\n      swap5\n      swap4\n      pop\n      pop\n      pop\n      pop\n      jump\t// out\n        /* \"#utility.yul\":9758:9938   */\n    tag_211:\n        /* \"#utility.yul\":9806:9883   */\n      0x4e487b7100000000000000000000000000000000000000000000000000000000\n        /* \"#utility.yul\":9803:9804   */\n      0x00\n        /* \"#utility.yul\":9796:9884   */\n      mstore\n        /* \"#utility.yul\":9903:9907   */\n      0x22\n        /* \"#utility.yul\":9900:9901   */\n      0x04\n        /* \"#utility.yul\":9893:9908   */\n      mstore\n        /* \"#utility.yul\":9927:9931   */\n      0x24\n        /* \"#utility.yul\":9924:9925   */\n      0x00\n        /* \"#utility.yul\":9917:9932   */\n      revert\n        /* \"#utility.yul\":9944:10264   */\n    tag_64:\n        /* \"#utility.yul\":9988:9994   */\n      0x00\n        /* \"#utility.yul\":10025:10026   */\n      0x02\n        /* \"#utility.yul\":10019:10023   */\n      dup3\n        /* \"#utility.yul\":10015:10027   */\n      div\n        /* \"#utility.yul\":10005:10027   */\n      swap1\n      pop\n        /* \"#utility.yul\":10072:10073   */\n      0x01\n        /* \"#utility.yul\":10066:10070   */\n      dup3\n        /* \"#utility.yul\":10062:10074   */\n      and\n        /* \"#utility.yul\":10093:10111   */\n      dup1\n        /* \"#utility.yul\":10083:10164   */\n      tag_351\n      jumpi\n        /* \"#utility.yul\":10149:10153   */\n      0x7f\n        /* \"#utility.yul\":10141:10147   */\n      dup3\n        /* \"#utility.yul\":10137:10154   */\n      and\n        /* \"#utility.yul\":10127:10154   */\n      swap2\n      pop\n        /* \"#utility.yul\":10083:10164   */\n    tag_351:\n        /* \"#utility.yul\":10211:10213   */\n      0x20\n        /* \"#utility.yul\":10203:10209   */\n      dup3\n        /* \"#utility.yul\":10200:10214   */\n      lt\n        /* \"#utility.yul\":10180:10198   */\n      dup2\n        /* \"#utility.yul\":10177:10215   */\n      sub\n        /* \"#utility.yul\":10174:10258   */\n      tag_352\n      jumpi\n        /* \"#utility.yul\":10230:10248   */\n      tag_353\n      tag_211\n      jump\t// in\n    tag_353:\n        /* \"#utility.yul\":10174:10258   */\n    tag_352:\n        /* \"#utility.yul\":9995:10264   */\n      pop\n        /* \"#utility.yul\":9944:10264   */\n      swap2\n      swap1\n      pop\n      jump\t// out\n        /* \"#utility.yul\":10270:10491   */\n    tag_212:\n        /* \"#utility.yul\":10410:10444   */\n      0x5365727669636520646174652063616e6e6f7420626520696e20746865207061\n        /* \"#utility.yul\":10406:10407   */\n      0x00\n        /* \"#utility.yul\":10398:10404   */\n      dup3\n        /* \"#utility.yul\":10394:10408   */\n      add\n        /* \"#utility.yul\":10387:10445   */\n      mstore\n        /* \"#utility.yul\":10479:10483   */\n      0x7374000000000000000000000000000000000000000000000000000000000000\n        /* \"#utility.yul\":10474:10476   */\n      0x20\n        /* \"#utility.yul\":10466:10472   */\n      dup3\n        /* \"#utility.yul\":10462:10477   */\n      add\n        /* \"#utility.yul\":10455:10484   */\n      mstore\n        /* \"#utility.yul\":10270:10491   */\n      pop\n      jump\t// out\n        /* \"#utility.yul\":10497:10863   */\n    tag_213:\n        /* \"#utility.yul\":10639:10642   */\n      0x00\n        /* \"#utility.yul\":10660:10727   */\n      tag_356\n        /* \"#utility.yul\":10724:10726   */\n      0x22\n        /* \"#utility.yul\":10719:10722   */\n      dup4\n        /* \"#utility.yul\":10660:10727   */\n      tag_205\n      jump\t// in\n    tag_356:\n        /* \"#utility.yul\":10653:10727   */\n      swap2\n      pop\n        /* \"#utility.yul\":10736:10829   */\n      tag_357\n        /* \"#utility.yul\":10825:10828   */\n      dup3\n        /* \"#utility.yul\":10736:10829   */\n      tag_212\n      jump\t// in\n    tag_357:\n        /* \"#utility.yul\":10854:10856   */\n      0x40\n        /* \"#utility.yul\":10849:10852   */\n      dup3\n        /* \"#utility.yul\":10845:10857   */\n      add\n        /* \"#utility.yul\":10838:10857   */\n      swap1\n      pop\n        /* \"#utility.yul\":10497:10863   */\n      swap2\n      swap1\n      pop\n      jump\t// out\n        /* \"#utility.yul\":10869:11288   */\n    tag_81:\n        /* \"#utility.yul\":11035:11039   */\n      0x00\n        /* \"#utility.yul\":11073:11075   */\n      0x20\n        /* \"#utility.yul\":11062:11071   */\n      dup3\n        /* \"#utility.yul\":11058:11076   */\n      add\n        /* \"#utility.yul\":11050:11076   */\n      swap1\n      pop\n        /* \"#utility.yul\":11122:11131   */\n      dup2\n        /* \"#utility.yul\":11116:11120   */\n      dup2\n        /* \"#utility.yul\":11112:11132   */\n      sub\n        /* \"#utility.yul\":11108:11109   */\n      0x00\n        /* \"#utility.yul\":11097:11106   */\n      dup4\n        /* \"#utility.yul\":11093:11110   */\n      add\n        /* \"#utility.yul\":11086:11133   */\n      mstore\n        /* \"#utility.yul\":11150:11281   */\n      tag_359\n        /* \"#utility.yul\":11276:11280   */\n      dup2\n        /* \"#utility.yul\":11150:11281   */\n      tag_213\n      jump\t// in\n    tag_359:\n        /* \"#utility.yul\":11142:11281   */\n      swap1\n      pop\n        /* \"#utility.yul\":10869:11288   */\n      swap2\n      swap1\n      pop\n      jump\t// out\n        /* \"#utility.yul\":11294:11469   */\n    tag_214:\n        /* \"#utility.yul\":11434:11461   */\n      0x43617220697320616c7265616479207265676973746572656400000000000000\n        /* \"#utility.yul\":11430:11431   */\n      0x00\n        /* \"#utility.yul\":11422:11428   */\n      dup3\n        /* \"#utility.yul\":11418:11432   */\n      add\n        /* \"#utility.yul\":11411:11462   */\n      mstore\n        /* \"#utility.yul\":11294:11469   */\n      pop\n      jump\t// out\n        /* \"#utility.yul\":11475:11841   */\n    tag_215:\n        /* \"#utility.yul\":11617:11620   */\n      0x00\n        /* \"#utility.yul\":11638:11705   */\n      tag_362\n        /* \"#utility.yul\":11702:11704   */\n      0x19\n        /* \"#utility.yul\":11697:11700   */\n      dup4\n        /* \"#utility.yul\":11638:11705   */\n      tag_205\n      jump\t// in\n    tag_362:\n        /* \"#utility.yul\":11631:11705   */\n      swap2\n      pop\n        /* \"#utility.yul\":11714:11807   */\n      tag_363\n        /* \"#utility.yul\":11803:11806   */\n      dup3\n        /* \"#utility.yul\":11714:11807   */\n      tag_214\n      jump\t// in\n    tag_363:\n        /* \"#utility.yul\":11832:11834   */\n      0x20\n        /* \"#utility.yul\":11827:11830   */\n      dup3\n        /* \"#utility.yul\":11823:11835   */\n      add\n        /* \"#utility.yul\":11816:11835   */\n      swap1\n      pop\n        /* \"#utility.yul\":11475:11841   */\n      swap2\n      swap1\n      pop\n      jump\t// out\n        /* \"#utility.yul\":11847:12266   */\n    tag_101:\n        /* \"#utility.yul\":12013:12017   */\n      0x00\n        /* \"#utility.yul\":12051:12053   */\n      0x20\n        /* \"#utility.yul\":12040:12049   */\n      dup3\n        /* \"#utility.yul\":12036:12054   */\n      add\n        /* \"#utility.yul\":12028:12054   */\n      swap1\n      pop\n        /* \"#utility.yul\":12100:12109   */\n      dup2\n        /* \"#utility.yul\":12094:12098   */\n      dup2\n        /* \"#utility.yul\":12090:12110   */\n      sub\n        /* \"#utility.yul\":12086:12087   */\n      0x00\n        /* \"#utility.yul\":12075:12084   */\n      dup4\n        /* \"#utility.yul\":12071:12088   */\n      add\n        /* \"#utility.yul\":12064:12111   */\n      mstore\n        /* \"#utility.yul\":12128:12259   */\n      tag_365\n        /* \"#utility.yul\":12254:12258   */\n      dup2\n        /* \"#utility.yul\":12128:12259   */\n      tag_215\n      jump\t// in\n    tag_365:\n        /* \"#utility.yul\":12120:12259   */\n      swap1\n      pop\n        /* \"#utility.yul\":11847:12266   */\n      swap2\n      swap1\n      pop\n      jump\t// out\n        /* \"#utility.yul\":12272:12413   */\n    tag_216:\n        /* \"#utility.yul\":12321:12325   */\n      0x00\n        /* \"#utility.yul\":12344:12347   */\n      dup2\n        /* \"#utility.yul\":12336:12347   */\n      swap1\n      pop\n        /* \"#utility.yul\":12367:12370   */\n      dup2\n        /* \"#utility.yul\":12364:12365   */\n      0x00\n        /* \"#utility.yul\":12357:12371   */\n      mstore\n        /* \"#utility.yul\":12401:12405   */\n      0x20\n        /* \"#utility.yul\":12398:12399   */\n      0x00\n        /* \"#utility.yul\":12388:12406   */\n      keccak256\n        /* \"#utility.yul\":12380:12406   */\n      swap1\n      pop\n        /* \"#utility.yul\":12272:12413   */\n      swap2\n      swap1\n      pop\n      jump\t// out\n        /* \"#utility.yul\":12419:12512   */\n    tag_217:\n        /* \"#utility.yul\":12456:12462   */\n      0x00\n        /* \"#utility.yul\":12503:12505   */\n      0x20\n        /* \"#utility.yul\":12498:12500   */\n      0x1f\n        /* \"#utility.yul\":12491:12496   */\n      dup4\n        /* \"#utility.yul\":12487:12501   */\n      add\n        /* \"#utility.yul\":12483:12506   */\n      div\n        /* \"#utility.yul\":12473:12506   */\n      swap1\n      pop\n        /* \"#utility.yul\":12419:12512   */\n      swap2\n      swap1\n      pop\n      jump\t// out\n        /* \"#utility.yul\":12518:12625   */\n    tag_218:\n        /* \"#utility.yul\":12562:12570   */\n      0x00\n        /* \"#utility.yul\":12612:12617   */\n      dup3\n        /* \"#utility.yul\":12606:12610   */\n      dup3\n        /* \"#utility.yul\":12602:12618   */\n      shl\n        /* \"#utility.yul\":12581:12618   */\n      swap1\n      pop\n        /* \"#utility.yul\":12518:12625   */\n      swap3\n      swap2\n      pop\n      pop\n      jump\t// out\n        /* \"#utility.yul\":12631:13024   */\n    tag_219:\n        /* \"#utility.yul\":12700:12706   */\n      0x00\n        /* \"#utility.yul\":12750:12751   */\n      0x08\n        /* \"#utility.yul\":12738:12748   */\n      dup4\n        /* \"#utility.yul\":12734:12752   */\n      mul\n        /* \"#utility.yul\":12773:12870   */\n      tag_370\n        /* \"#utility.yul\":12803:12869   */\n      0xffffffffffffffffffffffffffffffffffffffffffffffffffffffffffffffff\n        /* \"#utility.yul\":12792:12801   */\n      dup3\n        /* \"#utility.yul\":12773:12870   */\n      tag_218\n      jump\t// in\n    tag_370:\n        /* \"#utility.yul\":12891:12930   */\n      tag_371\n        /* \"#utility.yul\":12921:12929   */\n      dup7\n        /* \"#utility.yul\":12910:12919   */\n      dup4\n        /* \"#utility.yul\":12891:12930   */\n      tag_218\n      jump\t// in\n    tag_371:\n        /* \"#utility.yul\":12879:12930   */\n      swap6\n      pop\n        /* \"#utility.yul\":12963:12967   */\n      dup1\n        /* \"#utility.yul\":12959:12968   */\n      not\n        /* \"#utility.yul\":12952:12957   */\n      dup5\n        /* \"#utility.yul\":12948:12969   */\n      and\n        /* \"#utility.yul\":12939:12969   */\n      swap4\n      pop\n        /* \"#utility.yul\":13012:13016   */\n      dup1\n        /* \"#utility.yul\":13002:13010   */\n      dup7\n        /* \"#utility.yul\":12998:13017   */\n      and\n        /* \"#utility.yul\":12991:12996   */\n      dup5\n        /* \"#utility.yul\":12988:13018   */\n      or\n        /* \"#utility.yul\":12978:13018   */\n      swap3\n      pop\n        /* \"#utility.yul\":12707:13024   */\n      pop\n      pop\n        /* \"#utility.yul\":12631:13024   */\n      swap4\n      swap3\n      pop\n      pop\n      pop\n      jump\t// out\n        /* \"#utility.yul\":13030:13090   */\n    tag_220:\n        /* \"#utility.yul\":13058:13061   */\n      0x00\n        /* \"#utility.yul\":13079:13084   */\n      dup2\n        /* \"#utility.yul\":13072:13084   */\n      swap1\n      pop\n        /* \"#utility.yul\":13030:13090   */\n      swap2\n      swap1\n      pop\n      jump\t// out\n        /* \"#utility.yul\":13096:13238   */\n    tag_221:\n        /* \"#utility.yul\":13146:13155   */\n      0x00\n        /* \"#utility.yul\":13179:13232   */\n      tag_374\n        /* \"#utility.yul\":13197:13231   */\n      tag_375\n        /* \"#utility.yul\":13206:13230   */\n      tag_376\n        /* \"#utility.yul\":13224:13229   */\n      dup5\n        /* \"#utility.yul\":13206:13230   */\n      tag_184\n      jump\t// in\n    tag_376:\n        /* \"#utility.yul\":13197:13231   */\n      tag_220\n      jump\t// in\n    tag_375:\n        /* \"#utility.yul\":13179:13232   */\n      tag_184\n      jump\t// in\n    tag_374:\n        /* \"#utility.yul\":13166:13232   */\n      swap1\n      pop\n        /* \"#utility.yul\":13096:13238   */\n      swap2\n      swap1\n      pop\n      jump\t// out\n        /* \"#utility.yul\":13244:13319   */\n    tag_222:\n        /* \"#utility.yul\":13287:13290   */\n      0x00\n        /* \"#utility.yul\":13308:13313   */\n      dup2\n        /* \"#utility.yul\":13301:13313   */\n      swap1\n      pop\n        /* \"#utility.yul\":13244:13319   */\n      swap2\n      swap1\n      pop\n      jump\t// out\n        /* \"#utility.yul\":13325:13594   */\n    tag_223:\n        /* \"#utility.yul\":13435:13474   */\n      tag_379\n        /* \"#utility.yul\":13466:13473   */\n      dup4\n        /* \"#utility.yul\":13435:13474   */\n      tag_221\n      jump\t// in\n    tag_379:\n        /* \"#utility.yul\":13496:13587   */\n      tag_380\n        /* \"#utility.yul\":13545:13586   */\n      tag_381\n        /* \"#utility.yul\":13569:13585   */\n      dup3\n        /* \"#utility.yul\":13545:13586   */\n      tag_222\n      jump\t// in\n    tag_381:\n        /* \"#utility.yul\":13537:13543   */\n      dup5\n        /* \"#utility.yul\":13530:13534   */\n      dup5\n        /* \"#utility.yul\":13524:13535   */\n      sload\n        /* \"#utility.yul\":13496:13587   */\n      tag_219\n      jump\t// in\n    tag_380:\n        /* \"#utility.yul\":13490:13494   */\n      dup3\n        /* \"#utility.yul\":13483:13588   */\n      sstore\n        /* \"#utility.yul\":13401:13594   */\n      pop\n        /* \"#utility.yul\":13325:13594   */\n      pop\n      pop\n      pop\n      jump\t// out\n        /* \"#utility.yul\":13600:13673   */\n    tag_224:\n        /* \"#utility.yul\":13645:13648   */\n      0x00\n        /* \"#utility.yul\":13600:13673   */\n      swap1\n      jump\t// out\n        /* \"#utility.yul\":13679:13868   */\n    tag_225:\n        /* \"#utility.yul\":13756:13788   */\n      tag_384\n      tag_224\n      jump\t// in\n    tag_384:\n        /* \"#utility.yul\":13797:13862   */\n      tag_385\n        /* \"#utility.yul\":13855:13861   */\n      dup2\n        /* \"#utility.yul\":13847:13853   */\n      dup5\n        /* \"#utility.yul\":13841:13845   */\n      dup5\n        /* \"#utility.yul\":13797:13862   */\n      tag_223\n      jump\t// in\n    tag_385:\n        /* \"#utility.yul\":13732:13868   */\n      pop\n        /* \"#utility.yul\":13679:13868   */\n      pop\n      pop\n      jump\t// out\n        /* \"#utility.yul\":13874:14060   */\n    tag_226:\n        /* \"#utility.yul\":13934:14054   */\n    tag_387:\n        /* \"#utility.yul\":13951:13954   */\n      dup2\n        /* \"#utility.yul\":13944:13949   */\n      dup2\n        /* \"#utility.yul\":13941:13955   */\n      lt\n        /* \"#utility.yul\":13934:14054   */\n      iszero\n      tag_389\n      jumpi\n        /* \"#utility.yul\":14005:14044   */\n      tag_390\n        /* \"#utility.yul\":14042:14043   */\n      0x00\n        /* \"#utility.yul\":14035:14040   */\n      dup3\n        /* \"#utility.yul\":14005:14044   */\n      tag_225\n      jump\t// in\n    tag_390:\n        /* \"#utility.yul\":13978:13979   */\n      0x01\n        /* \"#utility.yul\":13971:13976   */\n      dup2\n        /* \"#utility.yul\":13967:13980   */\n      add\n        /* \"#utility.yul\":13958:13980   */\n      swap1\n      pop\n        /* \"#utility.yul\":13934:14054   */\n      jump(tag_387)\n    tag_389:\n        /* \"#utility.yul\":13874:14060   */\n      pop\n      pop\n      jump\t// out\n        /* \"#utility.yul\":14066:14609   */\n    tag_227:\n        /* \"#utility.yul\":14167:14169   */\n      0x1f\n        /* \"#utility.yul\":14162:14165   */\n      dup3\n        /* \"#utility.yul\":14159:14170   */\n      gt\n        /* \"#utility.yul\":14156:14602   */\n      iszero\n      tag_392\n      jumpi\n        /* \"#utility.yul\":14201:14239   */\n      tag_393\n        /* \"#utility.yul\":14233:14238   */\n      dup2\n        /* \"#utility.yul\":14201:14239   */\n      tag_216\n      jump\t// in\n    tag_393:\n        /* \"#utility.yul\":14285:14314   */\n      tag_394\n        /* \"#utility.yul\":14303:14313   */\n      dup5\n        /* \"#utility.yul\":14285:14314   */\n      tag_217\n      jump\t// in\n    tag_394:\n        /* \"#utility.yul\":14275:14283   */\n      dup2\n        /* \"#utility.yul\":14271:14315   */\n      add\n        /* \"#utility.yul\":14468:14470   */\n      0x20\n        /* \"#utility.yul\":14456:14466   */\n      dup6\n        /* \"#utility.yul\":14453:14471   */\n      lt\n        /* \"#utility.yul\":14450:14499   */\n      iszero\n      tag_395\n      jumpi\n        /* \"#utility.yul\":14489:14497   */\n      dup2\n        /* \"#utility.yul\":14474:14497   */\n      swap1\n      pop\n        /* \"#utility.yul\":14450:14499   */\n    tag_395:\n        /* \"#utility.yul\":14512:14592   */\n      tag_396\n        /* \"#utility.yul\":14568:14590   */\n      tag_397\n        /* \"#utility.yul\":14586:14589   */\n      dup6\n        /* \"#utility.yul\":14568:14590   */\n      tag_217\n      jump\t// in\n    tag_397:\n        /* \"#utility.yul\":14558:14566   */\n      dup4\n        /* \"#utility.yul\":14554:14591   */\n      add\n        /* \"#utility.yul\":14541:14552   */\n      dup3\n        /* \"#utility.yul\":14512:14592   */\n      tag_226\n      jump\t// in\n    tag_396:\n        /* \"#utility.yul\":14171:14602   */\n      pop\n      pop\n        /* \"#utility.yul\":14156:14602   */\n    tag_392:\n        /* \"#utility.yul\":14066:14609   */\n      pop\n      pop\n      pop\n      jump\t// out\n        /* \"#utility.yul\":14615:14732   */\n    tag_228:\n        /* \"#utility.yul\":14669:14677   */\n      0x00\n        /* \"#utility.yul\":14719:14724   */\n      dup3\n        /* \"#utility.yul\":14713:14717   */\n      dup3\n        /* \"#utility.yul\":14709:14725   */\n      shr\n        /* \"#utility.yul\":14688:14725   */\n      swap1\n      pop\n        /* \"#utility.yul\":14615:14732   */\n      swap3\n      swap2\n      pop\n      pop\n      jump\t// out\n        /* \"#utility.yul\":14738:14907   */\n    tag_229:\n        /* \"#utility.yul\":14782:14788   */\n      0x00\n        /* \"#utility.yul\":14815:14866   */\n      tag_400\n        /* \"#utility.yul\":14863:14864   */\n      0x00\n        /* \"#utility.yul\":14859:14865   */\n      not\n        /* \"#utility.yul\":14851:14856   */\n      dup5\n        /* \"#utility.yul\":14848:14849   */\n      0x08\n        /* \"#utility.yul\":14844:14857   */\n      mul\n        /* \"#utility.yul\":14815:14866   */\n      tag_228\n      jump\t// in\n    tag_400:\n        /* \"#utility.yul\":14811:14867   */\n      not\n        /* \"#utility.yul\":14896:14900   */\n      dup1\n        /* \"#utility.yul\":14890:14894   */\n      dup4\n        /* \"#utility.yul\":14886:14901   */\n      and\n        /* \"#utility.yul\":14876:14901   */\n      swap2\n      pop\n        /* \"#utility.yul\":14789:14907   */\n      pop\n        /* \"#utility.yul\":14738:14907   */\n      swap3\n      swap2\n      pop\n      pop\n      jump\t// out\n        /* \"#utility.yul\":14912:15207   */\n    tag_230:\n        /* \"#utility.yul\":14988:14992   */\n      0x00\n        /* \"#utility.yul\":15134:15163   */\n      tag_402\n        /* \"#utility.yul\":15159:15162   */\n      dup4\n        /* \"#utility.yul\":15153:15157   */\n      dup4\n        /* \"#utility.yul\":15134:15163   */\n      tag_229\n      jump\t// in\n    tag_402:\n        /* \"#utility.yul\":15126:15163   */\n      swap2\n      pop\n        /* \"#utility.yul\":15196:15199   */\n      dup3\n        /* \"#utility.yul\":15193:15194   */\n      0x02\n        /* \"#utility.yul\":15189:15200   */\n      mul\n        /* \"#utility.yul\":15183:15187   */\n      dup3\n        /* \"#utility.yul\":15180:15201   */\n      or\n        /* \"#utility.yul\":15172:15201   */\n      swap1\n      pop\n        /* \"#utility.yul\":14912:15207   */\n      swap3\n      swap2\n      pop\n      pop\n      jump\t// out\n        /* \"#utility.yul\":15212:16607   */\n    tag_103:\n        /* \"#utility.yul\":15329:15366   */\n      tag_404\n        /* \"#utility.yul\":15362:15365   */\n      dup3\n        /* \"#utility.yul\":15329:15366   */\n      tag_204\n      jump\t// in\n    tag_404:\n        /* \"#utility.yul\":15431:15449   */\n      0xffffffffffffffff\n        /* \"#utility.yul\":15423:15429   */\n      dup2\n        /* \"#utility.yul\":15420:15450   */\n      gt\n        /* \"#utility.yul\":15417:15473   */\n      iszero\n      tag_405\n      jumpi\n        /* \"#utility.yul\":15453:15471   */\n      tag_406\n      tag_191\n      jump\t// in\n    tag_406:\n        /* \"#utility.yul\":15417:15473   */\n    tag_405:\n        /* \"#utility.yul\":15497:15535   */\n      tag_407\n        /* \"#utility.yul\":15529:15533   */\n      dup3\n        /* \"#utility.yul\":15523:15534   */\n      sload\n        /* \"#utility.yul\":15497:15535   */\n      tag_64\n      jump\t// in\n    tag_407:\n        /* \"#utility.yul\":15582:15649   */\n      tag_408\n        /* \"#utility.yul\":15642:15648   */\n      dup3\n        /* \"#utility.yul\":15634:15640   */\n      dup3\n        /* \"#utility.yul\":15628:15632   */\n      dup6\n        /* \"#utility.yul\":15582:15649   */\n      tag_227\n      jump\t// in\n    tag_408:\n        /* \"#utility.yul\":15676:15677   */\n      0x00\n        /* \"#utility.yul\":15700:15704   */\n      0x20\n        /* \"#utility.yul\":15687:15704   */\n      swap1\n      pop\n        /* \"#utility.yul\":15732:15734   */\n      0x1f\n        /* \"#utility.yul\":15724:15730   */\n      dup4\n        /* \"#utility.yul\":15721:15735   */\n      gt\n        /* \"#utility.yul\":15749:15750   */\n      0x01\n        /* \"#utility.yul\":15744:16362   */\n      dup2\n      eq\n      tag_410\n      jumpi\n        /* \"#utility.yul\":16406:16407   */\n      0x00\n        /* \"#utility.yul\":16423:16429   */\n      dup5\n        /* \"#utility.yul\":16420:16497   */\n      iszero\n      tag_411\n      jumpi\n        /* \"#utility.yul\":16472:16481   */\n      dup3\n        /* \"#utility.yul\":16467:16470   */\n      dup8\n        /* \"#utility.yul\":16463:16482   */\n      add\n        /* \"#utility.yul\":16457:16483   */\n      mload\n        /* \"#utility.yul\":16448:16483   */\n      swap1\n      pop\n        /* \"#utility.yul\":16420:16497   */\n    tag_411:\n        /* \"#utility.yul\":16523:16590   */\n      tag_412\n        /* \"#utility.yul\":16583:16589   */\n      dup6\n        /* \"#utility.yul\":16576:16581   */\n      dup3\n        /* \"#utility.yul\":16523:16590   */\n      tag_230\n      jump\t// in\n    tag_412:\n        /* \"#utility.yul\":16517:16521   */\n      dup7\n        /* \"#utility.yul\":16510:16591   */\n      sstore\n        /* \"#utility.yul\":16379:16601   */\n      pop\n        /* \"#utility.yul\":15714:16601   */\n      jump(tag_409)\n        /* \"#utility.yul\":15744:16362   */\n    tag_410:\n        /* \"#utility.yul\":15796:15800   */\n      0x1f\n        /* \"#utility.yul\":15792:15801   */\n      not\n        /* \"#utility.yul\":15784:15790   */\n      dup5\n        /* \"#utility.yul\":15780:15802   */\n      and\n        /* \"#utility.yul\":15830:15867   */\n      tag_413\n        /* \"#utility.yul\":15862:15866   */\n      dup7\n        /* \"#utility.yul\":15830:15867   */\n      tag_216\n      jump\t// in\n    tag_413:\n        /* \"#utility.yul\":15889:15890   */\n      0x00\n        /* \"#utility.yul\":15903:16111   */\n    tag_414:\n        /* \"#utility.yul\":15917:15924   */\n      dup3\n        /* \"#utility.yul\":15914:15915   */\n      dup2\n        /* \"#utility.yul\":15911:15925   */\n      lt\n        /* \"#utility.yul\":15903:16111   */\n      iszero\n      tag_416\n      jumpi\n        /* \"#utility.yul\":15996:16005   */\n      dup5\n        /* \"#utility.yul\":15991:15994   */\n      dup10\n        /* \"#utility.yul\":15987:16006   */\n      add\n        /* \"#utility.yul\":15981:16007   */\n      mload\n        /* \"#utility.yul\":15973:15979   */\n      dup3\n        /* \"#utility.yul\":15966:16008   */\n      sstore\n        /* \"#utility.yul\":16047:16048   */\n      0x01\n        /* \"#utility.yul\":16039:16045   */\n      dup3\n        /* \"#utility.yul\":16035:16049   */\n      add\n        /* \"#utility.yul\":16025:16049   */\n      swap2\n      pop\n        /* \"#utility.yul\":16094:16096   */\n      0x20\n        /* \"#utility.yul\":16083:16092   */\n      dup6\n        /* \"#utility.yul\":16079:16097   */\n      add\n        /* \"#utility.yul\":16066:16097   */\n      swap5\n      pop\n        /* \"#utility.yul\":15940:15944   */\n      0x20\n        /* \"#utility.yul\":15937:15938   */\n      dup2\n        /* \"#utility.yul\":15933:15945   */\n      add\n        /* \"#utility.yul\":15928:15945   */\n      swap1\n      pop\n        /* \"#utility.yul\":15903:16111   */\n      jump(tag_414)\n    tag_416:\n        /* \"#utility.yul\":16139:16145   */\n      dup7\n        /* \"#utility.yul\":16130:16137   */\n      dup4\n        /* \"#utility.yul\":16127:16146   */\n      lt\n        /* \"#utility.yul\":16124:16303   */\n      iszero\n      tag_417\n      jumpi\n        /* \"#utility.yul\":16197:16206   */\n      dup5\n        /* \"#utility.yul\":16192:16195   */\n      dup10\n        /* \"#utility.yul\":16188:16207   */\n      add\n        /* \"#utility.yul\":16182:16208   */\n      mload\n        /* \"#utility.yul\":16240:16288   */\n      tag_418\n        /* \"#utility.yul\":16282:16286   */\n      0x1f\n        /* \"#utility.yul\":16274:16280   */\n      dup10\n        /* \"#utility.yul\":16270:16287   */\n      and\n        /* \"#utility.yul\":16259:16268   */\n      dup3\n        /* \"#utility.yul\":16240:16288   */\n      tag_229\n      jump\t// in\n    tag_418:\n        /* \"#utility.yul\":16232:16238   */\n      dup4\n        /* \"#utility.yul\":16225:16289   */\n      sstore\n        /* \"#utility.yul\":16147:16303   */\n      pop\n        /* \"#utility.yul\":16124:16303   */\n    tag_417:\n        /* \"#utility.yul\":16349:16350   */\n      0x01\n        /* \"#utility.yul\":16345:16346   */\n      0x02\n        /* \"#utility.yul\":16337:16343   */\n      dup9\n        /* \"#utility.yul\":16333:16347   */\n      mul\n        /* \"#utility.yul\":16329:16351   */\n      add\n        /* \"#utility.yul\":16323:16327   */\n      dup9\n        /* \"#utility.yul\":16316:16352   */\n      sstore\n        /* \"#utility.yul\":15751:16362   */\n      pop\n      pop\n      pop\n        /* \"#utility.yul\":15714:16601   */\n    tag_409:\n      pop\n        /* \"#utility.yul\":15304:16607   */\n      pop\n      pop\n      pop\n        /* \"#utility.yul\":15212:16607   */\n      pop\n      pop\n      jump\t// out\n        /* \"#utility.yul\":16613:16780   */\n    tag_231:\n        /* \"#utility.yul\":16753:16772   */\n      0x496e76616c696420726570616972204944000000000000000000000000000000\n        /* \"#utility.yul\":16749:16750   */\n      0x00\n        /* \"#utility.yul\":16741:16747   */\n      dup3\n        /* \"#utility.yul\":16737:16751   */\n      add\n        /* \"#utility.yul\":16730:16773   */\n      mstore\n        /* \"#utility.yul\":16613:16780   */\n      pop\n      jump\t// out\n        /* \"#utility.yul\":16786:17152   */\n    tag_232:\n        /* \"#utility.yul\":16928:16931   */\n      0x00\n        /* \"#utility.yul\":16949:17016   */\n      tag_421\n        /* \"#utility.yul\":17013:17015   */\n      0x11\n        /* \"#utility.yul\":17008:17011   */\n      dup4\n        /* \"#utility.yul\":16949:17016   */\n      tag_205\n      jump\t// in\n    tag_421:\n        /* \"#utility.yul\":16942:17016   */\n      swap2\n      pop\n        /* \"#utility.yul\":17025:17118   */\n      tag_422\n        /* \"#utility.yul\":17114:17117   */\n      dup3\n        /* \"#utility.yul\":17025:17118   */\n      tag_231\n      jump\t// in\n    tag_422:\n        /* \"#utility.yul\":17143:17145   */\n      0x20\n        /* \"#utility.yul\":17138:17141   */\n      dup3\n        /* \"#utility.yul\":17134:17146   */\n      add\n        /* \"#utility.yul\":17127:17146   */\n      swap1\n      pop\n        /* \"#utility.yul\":16786:17152   */\n      swap2\n      swap1\n      pop\n      jump\t// out\n        /* \"#utility.yul\":17158:17577   */\n    tag_125:\n        /* \"#utility.yul\":17324:17328   */\n      0x00\n        /* \"#utility.yul\":17362:17364   */\n      0x20\n        /* \"#utility.yul\":17351:17360   */\n      dup3\n        /* \"#utility.yul\":17347:17365   */\n      add\n        /* \"#utility.yul\":17339:17365   */\n      swap1\n      pop\n        /* \"#utility.yul\":17411:17420   */\n      dup2\n        /* \"#utility.yul\":17405:17409   */\n      dup2\n        /* \"#utility.yul\":17401:17421   */\n      sub\n        /* \"#utility.yul\":17397:17398   */\n      0x00\n        /* \"#utility.yul\":17386:17395   */\n      dup4\n        /* \"#utility.yul\":17382:17399   */\n      add\n        /* \"#utility.yul\":17375:17422   */\n      mstore\n        /* \"#utility.yul\":17439:17570   */\n      tag_424\n        /* \"#utility.yul\":17565:17569   */\n      dup2\n        /* \"#utility.yul\":17439:17570   */\n      tag_232\n      jump\t// in\n    tag_424:\n        /* \"#utility.yul\":17431:17570   */\n      swap1\n      pop\n        /* \"#utility.yul\":17158:17577   */\n      swap2\n      swap1\n      pop\n      jump\t// out\n        /* \"#utility.yul\":17583:17763   */\n    tag_128:\n        /* \"#utility.yul\":17631:17708   */\n      0x4e487b7100000000000000000000000000000000000000000000000000000000\n        /* \"#utility.yul\":17628:17629   */\n      0x00\n        /* \"#utility.yul\":17621:17709   */\n      mstore\n        /* \"#utility.yul\":17728:17732   */\n      0x32\n        /* \"#utility.yul\":17725:17726   */\n      0x04\n        /* \"#utility.yul\":17718:17733   */\n      mstore\n        /* \"#utility.yul\":17752:17756   */\n      0x24\n        /* \"#utility.yul\":17749:17750   */\n      0x00\n        /* \"#utility.yul\":17742:17757   */\n      revert\n        /* \"#utility.yul\":17769:17943   */\n    tag_233:\n        /* \"#utility.yul\":17909:17935   */\n      0x496e636f7272656374207061796d656e7420616d6f756e740000000000000000\n        /* \"#utility.yul\":17905:17906   */\n      0x00\n        /* \"#utility.yul\":17897:17903   */\n      dup3\n        /* \"#utility.yul\":17893:17907   */\n      add\n        /* \"#utility.yul\":17886:17936   */\n      mstore\n        /* \"#utility.yul\":17769:17943   */\n      pop\n      jump\t// out\n        /* \"#utility.yul\":17949:18315   */\n    tag_234:\n        /* \"#utility.yul\":18091:18094   */\n      0x00\n        /* \"#utility.yul\":18112:18179   */\n      tag_428\n        /* \"#utility.yul\":18176:18178   */\n      0x18\n        /* \"#utility.yul\":18171:18174   */\n      dup4\n        /* \"#utility.yul\":18112:18179   */\n      tag_205\n      jump\t// in\n    tag_428:\n        /* \"#utility.yul\":18105:18179   */\n      swap2\n      pop\n        /* \"#utility.yul\":18188:18281   */\n      tag_429\n        /* \"#utility.yul\":18277:18280   */\n      dup3\n        /* \"#utility.yul\":18188:18281   */\n      tag_233\n      jump\t// in\n    tag_429:\n        /* \"#utility.yul\":18306:18308   */\n      0x20\n        /* \"#utility.yul\":18301:18304   */\n      dup3\n        /* \"#utility.yul\":18297:18309   */\n      add\n        /* \"#utility.yul\":18290:18309   */\n      swap1\n      pop\n        /* \"#utility.yul\":17949:18315   */\n      swap2\n      swap1\n      pop\n      jump\t// out\n        /* \"#utility.yul\":18321:18740   */\n    tag_132:\n        /* \"#utility.yul\":18487:18491   */\n      0x00\n        /* \"#utility.yul\":18525:18527   */\n      0x20\n        /* \"#utility.yul\":18514:18523   */\n      dup3\n        /* \"#utility.yul\":18510:18528   */\n      add\n        /* \"#utility.yul\":18502:18528   */\n      swap1\n      pop\n        /* \"#utility.yul\":18574:18583   */\n      dup2\n        /* \"#utility.yul\":18568:18572   */\n      dup2\n        /* \"#utility.yul\":18564:18584   */\n      sub\n        /* \"#utility.yul\":18560:18561   */\n      0x00\n        /* \"#utility.yul\":18549:18558   */\n      dup4\n        /* \"#utility.yul\":18545:18562   */\n      add\n        /* \"#utility.yul\":18538:18585   */\n      mstore\n        /* \"#utility.yul\":18602:18733   */\n      tag_431\n        /* \"#utility.yul\":18728:18732   */\n      dup2\n        /* \"#utility.yul\":18602:18733   */\n      tag_234\n      jump\t// in\n    tag_431:\n        /* \"#utility.yul\":18594:18733   */\n      swap1\n      pop\n        /* \"#utility.yul\":18321:18740   */\n      swap2\n      swap1\n      pop\n      jump\t// out\n        /* \"#utility.yul\":18746:18966   */\n    tag_235:\n        /* \"#utility.yul\":18886:18920   */\n      0x54686973207265706169722068617320616c7265616479206265656e20706169\n        /* \"#utility.yul\":18882:18883   */\n      0x00\n        /* \"#utility.yul\":18874:18880   */\n      dup3\n        /* \"#utility.yul\":18870:18884   */\n      add\n        /* \"#utility.yul\":18863:18921   */\n      mstore\n        /* \"#utility.yul\":18955:18958   */\n      0x6400000000000000000000000000000000000000000000000000000000000000\n        /* \"#utility.yul\":18950:18952   */\n      0x20\n        /* \"#utility.yul\":18942:18948   */\n      dup3\n        /* \"#utility.yul\":18938:18953   */\n      add\n        /* \"#utility.yul\":18931:18959   */\n      mstore\n        /* \"#utility.yul\":18746:18966   */\n      pop\n      jump\t// out\n        /* \"#utility.yul\":18972:19338   */\n    tag_236:\n        /* \"#utility.yul\":19114:19117   */\n      0x00\n        /* \"#utility.yul\":19135:19202   */\n      tag_434\n        /* \"#utility.yul\":19199:19201   */\n      0x21\n        /* \"#utility.yul\":19194:19197   */\n      dup4\n        /* \"#utility.yul\":19135:19202   */\n      tag_205\n      jump\t// in\n    tag_434:\n        /* \"#utility.yul\":19128:19202   */\n      swap2\n      pop\n        /* \"#utility.yul\":19211:19304   */\n      tag_435\n        /* \"#utility.yul\":19300:19303   */\n      dup3\n        /* \"#utility.yul\":19211:19304   */\n      tag_235\n      jump\t// in\n    tag_435:\n        /* \"#utility.yul\":19329:19331   */\n      0x40\n        /* \"#utility.yul\":19324:19327   */\n      dup3\n        /* \"#utility.yul\":19320:19332   */\n      add\n        /* \"#utility.yul\":19313:19332   */\n      swap1\n      pop\n        /* \"#utility.yul\":18972:19338   */\n      swap2\n      swap1\n      pop\n      jump\t// out\n        /* \"#utility.yul\":19344:19763   */\n    tag_138:\n        /* \"#utility.yul\":19510:19514   */\n      0x00\n        /* \"#utility.yul\":19548:19550   */\n      0x20\n        /* \"#utility.yul\":19537:19546   */\n      dup3\n        /* \"#utility.yul\":19533:19551   */\n      add\n        /* \"#utility.yul\":19525:19551   */\n      swap1\n      pop\n        /* \"#utility.yul\":19597:19606   */\n      dup2\n        /* \"#utility.yul\":19591:19595   */\n      dup2\n        /* \"#utility.yul\":19587:19607   */\n      sub\n        /* \"#utility.yul\":19583:19584   */\n      0x00\n        /* \"#utility.yul\":19572:19581   */\n      dup4\n        /* \"#utility.yul\":19568:19585   */\n      add\n        /* \"#utility.yul\":19561:19608   */\n      mstore\n        /* \"#utility.yul\":19625:19756   */\n      tag_437\n        /* \"#utility.yul\":19751:19755   */\n      dup2\n        /* \"#utility.yul\":19625:19756   */\n      tag_236\n      jump\t// in\n    tag_437:\n        /* \"#utility.yul\":19617:19756   */\n      swap1\n      pop\n        /* \"#utility.yul\":19344:19763   */\n      swap2\n      swap1\n      pop\n      jump\t// out\n        /* \"#utility.yul\":19769:19949   */\n    tag_237:\n        /* \"#utility.yul\":19817:19894   */\n      0x4e487b7100000000000000000000000000000000000000000000000000000000\n        /* \"#utility.yul\":19814:19815   */\n      0x00\n        /* \"#utility.yul\":19807:19895   */\n      mstore\n        /* \"#utility.yul\":19914:19918   */\n      0x11\n        /* \"#utility.yul\":19911:19912   */\n      0x04\n        /* \"#utility.yul\":19904:19919   */\n      mstore\n        /* \"#utility.yul\":19938:19942   */\n      0x24\n        /* \"#utility.yul\":19935:19936   */\n      0x00\n        /* \"#utility.yul\":19928:19943   */\n      revert\n        /* \"#utility.yul\":19955:20149   */\n    tag_149:\n        /* \"#utility.yul\":19995:19999   */\n      0x00\n        /* \"#utility.yul\":20015:20035   */\n      tag_440\n        /* \"#utility.yul\":20033:20034   */\n      dup3\n        /* \"#utility.yul\":20015:20035   */\n      tag_184\n      jump\t// in\n    tag_440:\n        /* \"#utility.yul\":20010:20035   */\n      swap2\n      pop\n        /* \"#utility.yul\":20049:20069   */\n      tag_441\n        /* \"#utility.yul\":20067:20068   */\n      dup4\n        /* \"#utility.yul\":20049:20069   */\n      tag_184\n      jump\t// in\n    tag_441:\n        /* \"#utility.yul\":20044:20069   */\n      swap3\n      pop\n        /* \"#utility.yul\":20093:20094   */\n      dup3\n        /* \"#utility.yul\":20090:20091   */\n      dup3\n        /* \"#utility.yul\":20086:20095   */\n      sub\n        /* \"#utility.yul\":20078:20095   */\n      swap1\n      pop\n        /* \"#utility.yul\":20117:20118   */\n      dup2\n        /* \"#utility.yul\":20111:20115   */\n      dup2\n        /* \"#utility.yul\":20108:20119   */\n      gt\n        /* \"#utility.yul\":20105:20142   */\n      iszero\n      tag_442\n      jumpi\n        /* \"#utility.yul\":20122:20140   */\n      tag_443\n      tag_237\n      jump\t// in\n    tag_443:\n        /* \"#utility.yul\":20105:20142   */\n    tag_442:\n        /* \"#utility.yul\":19955:20149   */\n      swap3\n      swap2\n      pop\n      pop\n      jump\t// out\n        /* \"#utility.yul\":20155:20688   */\n    tag_151:\n        /* \"#utility.yul\":20324:20328   */\n      0x00\n        /* \"#utility.yul\":20362:20364   */\n      0x60\n        /* \"#utility.yul\":20351:20360   */\n      dup3\n        /* \"#utility.yul\":20347:20365   */\n      add\n        /* \"#utility.yul\":20339:20365   */\n      swap1\n      pop\n        /* \"#utility.yul\":20375:20446   */\n      tag_445\n        /* \"#utility.yul\":20443:20444   */\n      0x00\n        /* \"#utility.yul\":20432:20441   */\n      dup4\n        /* \"#utility.yul\":20428:20445   */\n      add\n        /* \"#utility.yul\":20419:20425   */\n      dup7\n        /* \"#utility.yul\":20375:20446   */\n      tag_187\n      jump\t// in\n    tag_445:\n        /* \"#utility.yul\":20493:20502   */\n      dup2\n        /* \"#utility.yul\":20487:20491   */\n      dup2\n        /* \"#utility.yul\":20483:20503   */\n      sub\n        /* \"#utility.yul\":20478:20480   */\n      0x20\n        /* \"#utility.yul\":20467:20476   */\n      dup4\n        /* \"#utility.yul\":20463:20481   */\n      add\n        /* \"#utility.yul\":20456:20504   */\n      mstore\n        /* \"#utility.yul\":20521:20599   */\n      tag_446\n        /* \"#utility.yul\":20594:20598   */\n      dup2\n        /* \"#utility.yul\":20585:20591   */\n      dup6\n        /* \"#utility.yul\":20521:20599   */\n      tag_207\n      jump\t// in\n    tag_446:\n        /* \"#utility.yul\":20513:20599   */\n      swap1\n      pop\n        /* \"#utility.yul\":20609:20681   */\n      tag_447\n        /* \"#utility.yul\":20677:20679   */\n      0x40\n        /* \"#utility.yul\":20666:20675   */\n      dup4\n        /* \"#utility.yul\":20662:20680   */\n      add\n        /* \"#utility.yul\":20653:20659   */\n      dup5\n        /* \"#utility.yul\":20609:20681   */\n      tag_187\n      jump\t// in\n    tag_447:\n        /* \"#utility.yul\":20155:20688   */\n      swap5\n      swap4\n      pop\n      pop\n      pop\n      pop\n      jump\t// out\n        /* \"#utility.yul\":20694:20876   */\n    tag_238:\n        /* \"#utility.yul\":20834:20868   */\n      0x596f7520617265206e6f7420746865206f776e6572206f662074686520636172\n        /* \"#utility.yul\":20830:20831   */\n      0x00\n        /* \"#utility.yul\":20822:20828   */\n      dup3\n        /* \"#utility.yul\":20818:20832   */\n      add\n        /* \"#utility.yul\":20811:20869   */\n      mstore\n        /* \"#utility.yul\":20694:20876   */\n      pop\n      jump\t// out\n        /* \"#utility.yul\":20882:21248   */\n    tag_239:\n        /* \"#utility.yul\":21024:21027   */\n      0x00\n        /* \"#utility.yul\":21045:21112   */\n      tag_450\n        /* \"#utility.yul\":21109:21111   */\n      0x20\n        /* \"#utility.yul\":21104:21107   */\n      dup4\n        /* \"#utility.yul\":21045:21112   */\n      tag_205\n      jump\t// in\n    tag_450:\n        /* \"#utility.yul\":21038:21112   */\n      swap2\n      pop\n        /* \"#utility.yul\":21121:21214   */\n      tag_451\n        /* \"#utility.yul\":21210:21213   */\n      dup3\n        /* \"#utility.yul\":21121:21214   */\n      tag_238\n      jump\t// in\n    tag_451:\n        /* \"#utility.yul\":21239:21241   */\n      0x20\n        /* \"#utility.yul\":21234:21237   */\n      dup3\n        /* \"#utility.yul\":21230:21242   */\n      add\n        /* \"#utility.yul\":21223:21242   */\n      swap1\n      pop\n        /* \"#utility.yul\":20882:21248   */\n      swap2\n      swap1\n      pop\n      jump\t// out\n        /* \"#utility.yul\":21254:21673   */\n    tag_177:\n        /* \"#utility.yul\":21420:21424   */\n      0x00\n        /* \"#utility.yul\":21458:21460   */\n      0x20\n        /* \"#utility.yul\":21447:21456   */\n      dup3\n        /* \"#utility.yul\":21443:21461   */\n      add\n        /* \"#utility.yul\":21435:21461   */\n      swap1\n      pop\n        /* \"#utility.yul\":21507:21516   */\n      dup2\n        /* \"#utility.yul\":21501:21505   */\n      dup2\n        /* \"#utility.yul\":21497:21517   */\n      sub\n        /* \"#utility.yul\":21493:21494   */\n      0x00\n        /* \"#utility.yul\":21482:21491   */\n      dup4\n        /* \"#utility.yul\":21478:21495   */\n      add\n        /* \"#utility.yul\":21471:21518   */\n      mstore\n        /* \"#utility.yul\":21535:21666   */\n      tag_453\n        /* \"#utility.yul\":21661:21665   */\n      dup2\n        /* \"#utility.yul\":21535:21666   */\n      tag_239\n      jump\t// in\n    tag_453:\n        /* \"#utility.yul\":21527:21666   */\n      swap1\n      pop\n        /* \"#utility.yul\":21254:21673   */\n      swap2\n      swap1\n      pop\n      jump\t// out\n\n    auxdata: 0xa264697066735822122027d72bed08cd03ce2a2810798a1a9da8154a200694ebd2a361722253884007b864736f6c63430008120033\n}\n",
				"bytecode": {
					"linkReferences": {},
					"object": "60806040523480156200001157600080fd5b5060405162002063380380620020638339818101604052810190620000379190620000e9565b80600160006101000a81548173ffffffffffffffffffffffffffffffffffffffff021916908373ffffffffffffffffffffffffffffffffffffffff160217905550506200011b565b600080fd5b600073ffffffffffffffffffffffffffffffffffffffff82169050919050565b6000620000b18262000084565b9050919050565b620000c381620000a4565b8114620000cf57600080fd5b50565b600081519050620000e381620000b8565b92915050565b6000602082840312156200010257620001016200007f565b5b60006200011284828501620000d2565b91505092915050565b611f38806200012b6000396000f3fe6080604052600436106100915760003560e01c806394d2da2d1161005957806394d2da2d14610169578063afac49f8146101ab578063d92cc1f1146101c7578063e6289a78146101f0578063f2fde38b1461022f57610091565b80630b51698f146100965780636d7b0f46146100bf578063703174bb146100ea5780637379170a146101135780638d5b87b61461013e575b600080fd5b3480156100a257600080fd5b506100bd60048036038101906100b891906113a8565b610258565b005b3480156100cb57600080fd5b506100d4610516565b6040516100e191906113e4565b60405180910390f35b3480156100f657600080fd5b50610111600480360381019061010c9190611545565b610790565b005b34801561011f57600080fd5b50610128610990565b60405161013591906113e4565b60405180910390f35b34801561014a57600080fd5b5061015361099c565b6040516101609190611641565b60405180910390f35b34801561017557600080fd5b50610190600480360381019061018b919061169a565b6109c2565b6040516101a296959493929190611755565b60405180910390f35b6101c560048036038101906101c091906113a8565b610bb6565b005b3480156101d357600080fd5b506101ee60048036038101906101e991906117cb565b610db8565b005b3480156101fc57600080fd5b50610217600480360381019061021291906113a8565b610e93565b60405161022693929190611842565b60405180910390f35b34801561023b57600080fd5b506102566004803603810190610251919061169a565b610f62565b005b6000600260003373ffffffffffffffffffffffffffffffffffffffff1673ffffffffffffffffffffffffffffffffffffffff1681526020019081526020016000206040518060c00160405290816000820180546102b4906118af565b80601f01602080910402602001604051908101604052809291908181526020018280546102e0906118af565b801561032d5780601f106103025761010080835404028352916020019161032d565b820191906000526020600020905b81548152906001019060200180831161031057829003601f168201915b50505050508152602001600182018054610346906118af565b80601f0160208091040260200160405190810160405280929190818152602001828054610372906118af565b80156103bf5780601f10610394576101008083540402835291602001916103bf565b820191906000526020600020905b8154815290600101906020018083116103a257829003601f168201915b50505050508152602001600282015481526020016003820180546103e2906118af565b80601f016020809104026020016040519081016040528092919081815260200182805461040e906118af565b801561045b5780601f106104305761010080835404028352916020019161045b565b820191906000526020600020905b81548152906001019060200180831161043e57829003601f168201915b505050505081526020016004820160009054906101000a900473ffffffffffffffffffffffffffffffffffffffff1673ffffffffffffffffffffffffffffffffffffffff1673ffffffffffffffffffffffffffffffffffffffff1681526020016005820154815250509050428211610508576040517f08c379a00000000000000000000000000000000000000000000000000000000081526004016104ff90611952565b60405180910390fd5b818160a00181815250505050565b600080600260003373ffffffffffffffffffffffffffffffffffffffff1673ffffffffffffffffffffffffffffffffffffffff1681526020019081526020016000206040518060c0016040529081600082018054610573906118af565b80601f016020809104026020016040519081016040528092919081815260200182805461059f906118af565b80156105ec5780601f106105c1576101008083540402835291602001916105ec565b820191906000526020600020905b8154815290600101906020018083116105cf57829003601f168201915b50505050508152602001600182018054610605906118af565b80601f0160208091040260200160405190810160405280929190818152602001828054610631906118af565b801561067e5780601f106106535761010080835404028352916020019161067e565b820191906000526020600020905b81548152906001019060200180831161066157829003601f168201915b50505050508152602001600282015481526020016003820180546106a1906118af565b80601f01602080910402602001604051908101604052809291908181526020018280546106cd906118af565b801561071a5780601f106106ef5761010080835404028352916020019161071a565b820191906000526020600020905b8154815290600101906020018083116106fd57829003601f168201915b505050505081526020016004820160009054906101000a900473ffffffffffffffffffffffffffffffffffffffff1673ffffffffffffffffffffffffffffffffffffffff1673ffffffffffffffffffffffffffffffffffffffff16815260200160058201548152505090508060a0015191505090565b600073ffffffffffffffffffffffffffffffffffffffff16600260003373ffffffffffffffffffffffffffffffffffffffff1673ffffffffffffffffffffffffffffffffffffffff16815260200190815260200160002060040160009054906101000a900473ffffffffffffffffffffffffffffffffffffffff1673ffffffffffffffffffffffffffffffffffffffff1614610861576040517f08c379a0000000000000000000000000000000000000000000000000000000008152600401610858906119be565b60405180910390fd5b60006040518060c001604052808681526020018581526020018481526020018381526020013373ffffffffffffffffffffffffffffffffffffffff1681526020016000815250905080600260003373ffffffffffffffffffffffffffffffffffffffff1673ffffffffffffffffffffffffffffffffffffffff16815260200190815260200160002060008201518160000190816108fe9190611b8a565b5060208201518160010190816109149190611b8a565b506040820151816002015560608201518160030190816109349190611b8a565b5060808201518160040160006101000a81548173ffffffffffffffffffffffffffffffffffffffff021916908373ffffffffffffffffffffffffffffffffffffffff16021790555060a082015181600501559050505050505050565b60008080549050905090565b600160009054906101000a900473ffffffffffffffffffffffffffffffffffffffff1681565b60026020528060005260406000206000915090508060000180546109e5906118af565b80601f0160208091040260200160405190810160405280929190818152602001828054610a11906118af565b8015610a5e5780601f10610a3357610100808354040283529160200191610a5e565b820191906000526020600020905b815481529060010190602001808311610a4157829003601f168201915b505050505090806001018054610a73906118af565b80601f0160208091040260200160405190810160405280929190818152602001828054610a9f906118af565b8015610aec5780601f10610ac157610100808354040283529160200191610aec565b820191906000526020600020905b815481529060010190602001808311610acf57829003601f168201915b505050505090806002015490806003018054610b07906118af565b80601f0160208091040260200160405190810160405280929190818152602001828054610b33906118af565b8015610b805780601f10610b5557610100808354040283529160200191610b80565b820191906000526020600020905b815481529060010190602001808311610b6357829003601f168201915b5050505050908060040160009054906101000a900473ffffffffffffffffffffffffffffffffffffffff16908060050154905086565b6000805490508110610bfd576040517f08c379a0000000000000000000000000000000000000000000000000000000008152600401610bf490611ca8565b60405180910390fd5b60008181548110610c1157610c10611cc8565b5b9060005260206000209060030201600101543414610c64576040517f08c379a0000000000000000000000000000000000000000000000000000000008152600401610c5b90611d43565b60405180910390fd5b60008181548110610c7857610c77611cc8565b5b906000526020600020906003020160020160009054906101000a900460ff1615610cd7576040517f08c379a0000000000000000000000000000000000000000000000000000000008152600401610cce90611dd5565b60405180910390fd5b600160009054906101000a900473ffffffffffffffffffffffffffffffffffffffff1673ffffffffffffffffffffffffffffffffffffffff166108fc349081150290604051600060405180830381858888f19350505050158015610d3f573d6000803e3d6000fd5b50600160008281548110610d5657610d55611cc8565b5b906000526020600020906003020160020160006101000a81548160ff0219169083151502179055507fd477afad70aa960fbbeeb73ccddf30f5eb5dc17171b5b73736bd63754eaffa7381604051610dad91906113e4565b60405180910390a150565b600060405180606001604052808481526020018381526020016000151581525090806001815401808255809150506001900390600052602060002090600302016000909190919091506000820151816000019081610e169190611b8a565b506020820151816001015560408201518160020160006101000a81548160ff02191690831515021790555050507ffbd2fb28dc54becd774801659cef1fb9f8cd42c2b8995633ab96af3a64feade06001600080549050610e769190611e24565b8383604051610e8793929190611e58565b60405180910390a15050565b60008181548110610ea357600080fd5b9060005260206000209060030201600091509050806000018054610ec6906118af565b80601f0160208091040260200160405190810160405280929190818152602001828054610ef2906118af565b8015610f3f5780601f10610f1457610100808354040283529160200191610f3f565b820191906000526020600020905b815481529060010190602001808311610f2257829003601f168201915b5050505050908060010154908060020160009054906101000a900460ff16905083565b6000600260003373ffffffffffffffffffffffffffffffffffffffff1673ffffffffffffffffffffffffffffffffffffffff1681526020019081526020016000206040518060c0016040529081600082018054610fbe906118af565b80601f0160208091040260200160405190810160405280929190818152602001828054610fea906118af565b80156110375780601f1061100c57610100808354040283529160200191611037565b820191906000526020600020905b81548152906001019060200180831161101a57829003601f168201915b50505050508152602001600182018054611050906118af565b80601f016020809104026020016040519081016040528092919081815260200182805461107c906118af565b80156110c95780601f1061109e576101008083540402835291602001916110c9565b820191906000526020600020905b8154815290600101906020018083116110ac57829003601f168201915b50505050508152602001600282015481526020016003820180546110ec906118af565b80601f0160208091040260200160405190810160405280929190818152602001828054611118906118af565b80156111655780601f1061113a57610100808354040283529160200191611165565b820191906000526020600020905b81548152906001019060200180831161114857829003601f168201915b505050505081526020016004820160009054906101000a900473ffffffffffffffffffffffffffffffffffffffff1673ffffffffffffffffffffffffffffffffffffffff1673ffffffffffffffffffffffffffffffffffffffff1681526020016005820154815250509050806080015173ffffffffffffffffffffffffffffffffffffffff163373ffffffffffffffffffffffffffffffffffffffff1614611242576040517f08c379a000000000000000000000000000000000000000000000000000000000815260040161123990611ee2565b60405180910390fd5b81816080019073ffffffffffffffffffffffffffffffffffffffff16908173ffffffffffffffffffffffffffffffffffffffff168152505080600260008473ffffffffffffffffffffffffffffffffffffffff1673ffffffffffffffffffffffffffffffffffffffff16815260200190815260200160002060008201518160000190816112cf9190611b8a565b5060208201518160010190816112e59190611b8a565b506040820151816002015560608201518160030190816113059190611b8a565b5060808201518160040160006101000a81548173ffffffffffffffffffffffffffffffffffffffff021916908373ffffffffffffffffffffffffffffffffffffffff16021790555060a082015181600501559050505050565b6000604051905090565b600080fd5b600080fd5b6000819050919050565b61138581611372565b811461139057600080fd5b50565b6000813590506113a28161137c565b92915050565b6000602082840312156113be576113bd611368565b5b60006113cc84828501611393565b91505092915050565b6113de81611372565b82525050565b60006020820190506113f960008301846113d5565b92915050565b600080fd5b600080fd5b6000601f19601f8301169050919050565b7f4e487b7100000000000000000000000000000000000000000000000000000000600052604160045260246000fd5b61145282611409565b810181811067ffffffffffffffff821117156114715761147061141a565b5b80604052505050565b600061148461135e565b90506114908282611449565b919050565b600067ffffffffffffffff8211156114b0576114af61141a565b5b6114b982611409565b9050602081019050919050565b82818337600083830152505050565b60006114e86114e384611495565b61147a565b90508281526020810184848401111561150457611503611404565b5b61150f8482856114c6565b509392505050565b600082601f83011261152c5761152b6113ff565b5b813561153c8482602086016114d5565b91505092915050565b6000806000806080858703121561155f5761155e611368565b5b600085013567ffffffffffffffff81111561157d5761157c61136d565b5b61158987828801611517565b945050602085013567ffffffffffffffff8111156115aa576115a961136d565b5b6115b687828801611517565b93505060406115c787828801611393565b925050606085013567ffffffffffffffff8111156115e8576115e761136d565b5b6115f487828801611517565b91505092959194509250565b600073ffffffffffffffffffffffffffffffffffffffff82169050919050565b600061162b82611600565b9050919050565b61163b81611620565b82525050565b60006020820190506116566000830184611632565b92915050565b600061166782611600565b9050919050565b6116778161165c565b811461168257600080fd5b50565b6000813590506116948161166e565b92915050565b6000602082840312156116b0576116af611368565b5b60006116be84828501611685565b91505092915050565b600081519050919050565b600082825260208201905092915050565b60005b838110156117015780820151818401526020810190506116e6565b60008484015250505050565b6000611718826116c7565b61172281856116d2565b93506117328185602086016116e3565b61173b81611409565b840191505092915050565b61174f8161165c565b82525050565b600060c082019050818103600083015261176f818961170d565b90508181036020830152611783818861170d565b905061179260408301876113d5565b81810360608301526117a4818661170d565b90506117b36080830185611746565b6117c060a08301846113d5565b979650505050505050565b600080604083850312156117e2576117e1611368565b5b600083013567ffffffffffffffff811115611800576117ff61136d565b5b61180c85828601611517565b925050602061181d85828601611393565b9150509250929050565b60008115159050919050565b61183c81611827565b82525050565b6000606082019050818103600083015261185c818661170d565b905061186b60208301856113d5565b6118786040830184611833565b949350505050565b7f4e487b7100000000000000000000000000000000000000000000000000000000600052602260045260246000fd5b600060028204905060018216806118c757607f821691505b6020821081036118da576118d9611880565b5b50919050565b7f5365727669636520646174652063616e6e6f7420626520696e2074686520706160008201527f7374000000000000000000000000000000000000000000000000000000000000602082015250565b600061193c6022836116d2565b9150611947826118e0565b604082019050919050565b6000602082019050818103600083015261196b8161192f565b9050919050565b7f43617220697320616c7265616479207265676973746572656400000000000000600082015250565b60006119a86019836116d2565b91506119b382611972565b602082019050919050565b600060208201905081810360008301526119d78161199b565b9050919050565b60008190508160005260206000209050919050565b60006020601f8301049050919050565b600082821b905092915050565b600060088302611a407fffffffffffffffffffffffffffffffffffffffffffffffffffffffffffffffff82611a03565b611a4a8683611a03565b95508019841693508086168417925050509392505050565b6000819050919050565b6000611a87611a82611a7d84611372565b611a62565b611372565b9050919050565b6000819050919050565b611aa183611a6c565b611ab5611aad82611a8e565b848454611a10565b825550505050565b600090565b611aca611abd565b611ad5818484611a98565b505050565b5b81811015611af957611aee600082611ac2565b600181019050611adb565b5050565b601f821115611b3e57611b0f816119de565b611b18846119f3565b81016020851015611b27578190505b611b3b611b33856119f3565b830182611ada565b50505b505050565b600082821c905092915050565b6000611b6160001984600802611b43565b1980831691505092915050565b6000611b7a8383611b50565b9150826002028217905092915050565b611b93826116c7565b67ffffffffffffffff811115611bac57611bab61141a565b5b611bb682546118af565b611bc1828285611afd565b600060209050601f831160018114611bf45760008415611be2578287015190505b611bec8582611b6e565b865550611c54565b601f198416611c02866119de565b60005b82811015611c2a57848901518255600182019150602085019450602081019050611c05565b86831015611c475784890151611c43601f891682611b50565b8355505b6001600288020188555050505b505050505050565b7f496e76616c696420726570616972204944000000000000000000000000000000600082015250565b6000611c926011836116d2565b9150611c9d82611c5c565b602082019050919050565b60006020820190508181036000830152611cc181611c85565b9050919050565b7f4e487b7100000000000000000000000000000000000000000000000000000000600052603260045260246000fd5b7f496e636f7272656374207061796d656e7420616d6f756e740000000000000000600082015250565b6000611d2d6018836116d2565b9150611d3882611cf7565b602082019050919050565b60006020820190508181036000830152611d5c81611d20565b9050919050565b7f54686973207265706169722068617320616c7265616479206265656e2070616960008201527f6400000000000000000000000000000000000000000000000000000000000000602082015250565b6000611dbf6021836116d2565b9150611dca82611d63565b604082019050919050565b60006020820190508181036000830152611dee81611db2565b9050919050565b7f4e487b7100000000000000000000000000000000000000000000000000000000600052601160045260246000fd5b6000611e2f82611372565b9150611e3a83611372565b9250828203905081811115611e5257611e51611df5565b5b92915050565b6000606082019050611e6d60008301866113d5565b8181036020830152611e7f818561170d565b9050611e8e60408301846113d5565b949350505050565b7f596f7520617265206e6f7420746865206f776e6572206f662074686520636172600082015250565b6000611ecc6020836116d2565b9150611ed782611e96565b602082019050919050565b60006020820190508181036000830152611efb81611ebf565b905091905056fea264697066735822122027d72bed08cd03ce2a2810798a1a9da8154a200694ebd2a361722253884007b864736f6c63430008120033",
					"opcodes": "PUSH1 0x80 PUSH1 0x40 MSTORE CALLVALUE DUP1 ISZERO PUSH3 0x11 JUMPI PUSH1 0x0 DUP1 REVERT JUMPDEST POP PUSH1 0x40 MLOAD PUSH3 0x2063 CODESIZE SUB DUP1 PUSH3 0x2063 DUP4 CODECOPY DUP2 DUP2 ADD PUSH1 0x40 MSTORE DUP2 ADD SWAP1 PUSH3 0x37 SWAP2 SWAP1 PUSH3 0xE9 JUMP JUMPDEST DUP1 PUSH1 0x1 PUSH1 0x0 PUSH2 0x100 EXP DUP2 SLOAD DUP2 PUSH20 0xFFFFFFFFFFFFFFFFFFFFFFFFFFFFFFFFFFFFFFFF MUL NOT AND SWAP1 DUP4 PUSH20 0xFFFFFFFFFFFFFFFFFFFFFFFFFFFFFFFFFFFFFFFF AND MUL OR SWAP1 SSTORE POP POP PUSH3 0x11B JUMP JUMPDEST PUSH1 0x0 DUP1 REVERT JUMPDEST PUSH1 0x0 PUSH20 0xFFFFFFFFFFFFFFFFFFFFFFFFFFFFFFFFFFFFFFFF DUP3 AND SWAP1 POP SWAP2 SWAP1 POP JUMP JUMPDEST PUSH1 0x0 PUSH3 0xB1 DUP3 PUSH3 0x84 JUMP JUMPDEST SWAP1 POP SWAP2 SWAP1 POP JUMP JUMPDEST PUSH3 0xC3 DUP2 PUSH3 0xA4 JUMP JUMPDEST DUP2 EQ PUSH3 0xCF JUMPI PUSH1 0x0 DUP1 REVERT JUMPDEST POP JUMP JUMPDEST PUSH1 0x0 DUP2 MLOAD SWAP1 POP PUSH3 0xE3 DUP2 PUSH3 0xB8 JUMP JUMPDEST SWAP3 SWAP2 POP POP JUMP JUMPDEST PUSH1 0x0 PUSH1 0x20 DUP3 DUP5 SUB SLT ISZERO PUSH3 0x102 JUMPI PUSH3 0x101 PUSH3 0x7F JUMP JUMPDEST JUMPDEST PUSH1 0x0 PUSH3 0x112 DUP5 DUP3 DUP6 ADD PUSH3 0xD2 JUMP JUMPDEST SWAP2 POP POP SWAP3 SWAP2 POP POP JUMP JUMPDEST PUSH2 0x1F38 DUP1 PUSH3 0x12B PUSH1 0x0 CODECOPY PUSH1 0x0 RETURN INVALID PUSH1 0x80 PUSH1 0x40 MSTORE PUSH1 0x4 CALLDATASIZE LT PUSH2 0x91 JUMPI PUSH1 0x0 CALLDATALOAD PUSH1 0xE0 SHR DUP1 PUSH4 0x94D2DA2D GT PUSH2 0x59 JUMPI DUP1 PUSH4 0x94D2DA2D EQ PUSH2 0x169 JUMPI DUP1 PUSH4 0xAFAC49F8 EQ PUSH2 0x1AB JUMPI DUP1 PUSH4 0xD92CC1F1 EQ PUSH2 0x1C7 JUMPI DUP1 PUSH4 0xE6289A78 EQ PUSH2 0x1F0 JUMPI DUP1 PUSH4 0xF2FDE38B EQ PUSH2 0x22F JUMPI PUSH2 0x91 JUMP JUMPDEST DUP1 PUSH4 0xB51698F EQ PUSH2 0x96 JUMPI DUP1 PUSH4 0x6D7B0F46 EQ PUSH2 0xBF JUMPI DUP1 PUSH4 0x703174BB EQ PUSH2 0xEA JUMPI DUP1 PUSH4 0x7379170A EQ PUSH2 0x113 JUMPI DUP1 PUSH4 0x8D5B87B6 EQ PUSH2 0x13E JUMPI JUMPDEST PUSH1 0x0 DUP1 REVERT JUMPDEST CALLVALUE DUP1 ISZERO PUSH2 0xA2 JUMPI PUSH1 0x0 DUP1 REVERT JUMPDEST POP PUSH2 0xBD PUSH1 0x4 DUP1 CALLDATASIZE SUB DUP2 ADD SWAP1 PUSH2 0xB8 SWAP2 SWAP1 PUSH2 0x13A8 JUMP JUMPDEST PUSH2 0x258 JUMP JUMPDEST STOP JUMPDEST CALLVALUE DUP1 ISZERO PUSH2 0xCB JUMPI PUSH1 0x0 DUP1 REVERT JUMPDEST POP PUSH2 0xD4 PUSH2 0x516 JUMP JUMPDEST PUSH1 0x40 MLOAD PUSH2 0xE1 SWAP2 SWAP1 PUSH2 0x13E4 JUMP JUMPDEST PUSH1 0x40 MLOAD DUP1 SWAP2 SUB SWAP1 RETURN JUMPDEST CALLVALUE DUP1 ISZERO PUSH2 0xF6 JUMPI PUSH1 0x0 DUP1 REVERT JUMPDEST POP PUSH2 0x111 PUSH1 0x4 DUP1 CALLDATASIZE SUB DUP2 ADD SWAP1 PUSH2 0x10C SWAP2 SWAP1 PUSH2 0x1545 JUMP JUMPDEST PUSH2 0x790 JUMP JUMPDEST STOP JUMPDEST CALLVALUE DUP1 ISZERO PUSH2 0x11F JUMPI PUSH1 0x0 DUP1 REVERT JUMPDEST POP PUSH2 0x128 PUSH2 0x990 JUMP JUMPDEST PUSH1 0x40 MLOAD PUSH2 0x135 SWAP2 SWAP1 PUSH2 0x13E4 JUMP JUMPDEST PUSH1 0x40 MLOAD DUP1 SWAP2 SUB SWAP1 RETURN JUMPDEST CALLVALUE DUP1 ISZERO PUSH2 0x14A JUMPI PUSH1 0x0 DUP1 REVERT JUMPDEST POP PUSH2 0x153 PUSH2 0x99C JUMP JUMPDEST PUSH1 0x40 MLOAD PUSH2 0x160 SWAP2 SWAP1 PUSH2 0x1641 JUMP JUMPDEST PUSH1 0x40 MLOAD DUP1 SWAP2 SUB SWAP1 RETURN JUMPDEST CALLVALUE DUP1 ISZERO PUSH2 0x175 JUMPI PUSH1 0x0 DUP1 REVERT JUMPDEST POP PUSH2 0x190 PUSH1 0x4 DUP1 CALLDATASIZE SUB DUP2 ADD SWAP1 PUSH2 0x18B SWAP2 SWAP1 PUSH2 0x169A JUMP JUMPDEST PUSH2 0x9C2 JUMP JUMPDEST PUSH1 0x40 MLOAD PUSH2 0x1A2 SWAP7 SWAP6 SWAP5 SWAP4 SWAP3 SWAP2 SWAP1 PUSH2 0x1755 JUMP JUMPDEST PUSH1 0x40 MLOAD DUP1 SWAP2 SUB SWAP1 RETURN JUMPDEST PUSH2 0x1C5 PUSH1 0x4 DUP1 CALLDATASIZE SUB DUP2 ADD SWAP1 PUSH2 0x1C0 SWAP2 SWAP1 PUSH2 0x13A8 JUMP JUMPDEST PUSH2 0xBB6 JUMP JUMPDEST STOP JUMPDEST CALLVALUE DUP1 ISZERO PUSH2 0x1D3 JUMPI PUSH1 0x0 DUP1 REVERT JUMPDEST POP PUSH2 0x1EE PUSH1 0x4 DUP1 CALLDATASIZE SUB DUP2 ADD SWAP1 PUSH2 0x1E9 SWAP2 SWAP1 PUSH2 0x17CB JUMP JUMPDEST PUSH2 0xDB8 JUMP JUMPDEST STOP JUMPDEST CALLVALUE DUP1 ISZERO PUSH2 0x1FC JUMPI PUSH1 0x0 DUP1 REVERT JUMPDEST POP PUSH2 0x217 PUSH1 0x4 DUP1 CALLDATASIZE SUB DUP2 ADD SWAP1 PUSH2 0x212 SWAP2 SWAP1 PUSH2 0x13A8 JUMP JUMPDEST PUSH2 0xE93 JUMP JUMPDEST PUSH1 0x40 MLOAD PUSH2 0x226 SWAP4 SWAP3 SWAP2 SWAP1 PUSH2 0x1842 JUMP JUMPDEST PUSH1 0x40 MLOAD DUP1 SWAP2 SUB SWAP1 RETURN JUMPDEST CALLVALUE DUP1 ISZERO PUSH2 0x23B JUMPI PUSH1 0x0 DUP1 REVERT JUMPDEST POP PUSH2 0x256 PUSH1 0x4 DUP1 CALLDATASIZE SUB DUP2 ADD SWAP1 PUSH2 0x251 SWAP2 SWAP1 PUSH2 0x169A JUMP JUMPDEST PUSH2 0xF62 JUMP JUMPDEST STOP JUMPDEST PUSH1 0x0 PUSH1 0x2 PUSH1 0x0 CALLER PUSH20 0xFFFFFFFFFFFFFFFFFFFFFFFFFFFFFFFFFFFFFFFF AND PUSH20 0xFFFFFFFFFFFFFFFFFFFFFFFFFFFFFFFFFFFFFFFF AND DUP2 MSTORE PUSH1 0x20 ADD SWAP1 DUP2 MSTORE PUSH1 0x20 ADD PUSH1 0x0 KECCAK256 PUSH1 0x40 MLOAD DUP1 PUSH1 0xC0 ADD PUSH1 0x40 MSTORE SWAP1 DUP2 PUSH1 0x0 DUP3 ADD DUP1 SLOAD PUSH2 0x2B4 SWAP1 PUSH2 0x18AF JUMP JUMPDEST DUP1 PUSH1 0x1F ADD PUSH1 0x20 DUP1 SWAP2 DIV MUL PUSH1 0x20 ADD PUSH1 0x40 MLOAD SWAP1 DUP2 ADD PUSH1 0x40 MSTORE DUP1 SWAP3 SWAP2 SWAP1 DUP2 DUP2 MSTORE PUSH1 0x20 ADD DUP3 DUP1 SLOAD PUSH2 0x2E0 SWAP1 PUSH2 0x18AF JUMP JUMPDEST DUP1 ISZERO PUSH2 0x32D JUMPI DUP1 PUSH1 0x1F LT PUSH2 0x302 JUMPI PUSH2 0x100 DUP1 DUP4 SLOAD DIV MUL DUP4 MSTORE SWAP2 PUSH1 0x20 ADD SWAP2 PUSH2 0x32D JUMP JUMPDEST DUP3 ADD SWAP2 SWAP1 PUSH1 0x0 MSTORE PUSH1 0x20 PUSH1 0x0 KECCAK256 SWAP1 JUMPDEST DUP2 SLOAD DUP2 MSTORE SWAP1 PUSH1 0x1 ADD SWAP1 PUSH1 0x20 ADD DUP1 DUP4 GT PUSH2 0x310 JUMPI DUP3 SWAP1 SUB PUSH1 0x1F AND DUP3 ADD SWAP2 JUMPDEST POP POP POP POP POP DUP2 MSTORE PUSH1 0x20 ADD PUSH1 0x1 DUP3 ADD DUP1 SLOAD PUSH2 0x346 SWAP1 PUSH2 0x18AF JUMP JUMPDEST DUP1 PUSH1 0x1F ADD PUSH1 0x20 DUP1 SWAP2 DIV MUL PUSH1 0x20 ADD PUSH1 0x40 MLOAD SWAP1 DUP2 ADD PUSH1 0x40 MSTORE DUP1 SWAP3 SWAP2 SWAP1 DUP2 DUP2 MSTORE PUSH1 0x20 ADD DUP3 DUP1 SLOAD PUSH2 0x372 SWAP1 PUSH2 0x18AF JUMP JUMPDEST DUP1 ISZERO PUSH2 0x3BF JUMPI DUP1 PUSH1 0x1F LT PUSH2 0x394 JUMPI PUSH2 0x100 DUP1 DUP4 SLOAD DIV MUL DUP4 MSTORE SWAP2 PUSH1 0x20 ADD SWAP2 PUSH2 0x3BF JUMP JUMPDEST DUP3 ADD SWAP2 SWAP1 PUSH1 0x0 MSTORE PUSH1 0x20 PUSH1 0x0 KECCAK256 SWAP1 JUMPDEST DUP2 SLOAD DUP2 MSTORE SWAP1 PUSH1 0x1 ADD SWAP1 PUSH1 0x20 ADD DUP1 DUP4 GT PUSH2 0x3A2 JUMPI DUP3 SWAP1 SUB PUSH1 0x1F AND DUP3 ADD SWAP2 JUMPDEST POP POP POP POP POP DUP2 MSTORE PUSH1 0x20 ADD PUSH1 0x2 DUP3 ADD SLOAD DUP2 MSTORE PUSH1 0x20 ADD PUSH1 0x3 DUP3 ADD DUP1 SLOAD PUSH2 0x3E2 SWAP1 PUSH2 0x18AF JUMP JUMPDEST DUP1 PUSH1 0x1F ADD PUSH1 0x20 DUP1 SWAP2 DIV MUL PUSH1 0x20 ADD PUSH1 0x40 MLOAD SWAP1 DUP2 ADD PUSH1 0x40 MSTORE DUP1 SWAP3 SWAP2 SWAP1 DUP2 DUP2 MSTORE PUSH1 0x20 ADD DUP3 DUP1 SLOAD PUSH2 0x40E SWAP1 PUSH2 0x18AF JUMP JUMPDEST DUP1 ISZERO PUSH2 0x45B JUMPI DUP1 PUSH1 0x1F LT PUSH2 0x430 JUMPI PUSH2 0x100 DUP1 DUP4 SLOAD DIV MUL DUP4 MSTORE SWAP2 PUSH1 0x20 ADD SWAP2 PUSH2 0x45B JUMP JUMPDEST DUP3 ADD SWAP2 SWAP1 PUSH1 0x0 MSTORE PUSH1 0x20 PUSH1 0x0 KECCAK256 SWAP1 JUMPDEST DUP2 SLOAD DUP2 MSTORE SWAP1 PUSH1 0x1 ADD SWAP1 PUSH1 0x20 ADD DUP1 DUP4 GT PUSH2 0x43E JUMPI DUP3 SWAP1 SUB PUSH1 0x1F AND DUP3 ADD SWAP2 JUMPDEST POP POP POP POP POP DUP2 MSTORE PUSH1 0x20 ADD PUSH1 0x4 DUP3 ADD PUSH1 0x0 SWAP1 SLOAD SWAP1 PUSH2 0x100 EXP SWAP1 DIV PUSH20 0xFFFFFFFFFFFFFFFFFFFFFFFFFFFFFFFFFFFFFFFF AND PUSH20 0xFFFFFFFFFFFFFFFFFFFFFFFFFFFFFFFFFFFFFFFF AND PUSH20 0xFFFFFFFFFFFFFFFFFFFFFFFFFFFFFFFFFFFFFFFF AND DUP2 MSTORE PUSH1 0x20 ADD PUSH1 0x5 DUP3 ADD SLOAD DUP2 MSTORE POP POP SWAP1 POP TIMESTAMP DUP3 GT PUSH2 0x508 JUMPI PUSH1 0x40 MLOAD PUSH32 0x8C379A000000000000000000000000000000000000000000000000000000000 DUP2 MSTORE PUSH1 0x4 ADD PUSH2 0x4FF SWAP1 PUSH2 0x1952 JUMP JUMPDEST PUSH1 0x40 MLOAD DUP1 SWAP2 SUB SWAP1 REVERT JUMPDEST DUP2 DUP2 PUSH1 0xA0 ADD DUP2 DUP2 MSTORE POP POP POP POP JUMP JUMPDEST PUSH1 0x0 DUP1 PUSH1 0x2 PUSH1 0x0 CALLER PUSH20 0xFFFFFFFFFFFFFFFFFFFFFFFFFFFFFFFFFFFFFFFF AND PUSH20 0xFFFFFFFFFFFFFFFFFFFFFFFFFFFFFFFFFFFFFFFF AND DUP2 MSTORE PUSH1 0x20 ADD SWAP1 DUP2 MSTORE PUSH1 0x20 ADD PUSH1 0x0 KECCAK256 PUSH1 0x40 MLOAD DUP1 PUSH1 0xC0 ADD PUSH1 0x40 MSTORE SWAP1 DUP2 PUSH1 0x0 DUP3 ADD DUP1 SLOAD PUSH2 0x573 SWAP1 PUSH2 0x18AF JUMP JUMPDEST DUP1 PUSH1 0x1F ADD PUSH1 0x20 DUP1 SWAP2 DIV MUL PUSH1 0x20 ADD PUSH1 0x40 MLOAD SWAP1 DUP2 ADD PUSH1 0x40 MSTORE DUP1 SWAP3 SWAP2 SWAP1 DUP2 DUP2 MSTORE PUSH1 0x20 ADD DUP3 DUP1 SLOAD PUSH2 0x59F SWAP1 PUSH2 0x18AF JUMP JUMPDEST DUP1 ISZERO PUSH2 0x5EC JUMPI DUP1 PUSH1 0x1F LT PUSH2 0x5C1 JUMPI PUSH2 0x100 DUP1 DUP4 SLOAD DIV MUL DUP4 MSTORE SWAP2 PUSH1 0x20 ADD SWAP2 PUSH2 0x5EC JUMP JUMPDEST DUP3 ADD SWAP2 SWAP1 PUSH1 0x0 MSTORE PUSH1 0x20 PUSH1 0x0 KECCAK256 SWAP1 JUMPDEST DUP2 SLOAD DUP2 MSTORE SWAP1 PUSH1 0x1 ADD SWAP1 PUSH1 0x20 ADD DUP1 DUP4 GT PUSH2 0x5CF JUMPI DUP3 SWAP1 SUB PUSH1 0x1F AND DUP3 ADD SWAP2 JUMPDEST POP POP POP POP POP DUP2 MSTORE PUSH1 0x20 ADD PUSH1 0x1 DUP3 ADD DUP1 SLOAD PUSH2 0x605 SWAP1 PUSH2 0x18AF JUMP JUMPDEST DUP1 PUSH1 0x1F ADD PUSH1 0x20 DUP1 SWAP2 DIV MUL PUSH1 0x20 ADD PUSH1 0x40 MLOAD SWAP1 DUP2 ADD PUSH1 0x40 MSTORE DUP1 SWAP3 SWAP2 SWAP1 DUP2 DUP2 MSTORE PUSH1 0x20 ADD DUP3 DUP1 SLOAD PUSH2 0x631 SWAP1 PUSH2 0x18AF JUMP JUMPDEST DUP1 ISZERO PUSH2 0x67E JUMPI DUP1 PUSH1 0x1F LT PUSH2 0x653 JUMPI PUSH2 0x100 DUP1 DUP4 SLOAD DIV MUL DUP4 MSTORE SWAP2 PUSH1 0x20 ADD SWAP2 PUSH2 0x67E JUMP JUMPDEST DUP3 ADD SWAP2 SWAP1 PUSH1 0x0 MSTORE PUSH1 0x20 PUSH1 0x0 KECCAK256 SWAP1 JUMPDEST DUP2 SLOAD DUP2 MSTORE SWAP1 PUSH1 0x1 ADD SWAP1 PUSH1 0x20 ADD DUP1 DUP4 GT PUSH2 0x661 JUMPI DUP3 SWAP1 SUB PUSH1 0x1F AND DUP3 ADD SWAP2 JUMPDEST POP POP POP POP POP DUP2 MSTORE PUSH1 0x20 ADD PUSH1 0x2 DUP3 ADD SLOAD DUP2 MSTORE PUSH1 0x20 ADD PUSH1 0x3 DUP3 ADD DUP1 SLOAD PUSH2 0x6A1 SWAP1 PUSH2 0x18AF JUMP JUMPDEST DUP1 PUSH1 0x1F ADD PUSH1 0x20 DUP1 SWAP2 DIV MUL PUSH1 0x20 ADD PUSH1 0x40 MLOAD SWAP1 DUP2 ADD PUSH1 0x40 MSTORE DUP1 SWAP3 SWAP2 SWAP1 DUP2 DUP2 MSTORE PUSH1 0x20 ADD DUP3 DUP1 SLOAD PUSH2 0x6CD SWAP1 PUSH2 0x18AF JUMP JUMPDEST DUP1 ISZERO PUSH2 0x71A JUMPI DUP1 PUSH1 0x1F LT PUSH2 0x6EF JUMPI PUSH2 0x100 DUP1 DUP4 SLOAD DIV MUL DUP4 MSTORE SWAP2 PUSH1 0x20 ADD SWAP2 PUSH2 0x71A JUMP JUMPDEST DUP3 ADD SWAP2 SWAP1 PUSH1 0x0 MSTORE PUSH1 0x20 PUSH1 0x0 KECCAK256 SWAP1 JUMPDEST DUP2 SLOAD DUP2 MSTORE SWAP1 PUSH1 0x1 ADD SWAP1 PUSH1 0x20 ADD DUP1 DUP4 GT PUSH2 0x6FD JUMPI DUP3 SWAP1 SUB PUSH1 0x1F AND DUP3 ADD SWAP2 JUMPDEST POP POP POP POP POP DUP2 MSTORE PUSH1 0x20 ADD PUSH1 0x4 DUP3 ADD PUSH1 0x0 SWAP1 SLOAD SWAP1 PUSH2 0x100 EXP SWAP1 DIV PUSH20 0xFFFFFFFFFFFFFFFFFFFFFFFFFFFFFFFFFFFFFFFF AND PUSH20 0xFFFFFFFFFFFFFFFFFFFFFFFFFFFFFFFFFFFFFFFF AND PUSH20 0xFFFFFFFFFFFFFFFFFFFFFFFFFFFFFFFFFFFFFFFF AND DUP2 MSTORE PUSH1 0x20 ADD PUSH1 0x5 DUP3 ADD SLOAD DUP2 MSTORE POP POP SWAP1 POP DUP1 PUSH1 0xA0 ADD MLOAD SWAP2 POP POP SWAP1 JUMP JUMPDEST PUSH1 0x0 PUSH20 0xFFFFFFFFFFFFFFFFFFFFFFFFFFFFFFFFFFFFFFFF AND PUSH1 0x2 PUSH1 0x0 CALLER PUSH20 0xFFFFFFFFFFFFFFFFFFFFFFFFFFFFFFFFFFFFFFFF AND PUSH20 0xFFFFFFFFFFFFFFFFFFFFFFFFFFFFFFFFFFFFFFFF AND DUP2 MSTORE PUSH1 0x20 ADD SWAP1 DUP2 MSTORE PUSH1 0x20 ADD PUSH1 0x0 KECCAK256 PUSH1 0x4 ADD PUSH1 0x0 SWAP1 SLOAD SWAP1 PUSH2 0x100 EXP SWAP1 DIV PUSH20 0xFFFFFFFFFFFFFFFFFFFFFFFFFFFFFFFFFFFFFFFF AND PUSH20 0xFFFFFFFFFFFFFFFFFFFFFFFFFFFFFFFFFFFFFFFF AND EQ PUSH2 0x861 JUMPI PUSH1 0x40 MLOAD PUSH32 0x8C379A000000000000000000000000000000000000000000000000000000000 DUP2 MSTORE PUSH1 0x4 ADD PUSH2 0x858 SWAP1 PUSH2 0x19BE JUMP JUMPDEST PUSH1 0x40 MLOAD DUP1 SWAP2 SUB SWAP1 REVERT JUMPDEST PUSH1 0x0 PUSH1 0x40 MLOAD DUP1 PUSH1 0xC0 ADD PUSH1 0x40 MSTORE DUP1 DUP7 DUP2 MSTORE PUSH1 0x20 ADD DUP6 DUP2 MSTORE PUSH1 0x20 ADD DUP5 DUP2 MSTORE PUSH1 0x20 ADD DUP4 DUP2 MSTORE PUSH1 0x20 ADD CALLER PUSH20 0xFFFFFFFFFFFFFFFFFFFFFFFFFFFFFFFFFFFFFFFF AND DUP2 MSTORE PUSH1 0x20 ADD PUSH1 0x0 DUP2 MSTORE POP SWAP1 POP DUP1 PUSH1 0x2 PUSH1 0x0 CALLER PUSH20 0xFFFFFFFFFFFFFFFFFFFFFFFFFFFFFFFFFFFFFFFF AND PUSH20 0xFFFFFFFFFFFFFFFFFFFFFFFFFFFFFFFFFFFFFFFF AND DUP2 MSTORE PUSH1 0x20 ADD SWAP1 DUP2 MSTORE PUSH1 0x20 ADD PUSH1 0x0 KECCAK256 PUSH1 0x0 DUP3 ADD MLOAD DUP2 PUSH1 0x0 ADD SWAP1 DUP2 PUSH2 0x8FE SWAP2 SWAP1 PUSH2 0x1B8A JUMP JUMPDEST POP PUSH1 0x20 DUP3 ADD MLOAD DUP2 PUSH1 0x1 ADD SWAP1 DUP2 PUSH2 0x914 SWAP2 SWAP1 PUSH2 0x1B8A JUMP JUMPDEST POP PUSH1 0x40 DUP3 ADD MLOAD DUP2 PUSH1 0x2 ADD SSTORE PUSH1 0x60 DUP3 ADD MLOAD DUP2 PUSH1 0x3 ADD SWAP1 DUP2 PUSH2 0x934 SWAP2 SWAP1 PUSH2 0x1B8A JUMP JUMPDEST POP PUSH1 0x80 DUP3 ADD MLOAD DUP2 PUSH1 0x4 ADD PUSH1 0x0 PUSH2 0x100 EXP DUP2 SLOAD DUP2 PUSH20 0xFFFFFFFFFFFFFFFFFFFFFFFFFFFFFFFFFFFFFFFF MUL NOT AND SWAP1 DUP4 PUSH20 0xFFFFFFFFFFFFFFFFFFFFFFFFFFFFFFFFFFFFFFFF AND MUL OR SWAP1 SSTORE POP PUSH1 0xA0 DUP3 ADD MLOAD DUP2 PUSH1 0x5 ADD SSTORE SWAP1 POP POP POP POP POP POP POP JUMP JUMPDEST PUSH1 0x0 DUP1 DUP1 SLOAD SWAP1 POP SWAP1 POP SWAP1 JUMP JUMPDEST PUSH1 0x1 PUSH1 0x0 SWAP1 SLOAD SWAP1 PUSH2 0x100 EXP SWAP1 DIV PUSH20 0xFFFFFFFFFFFFFFFFFFFFFFFFFFFFFFFFFFFFFFFF AND DUP2 JUMP JUMPDEST PUSH1 0x2 PUSH1 0x20 MSTORE DUP1 PUSH1 0x0 MSTORE PUSH1 0x40 PUSH1 0x0 KECCAK256 PUSH1 0x0 SWAP2 POP SWAP1 POP DUP1 PUSH1 0x0 ADD DUP1 SLOAD PUSH2 0x9E5 SWAP1 PUSH2 0x18AF JUMP JUMPDEST DUP1 PUSH1 0x1F ADD PUSH1 0x20 DUP1 SWAP2 DIV MUL PUSH1 0x20 ADD PUSH1 0x40 MLOAD SWAP1 DUP2 ADD PUSH1 0x40 MSTORE DUP1 SWAP3 SWAP2 SWAP1 DUP2 DUP2 MSTORE PUSH1 0x20 ADD DUP3 DUP1 SLOAD PUSH2 0xA11 SWAP1 PUSH2 0x18AF JUMP JUMPDEST DUP1 ISZERO PUSH2 0xA5E JUMPI DUP1 PUSH1 0x1F LT PUSH2 0xA33 JUMPI PUSH2 0x100 DUP1 DUP4 SLOAD DIV MUL DUP4 MSTORE SWAP2 PUSH1 0x20 ADD SWAP2 PUSH2 0xA5E JUMP JUMPDEST DUP3 ADD SWAP2 SWAP1 PUSH1 0x0 MSTORE PUSH1 0x20 PUSH1 0x0 KECCAK256 SWAP1 JUMPDEST DUP2 SLOAD DUP2 MSTORE SWAP1 PUSH1 0x1 ADD SWAP1 PUSH1 0x20 ADD DUP1 DUP4 GT PUSH2 0xA41 JUMPI DUP3 SWAP1 SUB PUSH1 0x1F AND DUP3 ADD SWAP2 JUMPDEST POP POP POP POP POP SWAP1 DUP1 PUSH1 0x1 ADD DUP1 SLOAD PUSH2 0xA73 SWAP1 PUSH2 0x18AF JUMP JUMPDEST DUP1 PUSH1 0x1F ADD PUSH1 0x20 DUP1 SWAP2 DIV MUL PUSH1 0x20 ADD PUSH1 0x40 MLOAD SWAP1 DUP2 ADD PUSH1 0x40 MSTORE DUP1 SWAP3 SWAP2 SWAP1 DUP2 DUP2 MSTORE PUSH1 0x20 ADD DUP3 DUP1 SLOAD PUSH2 0xA9F SWAP1 PUSH2 0x18AF JUMP JUMPDEST DUP1 ISZERO PUSH2 0xAEC JUMPI DUP1 PUSH1 0x1F LT PUSH2 0xAC1 JUMPI PUSH2 0x100 DUP1 DUP4 SLOAD DIV MUL DUP4 MSTORE SWAP2 PUSH1 0x20 ADD SWAP2 PUSH2 0xAEC JUMP JUMPDEST DUP3 ADD SWAP2 SWAP1 PUSH1 0x0 MSTORE PUSH1 0x20 PUSH1 0x0 KECCAK256 SWAP1 JUMPDEST DUP2 SLOAD DUP2 MSTORE SWAP1 PUSH1 0x1 ADD SWAP1 PUSH1 0x20 ADD DUP1 DUP4 GT PUSH2 0xACF JUMPI DUP3 SWAP1 SUB PUSH1 0x1F AND DUP3 ADD SWAP2 JUMPDEST POP POP POP POP POP SWAP1 DUP1 PUSH1 0x2 ADD SLOAD SWAP1 DUP1 PUSH1 0x3 ADD DUP1 SLOAD PUSH2 0xB07 SWAP1 PUSH2 0x18AF JUMP JUMPDEST DUP1 PUSH1 0x1F ADD PUSH1 0x20 DUP1 SWAP2 DIV MUL PUSH1 0x20 ADD PUSH1 0x40 MLOAD SWAP1 DUP2 ADD PUSH1 0x40 MSTORE DUP1 SWAP3 SWAP2 SWAP1 DUP2 DUP2 MSTORE PUSH1 0x20 ADD DUP3 DUP1 SLOAD PUSH2 0xB33 SWAP1 PUSH2 0x18AF JUMP JUMPDEST DUP1 ISZERO PUSH2 0xB80 JUMPI DUP1 PUSH1 0x1F LT PUSH2 0xB55 JUMPI PUSH2 0x100 DUP1 DUP4 SLOAD DIV MUL DUP4 MSTORE SWAP2 PUSH1 0x20 ADD SWAP2 PUSH2 0xB80 JUMP JUMPDEST DUP3 ADD SWAP2 SWAP1 PUSH1 0x0 MSTORE PUSH1 0x20 PUSH1 0x0 KECCAK256 SWAP1 JUMPDEST DUP2 SLOAD DUP2 MSTORE SWAP1 PUSH1 0x1 ADD SWAP1 PUSH1 0x20 ADD DUP1 DUP4 GT PUSH2 0xB63 JUMPI DUP3 SWAP1 SUB PUSH1 0x1F AND DUP3 ADD SWAP2 JUMPDEST POP POP POP POP POP SWAP1 DUP1 PUSH1 0x4 ADD PUSH1 0x0 SWAP1 SLOAD SWAP1 PUSH2 0x100 EXP SWAP1 DIV PUSH20 0xFFFFFFFFFFFFFFFFFFFFFFFFFFFFFFFFFFFFFFFF AND SWAP1 DUP1 PUSH1 0x5 ADD SLOAD SWAP1 POP DUP7 JUMP JUMPDEST PUSH1 0x0 DUP1 SLOAD SWAP1 POP DUP2 LT PUSH2 0xBFD JUMPI PUSH1 0x40 MLOAD PUSH32 0x8C379A000000000000000000000000000000000000000000000000000000000 DUP2 MSTORE PUSH1 0x4 ADD PUSH2 0xBF4 SWAP1 PUSH2 0x1CA8 JUMP JUMPDEST PUSH1 0x40 MLOAD DUP1 SWAP2 SUB SWAP1 REVERT JUMPDEST PUSH1 0x0 DUP2 DUP2 SLOAD DUP2 LT PUSH2 0xC11 JUMPI PUSH2 0xC10 PUSH2 0x1CC8 JUMP JUMPDEST JUMPDEST SWAP1 PUSH1 0x0 MSTORE PUSH1 0x20 PUSH1 0x0 KECCAK256 SWAP1 PUSH1 0x3 MUL ADD PUSH1 0x1 ADD SLOAD CALLVALUE EQ PUSH2 0xC64 JUMPI PUSH1 0x40 MLOAD PUSH32 0x8C379A000000000000000000000000000000000000000000000000000000000 DUP2 MSTORE PUSH1 0x4 ADD PUSH2 0xC5B SWAP1 PUSH2 0x1D43 JUMP JUMPDEST PUSH1 0x40 MLOAD DUP1 SWAP2 SUB SWAP1 REVERT JUMPDEST PUSH1 0x0 DUP2 DUP2 SLOAD DUP2 LT PUSH2 0xC78 JUMPI PUSH2 0xC77 PUSH2 0x1CC8 JUMP JUMPDEST JUMPDEST SWAP1 PUSH1 0x0 MSTORE PUSH1 0x20 PUSH1 0x0 KECCAK256 SWAP1 PUSH1 0x3 MUL ADD PUSH1 0x2 ADD PUSH1 0x0 SWAP1 SLOAD SWAP1 PUSH2 0x100 EXP SWAP1 DIV PUSH1 0xFF AND ISZERO PUSH2 0xCD7 JUMPI PUSH1 0x40 MLOAD PUSH32 0x8C379A000000000000000000000000000000000000000000000000000000000 DUP2 MSTORE PUSH1 0x4 ADD PUSH2 0xCCE SWAP1 PUSH2 0x1DD5 JUMP JUMPDEST PUSH1 0x40 MLOAD DUP1 SWAP2 SUB SWAP1 REVERT JUMPDEST PUSH1 0x1 PUSH1 0x0 SWAP1 SLOAD SWAP1 PUSH2 0x100 EXP SWAP1 DIV PUSH20 0xFFFFFFFFFFFFFFFFFFFFFFFFFFFFFFFFFFFFFFFF AND PUSH20 0xFFFFFFFFFFFFFFFFFFFFFFFFFFFFFFFFFFFFFFFF AND PUSH2 0x8FC CALLVALUE SWAP1 DUP2 ISZERO MUL SWAP1 PUSH1 0x40 MLOAD PUSH1 0x0 PUSH1 0x40 MLOAD DUP1 DUP4 SUB DUP2 DUP6 DUP9 DUP9 CALL SWAP4 POP POP POP POP ISZERO DUP1 ISZERO PUSH2 0xD3F JUMPI RETURNDATASIZE PUSH1 0x0 DUP1 RETURNDATACOPY RETURNDATASIZE PUSH1 0x0 REVERT JUMPDEST POP PUSH1 0x1 PUSH1 0x0 DUP3 DUP2 SLOAD DUP2 LT PUSH2 0xD56 JUMPI PUSH2 0xD55 PUSH2 0x1CC8 JUMP JUMPDEST JUMPDEST SWAP1 PUSH1 0x0 MSTORE PUSH1 0x20 PUSH1 0x0 KECCAK256 SWAP1 PUSH1 0x3 MUL ADD PUSH1 0x2 ADD PUSH1 0x0 PUSH2 0x100 EXP DUP2 SLOAD DUP2 PUSH1 0xFF MUL NOT AND SWAP1 DUP4 ISZERO ISZERO MUL OR SWAP1 SSTORE POP PUSH32 0xD477AFAD70AA960FBBEEB73CCDDF30F5EB5DC17171B5B73736BD63754EAFFA73 DUP2 PUSH1 0x40 MLOAD PUSH2 0xDAD SWAP2 SWAP1 PUSH2 0x13E4 JUMP JUMPDEST PUSH1 0x40 MLOAD DUP1 SWAP2 SUB SWAP1 LOG1 POP JUMP JUMPDEST PUSH1 0x0 PUSH1 0x40 MLOAD DUP1 PUSH1 0x60 ADD PUSH1 0x40 MSTORE DUP1 DUP5 DUP2 MSTORE PUSH1 0x20 ADD DUP4 DUP2 MSTORE PUSH1 0x20 ADD PUSH1 0x0 ISZERO ISZERO DUP2 MSTORE POP SWAP1 DUP1 PUSH1 0x1 DUP2 SLOAD ADD DUP1 DUP3 SSTORE DUP1 SWAP2 POP POP PUSH1 0x1 SWAP1 SUB SWAP1 PUSH1 0x0 MSTORE PUSH1 0x20 PUSH1 0x0 KECCAK256 SWAP1 PUSH1 0x3 MUL ADD PUSH1 0x0 SWAP1 SWAP2 SWAP1 SWAP2 SWAP1 SWAP2 POP PUSH1 0x0 DUP3 ADD MLOAD DUP2 PUSH1 0x0 ADD SWAP1 DUP2 PUSH2 0xE16 SWAP2 SWAP1 PUSH2 0x1B8A JUMP JUMPDEST POP PUSH1 0x20 DUP3 ADD MLOAD DUP2 PUSH1 0x1 ADD SSTORE PUSH1 0x40 DUP3 ADD MLOAD DUP2 PUSH1 0x2 ADD PUSH1 0x0 PUSH2 0x100 EXP DUP2 SLOAD DUP2 PUSH1 0xFF MUL NOT AND SWAP1 DUP4 ISZERO ISZERO MUL OR SWAP1 SSTORE POP POP POP PUSH32 0xFBD2FB28DC54BECD774801659CEF1FB9F8CD42C2B8995633AB96AF3A64FEADE0 PUSH1 0x1 PUSH1 0x0 DUP1 SLOAD SWAP1 POP PUSH2 0xE76 SWAP2 SWAP1 PUSH2 0x1E24 JUMP JUMPDEST DUP4 DUP4 PUSH1 0x40 MLOAD PUSH2 0xE87 SWAP4 SWAP3 SWAP2 SWAP1 PUSH2 0x1E58 JUMP JUMPDEST PUSH1 0x40 MLOAD DUP1 SWAP2 SUB SWAP1 LOG1 POP POP JUMP JUMPDEST PUSH1 0x0 DUP2 DUP2 SLOAD DUP2 LT PUSH2 0xEA3 JUMPI PUSH1 0x0 DUP1 REVERT JUMPDEST SWAP1 PUSH1 0x0 MSTORE PUSH1 0x20 PUSH1 0x0 KECCAK256 SWAP1 PUSH1 0x3 MUL ADD PUSH1 0x0 SWAP2 POP SWAP1 POP DUP1 PUSH1 0x0 ADD DUP1 SLOAD PUSH2 0xEC6 SWAP1 PUSH2 0x18AF JUMP JUMPDEST DUP1 PUSH1 0x1F ADD PUSH1 0x20 DUP1 SWAP2 DIV MUL PUSH1 0x20 ADD PUSH1 0x40 MLOAD SWAP1 DUP2 ADD PUSH1 0x40 MSTORE DUP1 SWAP3 SWAP2 SWAP1 DUP2 DUP2 MSTORE PUSH1 0x20 ADD DUP3 DUP1 SLOAD PUSH2 0xEF2 SWAP1 PUSH2 0x18AF JUMP JUMPDEST DUP1 ISZERO PUSH2 0xF3F JUMPI DUP1 PUSH1 0x1F LT PUSH2 0xF14 JUMPI PUSH2 0x100 DUP1 DUP4 SLOAD DIV MUL DUP4 MSTORE SWAP2 PUSH1 0x20 ADD SWAP2 PUSH2 0xF3F JUMP JUMPDEST DUP3 ADD SWAP2 SWAP1 PUSH1 0x0 MSTORE PUSH1 0x20 PUSH1 0x0 KECCAK256 SWAP1 JUMPDEST DUP2 SLOAD DUP2 MSTORE SWAP1 PUSH1 0x1 ADD SWAP1 PUSH1 0x20 ADD DUP1 DUP4 GT PUSH2 0xF22 JUMPI DUP3 SWAP1 SUB PUSH1 0x1F AND DUP3 ADD SWAP2 JUMPDEST POP POP POP POP POP SWAP1 DUP1 PUSH1 0x1 ADD SLOAD SWAP1 DUP1 PUSH1 0x2 ADD PUSH1 0x0 SWAP1 SLOAD SWAP1 PUSH2 0x100 EXP SWAP1 DIV PUSH1 0xFF AND SWAP1 POP DUP4 JUMP JUMPDEST PUSH1 0x0 PUSH1 0x2 PUSH1 0x0 CALLER PUSH20 0xFFFFFFFFFFFFFFFFFFFFFFFFFFFFFFFFFFFFFFFF AND PUSH20 0xFFFFFFFFFFFFFFFFFFFFFFFFFFFFFFFFFFFFFFFF AND DUP2 MSTORE PUSH1 0x20 ADD SWAP1 DUP2 MSTORE PUSH1 0x20 ADD PUSH1 0x0 KECCAK256 PUSH1 0x40 MLOAD DUP1 PUSH1 0xC0 ADD PUSH1 0x40 MSTORE SWAP1 DUP2 PUSH1 0x0 DUP3 ADD DUP1 SLOAD PUSH2 0xFBE SWAP1 PUSH2 0x18AF JUMP JUMPDEST DUP1 PUSH1 0x1F ADD PUSH1 0x20 DUP1 SWAP2 DIV MUL PUSH1 0x20 ADD PUSH1 0x40 MLOAD SWAP1 DUP2 ADD PUSH1 0x40 MSTORE DUP1 SWAP3 SWAP2 SWAP1 DUP2 DUP2 MSTORE PUSH1 0x20 ADD DUP3 DUP1 SLOAD PUSH2 0xFEA SWAP1 PUSH2 0x18AF JUMP JUMPDEST DUP1 ISZERO PUSH2 0x1037 JUMPI DUP1 PUSH1 0x1F LT PUSH2 0x100C JUMPI PUSH2 0x100 DUP1 DUP4 SLOAD DIV MUL DUP4 MSTORE SWAP2 PUSH1 0x20 ADD SWAP2 PUSH2 0x1037 JUMP JUMPDEST DUP3 ADD SWAP2 SWAP1 PUSH1 0x0 MSTORE PUSH1 0x20 PUSH1 0x0 KECCAK256 SWAP1 JUMPDEST DUP2 SLOAD DUP2 MSTORE SWAP1 PUSH1 0x1 ADD SWAP1 PUSH1 0x20 ADD DUP1 DUP4 GT PUSH2 0x101A JUMPI DUP3 SWAP1 SUB PUSH1 0x1F AND DUP3 ADD SWAP2 JUMPDEST POP POP POP POP POP DUP2 MSTORE PUSH1 0x20 ADD PUSH1 0x1 DUP3 ADD DUP1 SLOAD PUSH2 0x1050 SWAP1 PUSH2 0x18AF JUMP JUMPDEST DUP1 PUSH1 0x1F ADD PUSH1 0x20 DUP1 SWAP2 DIV MUL PUSH1 0x20 ADD PUSH1 0x40 MLOAD SWAP1 DUP2 ADD PUSH1 0x40 MSTORE DUP1 SWAP3 SWAP2 SWAP1 DUP2 DUP2 MSTORE PUSH1 0x20 ADD DUP3 DUP1 SLOAD PUSH2 0x107C SWAP1 PUSH2 0x18AF JUMP JUMPDEST DUP1 ISZERO PUSH2 0x10C9 JUMPI DUP1 PUSH1 0x1F LT PUSH2 0x109E JUMPI PUSH2 0x100 DUP1 DUP4 SLOAD DIV MUL DUP4 MSTORE SWAP2 PUSH1 0x20 ADD SWAP2 PUSH2 0x10C9 JUMP JUMPDEST DUP3 ADD SWAP2 SWAP1 PUSH1 0x0 MSTORE PUSH1 0x20 PUSH1 0x0 KECCAK256 SWAP1 JUMPDEST DUP2 SLOAD DUP2 MSTORE SWAP1 PUSH1 0x1 ADD SWAP1 PUSH1 0x20 ADD DUP1 DUP4 GT PUSH2 0x10AC JUMPI DUP3 SWAP1 SUB PUSH1 0x1F AND DUP3 ADD SWAP2 JUMPDEST POP POP POP POP POP DUP2 MSTORE PUSH1 0x20 ADD PUSH1 0x2 DUP3 ADD SLOAD DUP2 MSTORE PUSH1 0x20 ADD PUSH1 0x3 DUP3 ADD DUP1 SLOAD PUSH2 0x10EC SWAP1 PUSH2 0x18AF JUMP JUMPDEST DUP1 PUSH1 0x1F ADD PUSH1 0x20 DUP1 SWAP2 DIV MUL PUSH1 0x20 ADD PUSH1 0x40 MLOAD SWAP1 DUP2 ADD PUSH1 0x40 MSTORE DUP1 SWAP3 SWAP2 SWAP1 DUP2 DUP2 MSTORE PUSH1 0x20 ADD DUP3 DUP1 SLOAD PUSH2 0x1118 SWAP1 PUSH2 0x18AF JUMP JUMPDEST DUP1 ISZERO PUSH2 0x1165 JUMPI DUP1 PUSH1 0x1F LT PUSH2 0x113A JUMPI PUSH2 0x100 DUP1 DUP4 SLOAD DIV MUL DUP4 MSTORE SWAP2 PUSH1 0x20 ADD SWAP2 PUSH2 0x1165 JUMP JUMPDEST DUP3 ADD SWAP2 SWAP1 PUSH1 0x0 MSTORE PUSH1 0x20 PUSH1 0x0 KECCAK256 SWAP1 JUMPDEST DUP2 SLOAD DUP2 MSTORE SWAP1 PUSH1 0x1 ADD SWAP1 PUSH1 0x20 ADD DUP1 DUP4 GT PUSH2 0x1148 JUMPI DUP3 SWAP1 SUB PUSH1 0x1F AND DUP3 ADD SWAP2 JUMPDEST POP POP POP POP POP DUP2 MSTORE PUSH1 0x20 ADD PUSH1 0x4 DUP3 ADD PUSH1 0x0 SWAP1 SLOAD SWAP1 PUSH2 0x100 EXP SWAP1 DIV PUSH20 0xFFFFFFFFFFFFFFFFFFFFFFFFFFFFFFFFFFFFFFFF AND PUSH20 0xFFFFFFFFFFFFFFFFFFFFFFFFFFFFFFFFFFFFFFFF AND PUSH20 0xFFFFFFFFFFFFFFFFFFFFFFFFFFFFFFFFFFFFFFFF AND DUP2 MSTORE PUSH1 0x20 ADD PUSH1 0x5 DUP3 ADD SLOAD DUP2 MSTORE POP POP SWAP1 POP DUP1 PUSH1 0x80 ADD MLOAD PUSH20 0xFFFFFFFFFFFFFFFFFFFFFFFFFFFFFFFFFFFFFFFF AND CALLER PUSH20 0xFFFFFFFFFFFFFFFFFFFFFFFFFFFFFFFFFFFFFFFF AND EQ PUSH2 0x1242 JUMPI PUSH1 0x40 MLOAD PUSH32 0x8C379A000000000000000000000000000000000000000000000000000000000 DUP2 MSTORE PUSH1 0x4 ADD PUSH2 0x1239 SWAP1 PUSH2 0x1EE2 JUMP JUMPDEST PUSH1 0x40 MLOAD DUP1 SWAP2 SUB SWAP1 REVERT JUMPDEST DUP2 DUP2 PUSH1 0x80 ADD SWAP1 PUSH20 0xFFFFFFFFFFFFFFFFFFFFFFFFFFFFFFFFFFFFFFFF AND SWAP1 DUP2 PUSH20 0xFFFFFFFFFFFFFFFFFFFFFFFFFFFFFFFFFFFFFFFF AND DUP2 MSTORE POP POP DUP1 PUSH1 0x2 PUSH1 0x0 DUP5 PUSH20 0xFFFFFFFFFFFFFFFFFFFFFFFFFFFFFFFFFFFFFFFF AND PUSH20 0xFFFFFFFFFFFFFFFFFFFFFFFFFFFFFFFFFFFFFFFF AND DUP2 MSTORE PUSH1 0x20 ADD SWAP1 DUP2 MSTORE PUSH1 0x20 ADD PUSH1 0x0 KECCAK256 PUSH1 0x0 DUP3 ADD MLOAD DUP2 PUSH1 0x0 ADD SWAP1 DUP2 PUSH2 0x12CF SWAP2 SWAP1 PUSH2 0x1B8A JUMP JUMPDEST POP PUSH1 0x20 DUP3 ADD MLOAD DUP2 PUSH1 0x1 ADD SWAP1 DUP2 PUSH2 0x12E5 SWAP2 SWAP1 PUSH2 0x1B8A JUMP JUMPDEST POP PUSH1 0x40 DUP3 ADD MLOAD DUP2 PUSH1 0x2 ADD SSTORE PUSH1 0x60 DUP3 ADD MLOAD DUP2 PUSH1 0x3 ADD SWAP1 DUP2 PUSH2 0x1305 SWAP2 SWAP1 PUSH2 0x1B8A JUMP JUMPDEST POP PUSH1 0x80 DUP3 ADD MLOAD DUP2 PUSH1 0x4 ADD PUSH1 0x0 PUSH2 0x100 EXP DUP2 SLOAD DUP2 PUSH20 0xFFFFFFFFFFFFFFFFFFFFFFFFFFFFFFFFFFFFFFFF MUL NOT AND SWAP1 DUP4 PUSH20 0xFFFFFFFFFFFFFFFFFFFFFFFFFFFFFFFFFFFFFFFF AND MUL OR SWAP1 SSTORE POP PUSH1 0xA0 DUP3 ADD MLOAD DUP2 PUSH1 0x5 ADD SSTORE SWAP1 POP POP POP POP JUMP JUMPDEST PUSH1 0x0 PUSH1 0x40 MLOAD SWAP1 POP SWAP1 JUMP JUMPDEST PUSH1 0x0 DUP1 REVERT JUMPDEST PUSH1 0x0 DUP1 REVERT JUMPDEST PUSH1 0x0 DUP2 SWAP1 POP SWAP2 SWAP1 POP JUMP JUMPDEST PUSH2 0x1385 DUP2 PUSH2 0x1372 JUMP JUMPDEST DUP2 EQ PUSH2 0x1390 JUMPI PUSH1 0x0 DUP1 REVERT JUMPDEST POP JUMP JUMPDEST PUSH1 0x0 DUP2 CALLDATALOAD SWAP1 POP PUSH2 0x13A2 DUP2 PUSH2 0x137C JUMP JUMPDEST SWAP3 SWAP2 POP POP JUMP JUMPDEST PUSH1 0x0 PUSH1 0x20 DUP3 DUP5 SUB SLT ISZERO PUSH2 0x13BE JUMPI PUSH2 0x13BD PUSH2 0x1368 JUMP JUMPDEST JUMPDEST PUSH1 0x0 PUSH2 0x13CC DUP5 DUP3 DUP6 ADD PUSH2 0x1393 JUMP JUMPDEST SWAP2 POP POP SWAP3 SWAP2 POP POP JUMP JUMPDEST PUSH2 0x13DE DUP2 PUSH2 0x1372 JUMP JUMPDEST DUP3 MSTORE POP POP JUMP JUMPDEST PUSH1 0x0 PUSH1 0x20 DUP3 ADD SWAP1 POP PUSH2 0x13F9 PUSH1 0x0 DUP4 ADD DUP5 PUSH2 0x13D5 JUMP JUMPDEST SWAP3 SWAP2 POP POP JUMP JUMPDEST PUSH1 0x0 DUP1 REVERT JUMPDEST PUSH1 0x0 DUP1 REVERT JUMPDEST PUSH1 0x0 PUSH1 0x1F NOT PUSH1 0x1F DUP4 ADD AND SWAP1 POP SWAP2 SWAP1 POP JUMP JUMPDEST PUSH32 0x4E487B7100000000000000000000000000000000000000000000000000000000 PUSH1 0x0 MSTORE PUSH1 0x41 PUSH1 0x4 MSTORE PUSH1 0x24 PUSH1 0x0 REVERT JUMPDEST PUSH2 0x1452 DUP3 PUSH2 0x1409 JUMP JUMPDEST DUP2 ADD DUP2 DUP2 LT PUSH8 0xFFFFFFFFFFFFFFFF DUP3 GT OR ISZERO PUSH2 0x1471 JUMPI PUSH2 0x1470 PUSH2 0x141A JUMP JUMPDEST JUMPDEST DUP1 PUSH1 0x40 MSTORE POP POP POP JUMP JUMPDEST PUSH1 0x0 PUSH2 0x1484 PUSH2 0x135E JUMP JUMPDEST SWAP1 POP PUSH2 0x1490 DUP3 DUP3 PUSH2 0x1449 JUMP JUMPDEST SWAP2 SWAP1 POP JUMP JUMPDEST PUSH1 0x0 PUSH8 0xFFFFFFFFFFFFFFFF DUP3 GT ISZERO PUSH2 0x14B0 JUMPI PUSH2 0x14AF PUSH2 0x141A JUMP JUMPDEST JUMPDEST PUSH2 0x14B9 DUP3 PUSH2 0x1409 JUMP JUMPDEST SWAP1 POP PUSH1 0x20 DUP2 ADD SWAP1 POP SWAP2 SWAP1 POP JUMP JUMPDEST DUP3 DUP2 DUP4 CALLDATACOPY PUSH1 0x0 DUP4 DUP4 ADD MSTORE POP POP POP JUMP JUMPDEST PUSH1 0x0 PUSH2 0x14E8 PUSH2 0x14E3 DUP5 PUSH2 0x1495 JUMP JUMPDEST PUSH2 0x147A JUMP JUMPDEST SWAP1 POP DUP3 DUP2 MSTORE PUSH1 0x20 DUP2 ADD DUP5 DUP5 DUP5 ADD GT ISZERO PUSH2 0x1504 JUMPI PUSH2 0x1503 PUSH2 0x1404 JUMP JUMPDEST JUMPDEST PUSH2 0x150F DUP5 DUP3 DUP6 PUSH2 0x14C6 JUMP JUMPDEST POP SWAP4 SWAP3 POP POP POP JUMP JUMPDEST PUSH1 0x0 DUP3 PUSH1 0x1F DUP4 ADD SLT PUSH2 0x152C JUMPI PUSH2 0x152B PUSH2 0x13FF JUMP JUMPDEST JUMPDEST DUP2 CALLDATALOAD PUSH2 0x153C DUP5 DUP3 PUSH1 0x20 DUP7 ADD PUSH2 0x14D5 JUMP JUMPDEST SWAP2 POP POP SWAP3 SWAP2 POP POP JUMP JUMPDEST PUSH1 0x0 DUP1 PUSH1 0x0 DUP1 PUSH1 0x80 DUP6 DUP8 SUB SLT ISZERO PUSH2 0x155F JUMPI PUSH2 0x155E PUSH2 0x1368 JUMP JUMPDEST JUMPDEST PUSH1 0x0 DUP6 ADD CALLDATALOAD PUSH8 0xFFFFFFFFFFFFFFFF DUP2 GT ISZERO PUSH2 0x157D JUMPI PUSH2 0x157C PUSH2 0x136D JUMP JUMPDEST JUMPDEST PUSH2 0x1589 DUP8 DUP3 DUP9 ADD PUSH2 0x1517 JUMP JUMPDEST SWAP5 POP POP PUSH1 0x20 DUP6 ADD CALLDATALOAD PUSH8 0xFFFFFFFFFFFFFFFF DUP2 GT ISZERO PUSH2 0x15AA JUMPI PUSH2 0x15A9 PUSH2 0x136D JUMP JUMPDEST JUMPDEST PUSH2 0x15B6 DUP8 DUP3 DUP9 ADD PUSH2 0x1517 JUMP JUMPDEST SWAP4 POP POP PUSH1 0x40 PUSH2 0x15C7 DUP8 DUP3 DUP9 ADD PUSH2 0x1393 JUMP JUMPDEST SWAP3 POP POP PUSH1 0x60 DUP6 ADD CALLDATALOAD PUSH8 0xFFFFFFFFFFFFFFFF DUP2 GT ISZERO PUSH2 0x15E8 JUMPI PUSH2 0x15E7 PUSH2 0x136D JUMP JUMPDEST JUMPDEST PUSH2 0x15F4 DUP8 DUP3 DUP9 ADD PUSH2 0x1517 JUMP JUMPDEST SWAP2 POP POP SWAP3 SWAP6 SWAP2 SWAP5 POP SWAP3 POP JUMP JUMPDEST PUSH1 0x0 PUSH20 0xFFFFFFFFFFFFFFFFFFFFFFFFFFFFFFFFFFFFFFFF DUP3 AND SWAP1 POP SWAP2 SWAP1 POP JUMP JUMPDEST PUSH1 0x0 PUSH2 0x162B DUP3 PUSH2 0x1600 JUMP JUMPDEST SWAP1 POP SWAP2 SWAP1 POP JUMP JUMPDEST PUSH2 0x163B DUP2 PUSH2 0x1620 JUMP JUMPDEST DUP3 MSTORE POP POP JUMP JUMPDEST PUSH1 0x0 PUSH1 0x20 DUP3 ADD SWAP1 POP PUSH2 0x1656 PUSH1 0x0 DUP4 ADD DUP5 PUSH2 0x1632 JUMP JUMPDEST SWAP3 SWAP2 POP POP JUMP JUMPDEST PUSH1 0x0 PUSH2 0x1667 DUP3 PUSH2 0x1600 JUMP JUMPDEST SWAP1 POP SWAP2 SWAP1 POP JUMP JUMPDEST PUSH2 0x1677 DUP2 PUSH2 0x165C JUMP JUMPDEST DUP2 EQ PUSH2 0x1682 JUMPI PUSH1 0x0 DUP1 REVERT JUMPDEST POP JUMP JUMPDEST PUSH1 0x0 DUP2 CALLDATALOAD SWAP1 POP PUSH2 0x1694 DUP2 PUSH2 0x166E JUMP JUMPDEST SWAP3 SWAP2 POP POP JUMP JUMPDEST PUSH1 0x0 PUSH1 0x20 DUP3 DUP5 SUB SLT ISZERO PUSH2 0x16B0 JUMPI PUSH2 0x16AF PUSH2 0x1368 JUMP JUMPDEST JUMPDEST PUSH1 0x0 PUSH2 0x16BE DUP5 DUP3 DUP6 ADD PUSH2 0x1685 JUMP JUMPDEST SWAP2 POP POP SWAP3 SWAP2 POP POP JUMP JUMPDEST PUSH1 0x0 DUP2 MLOAD SWAP1 POP SWAP2 SWAP1 POP JUMP JUMPDEST PUSH1 0x0 DUP3 DUP3 MSTORE PUSH1 0x20 DUP3 ADD SWAP1 POP SWAP3 SWAP2 POP POP JUMP JUMPDEST PUSH1 0x0 JUMPDEST DUP4 DUP2 LT ISZERO PUSH2 0x1701 JUMPI DUP1 DUP3 ADD MLOAD DUP2 DUP5 ADD MSTORE PUSH1 0x20 DUP2 ADD SWAP1 POP PUSH2 0x16E6 JUMP JUMPDEST PUSH1 0x0 DUP5 DUP5 ADD MSTORE POP POP POP POP JUMP JUMPDEST PUSH1 0x0 PUSH2 0x1718 DUP3 PUSH2 0x16C7 JUMP JUMPDEST PUSH2 0x1722 DUP2 DUP6 PUSH2 0x16D2 JUMP JUMPDEST SWAP4 POP PUSH2 0x1732 DUP2 DUP6 PUSH1 0x20 DUP7 ADD PUSH2 0x16E3 JUMP JUMPDEST PUSH2 0x173B DUP2 PUSH2 0x1409 JUMP JUMPDEST DUP5 ADD SWAP2 POP POP SWAP3 SWAP2 POP POP JUMP JUMPDEST PUSH2 0x174F DUP2 PUSH2 0x165C JUMP JUMPDEST DUP3 MSTORE POP POP JUMP JUMPDEST PUSH1 0x0 PUSH1 0xC0 DUP3 ADD SWAP1 POP DUP2 DUP2 SUB PUSH1 0x0 DUP4 ADD MSTORE PUSH2 0x176F DUP2 DUP10 PUSH2 0x170D JUMP JUMPDEST SWAP1 POP DUP2 DUP2 SUB PUSH1 0x20 DUP4 ADD MSTORE PUSH2 0x1783 DUP2 DUP9 PUSH2 0x170D JUMP JUMPDEST SWAP1 POP PUSH2 0x1792 PUSH1 0x40 DUP4 ADD DUP8 PUSH2 0x13D5 JUMP JUMPDEST DUP2 DUP2 SUB PUSH1 0x60 DUP4 ADD MSTORE PUSH2 0x17A4 DUP2 DUP7 PUSH2 0x170D JUMP JUMPDEST SWAP1 POP PUSH2 0x17B3 PUSH1 0x80 DUP4 ADD DUP6 PUSH2 0x1746 JUMP JUMPDEST PUSH2 0x17C0 PUSH1 0xA0 DUP4 ADD DUP5 PUSH2 0x13D5 JUMP JUMPDEST SWAP8 SWAP7 POP POP POP POP POP POP POP JUMP JUMPDEST PUSH1 0x0 DUP1 PUSH1 0x40 DUP4 DUP6 SUB SLT ISZERO PUSH2 0x17E2 JUMPI PUSH2 0x17E1 PUSH2 0x1368 JUMP JUMPDEST JUMPDEST PUSH1 0x0 DUP4 ADD CALLDATALOAD PUSH8 0xFFFFFFFFFFFFFFFF DUP2 GT ISZERO PUSH2 0x1800 JUMPI PUSH2 0x17FF PUSH2 0x136D JUMP JUMPDEST JUMPDEST PUSH2 0x180C DUP6 DUP3 DUP7 ADD PUSH2 0x1517 JUMP JUMPDEST SWAP3 POP POP PUSH1 0x20 PUSH2 0x181D DUP6 DUP3 DUP7 ADD PUSH2 0x1393 JUMP JUMPDEST SWAP2 POP POP SWAP3 POP SWAP3 SWAP1 POP JUMP JUMPDEST PUSH1 0x0 DUP2 ISZERO ISZERO SWAP1 POP SWAP2 SWAP1 POP JUMP JUMPDEST PUSH2 0x183C DUP2 PUSH2 0x1827 JUMP JUMPDEST DUP3 MSTORE POP POP JUMP JUMPDEST PUSH1 0x0 PUSH1 0x60 DUP3 ADD SWAP1 POP DUP2 DUP2 SUB PUSH1 0x0 DUP4 ADD MSTORE PUSH2 0x185C DUP2 DUP7 PUSH2 0x170D JUMP JUMPDEST SWAP1 POP PUSH2 0x186B PUSH1 0x20 DUP4 ADD DUP6 PUSH2 0x13D5 JUMP JUMPDEST PUSH2 0x1878 PUSH1 0x40 DUP4 ADD DUP5 PUSH2 0x1833 JUMP JUMPDEST SWAP5 SWAP4 POP POP POP POP JUMP JUMPDEST PUSH32 0x4E487B7100000000000000000000000000000000000000000000000000000000 PUSH1 0x0 MSTORE PUSH1 0x22 PUSH1 0x4 MSTORE PUSH1 0x24 PUSH1 0x0 REVERT JUMPDEST PUSH1 0x0 PUSH1 0x2 DUP3 DIV SWAP1 POP PUSH1 0x1 DUP3 AND DUP1 PUSH2 0x18C7 JUMPI PUSH1 0x7F DUP3 AND SWAP2 POP JUMPDEST PUSH1 0x20 DUP3 LT DUP2 SUB PUSH2 0x18DA JUMPI PUSH2 0x18D9 PUSH2 0x1880 JUMP JUMPDEST JUMPDEST POP SWAP2 SWAP1 POP JUMP JUMPDEST PUSH32 0x5365727669636520646174652063616E6E6F7420626520696E20746865207061 PUSH1 0x0 DUP3 ADD MSTORE PUSH32 0x7374000000000000000000000000000000000000000000000000000000000000 PUSH1 0x20 DUP3 ADD MSTORE POP JUMP JUMPDEST PUSH1 0x0 PUSH2 0x193C PUSH1 0x22 DUP4 PUSH2 0x16D2 JUMP JUMPDEST SWAP2 POP PUSH2 0x1947 DUP3 PUSH2 0x18E0 JUMP JUMPDEST PUSH1 0x40 DUP3 ADD SWAP1 POP SWAP2 SWAP1 POP JUMP JUMPDEST PUSH1 0x0 PUSH1 0x20 DUP3 ADD SWAP1 POP DUP2 DUP2 SUB PUSH1 0x0 DUP4 ADD MSTORE PUSH2 0x196B DUP2 PUSH2 0x192F JUMP JUMPDEST SWAP1 POP SWAP2 SWAP1 POP JUMP JUMPDEST PUSH32 0x43617220697320616C7265616479207265676973746572656400000000000000 PUSH1 0x0 DUP3 ADD MSTORE POP JUMP JUMPDEST PUSH1 0x0 PUSH2 0x19A8 PUSH1 0x19 DUP4 PUSH2 0x16D2 JUMP JUMPDEST SWAP2 POP PUSH2 0x19B3 DUP3 PUSH2 0x1972 JUMP JUMPDEST PUSH1 0x20 DUP3 ADD SWAP1 POP SWAP2 SWAP1 POP JUMP JUMPDEST PUSH1 0x0 PUSH1 0x20 DUP3 ADD SWAP1 POP DUP2 DUP2 SUB PUSH1 0x0 DUP4 ADD MSTORE PUSH2 0x19D7 DUP2 PUSH2 0x199B JUMP JUMPDEST SWAP1 POP SWAP2 SWAP1 POP JUMP JUMPDEST PUSH1 0x0 DUP2 SWAP1 POP DUP2 PUSH1 0x0 MSTORE PUSH1 0x20 PUSH1 0x0 KECCAK256 SWAP1 POP SWAP2 SWAP1 POP JUMP JUMPDEST PUSH1 0x0 PUSH1 0x20 PUSH1 0x1F DUP4 ADD DIV SWAP1 POP SWAP2 SWAP1 POP JUMP JUMPDEST PUSH1 0x0 DUP3 DUP3 SHL SWAP1 POP SWAP3 SWAP2 POP POP JUMP JUMPDEST PUSH1 0x0 PUSH1 0x8 DUP4 MUL PUSH2 0x1A40 PUSH32 0xFFFFFFFFFFFFFFFFFFFFFFFFFFFFFFFFFFFFFFFFFFFFFFFFFFFFFFFFFFFFFFFF DUP3 PUSH2 0x1A03 JUMP JUMPDEST PUSH2 0x1A4A DUP7 DUP4 PUSH2 0x1A03 JUMP JUMPDEST SWAP6 POP DUP1 NOT DUP5 AND SWAP4 POP DUP1 DUP7 AND DUP5 OR SWAP3 POP POP POP SWAP4 SWAP3 POP POP POP JUMP JUMPDEST PUSH1 0x0 DUP2 SWAP1 POP SWAP2 SWAP1 POP JUMP JUMPDEST PUSH1 0x0 PUSH2 0x1A87 PUSH2 0x1A82 PUSH2 0x1A7D DUP5 PUSH2 0x1372 JUMP JUMPDEST PUSH2 0x1A62 JUMP JUMPDEST PUSH2 0x1372 JUMP JUMPDEST SWAP1 POP SWAP2 SWAP1 POP JUMP JUMPDEST PUSH1 0x0 DUP2 SWAP1 POP SWAP2 SWAP1 POP JUMP JUMPDEST PUSH2 0x1AA1 DUP4 PUSH2 0x1A6C JUMP JUMPDEST PUSH2 0x1AB5 PUSH2 0x1AAD DUP3 PUSH2 0x1A8E JUMP JUMPDEST DUP5 DUP5 SLOAD PUSH2 0x1A10 JUMP JUMPDEST DUP3 SSTORE POP POP POP POP JUMP JUMPDEST PUSH1 0x0 SWAP1 JUMP JUMPDEST PUSH2 0x1ACA PUSH2 0x1ABD JUMP JUMPDEST PUSH2 0x1AD5 DUP2 DUP5 DUP5 PUSH2 0x1A98 JUMP JUMPDEST POP POP POP JUMP JUMPDEST JUMPDEST DUP2 DUP2 LT ISZERO PUSH2 0x1AF9 JUMPI PUSH2 0x1AEE PUSH1 0x0 DUP3 PUSH2 0x1AC2 JUMP JUMPDEST PUSH1 0x1 DUP2 ADD SWAP1 POP PUSH2 0x1ADB JUMP JUMPDEST POP POP JUMP JUMPDEST PUSH1 0x1F DUP3 GT ISZERO PUSH2 0x1B3E JUMPI PUSH2 0x1B0F DUP2 PUSH2 0x19DE JUMP JUMPDEST PUSH2 0x1B18 DUP5 PUSH2 0x19F3 JUMP JUMPDEST DUP2 ADD PUSH1 0x20 DUP6 LT ISZERO PUSH2 0x1B27 JUMPI DUP2 SWAP1 POP JUMPDEST PUSH2 0x1B3B PUSH2 0x1B33 DUP6 PUSH2 0x19F3 JUMP JUMPDEST DUP4 ADD DUP3 PUSH2 0x1ADA JUMP JUMPDEST POP POP JUMPDEST POP POP POP JUMP JUMPDEST PUSH1 0x0 DUP3 DUP3 SHR SWAP1 POP SWAP3 SWAP2 POP POP JUMP JUMPDEST PUSH1 0x0 PUSH2 0x1B61 PUSH1 0x0 NOT DUP5 PUSH1 0x8 MUL PUSH2 0x1B43 JUMP JUMPDEST NOT DUP1 DUP4 AND SWAP2 POP POP SWAP3 SWAP2 POP POP JUMP JUMPDEST PUSH1 0x0 PUSH2 0x1B7A DUP4 DUP4 PUSH2 0x1B50 JUMP JUMPDEST SWAP2 POP DUP3 PUSH1 0x2 MUL DUP3 OR SWAP1 POP SWAP3 SWAP2 POP POP JUMP JUMPDEST PUSH2 0x1B93 DUP3 PUSH2 0x16C7 JUMP JUMPDEST PUSH8 0xFFFFFFFFFFFFFFFF DUP2 GT ISZERO PUSH2 0x1BAC JUMPI PUSH2 0x1BAB PUSH2 0x141A JUMP JUMPDEST JUMPDEST PUSH2 0x1BB6 DUP3 SLOAD PUSH2 0x18AF JUMP JUMPDEST PUSH2 0x1BC1 DUP3 DUP3 DUP6 PUSH2 0x1AFD JUMP JUMPDEST PUSH1 0x0 PUSH1 0x20 SWAP1 POP PUSH1 0x1F DUP4 GT PUSH1 0x1 DUP2 EQ PUSH2 0x1BF4 JUMPI PUSH1 0x0 DUP5 ISZERO PUSH2 0x1BE2 JUMPI DUP3 DUP8 ADD MLOAD SWAP1 POP JUMPDEST PUSH2 0x1BEC DUP6 DUP3 PUSH2 0x1B6E JUMP JUMPDEST DUP7 SSTORE POP PUSH2 0x1C54 JUMP JUMPDEST PUSH1 0x1F NOT DUP5 AND PUSH2 0x1C02 DUP7 PUSH2 0x19DE JUMP JUMPDEST PUSH1 0x0 JUMPDEST DUP3 DUP2 LT ISZERO PUSH2 0x1C2A JUMPI DUP5 DUP10 ADD MLOAD DUP3 SSTORE PUSH1 0x1 DUP3 ADD SWAP2 POP PUSH1 0x20 DUP6 ADD SWAP5 POP PUSH1 0x20 DUP2 ADD SWAP1 POP PUSH2 0x1C05 JUMP JUMPDEST DUP7 DUP4 LT ISZERO PUSH2 0x1C47 JUMPI DUP5 DUP10 ADD MLOAD PUSH2 0x1C43 PUSH1 0x1F DUP10 AND DUP3 PUSH2 0x1B50 JUMP JUMPDEST DUP4 SSTORE POP JUMPDEST PUSH1 0x1 PUSH1 0x2 DUP9 MUL ADD DUP9 SSTORE POP POP POP JUMPDEST POP POP POP POP POP POP JUMP JUMPDEST PUSH32 0x496E76616C696420726570616972204944000000000000000000000000000000 PUSH1 0x0 DUP3 ADD MSTORE POP JUMP JUMPDEST PUSH1 0x0 PUSH2 0x1C92 PUSH1 0x11 DUP4 PUSH2 0x16D2 JUMP JUMPDEST SWAP2 POP PUSH2 0x1C9D DUP3 PUSH2 0x1C5C JUMP JUMPDEST PUSH1 0x20 DUP3 ADD SWAP1 POP SWAP2 SWAP1 POP JUMP JUMPDEST PUSH1 0x0 PUSH1 0x20 DUP3 ADD SWAP1 POP DUP2 DUP2 SUB PUSH1 0x0 DUP4 ADD MSTORE PUSH2 0x1CC1 DUP2 PUSH2 0x1C85 JUMP JUMPDEST SWAP1 POP SWAP2 SWAP1 POP JUMP JUMPDEST PUSH32 0x4E487B7100000000000000000000000000000000000000000000000000000000 PUSH1 0x0 MSTORE PUSH1 0x32 PUSH1 0x4 MSTORE PUSH1 0x24 PUSH1 0x0 REVERT JUMPDEST PUSH32 0x496E636F7272656374207061796D656E7420616D6F756E740000000000000000 PUSH1 0x0 DUP3 ADD MSTORE POP JUMP JUMPDEST PUSH1 0x0 PUSH2 0x1D2D PUSH1 0x18 DUP4 PUSH2 0x16D2 JUMP JUMPDEST SWAP2 POP PUSH2 0x1D38 DUP3 PUSH2 0x1CF7 JUMP JUMPDEST PUSH1 0x20 DUP3 ADD SWAP1 POP SWAP2 SWAP1 POP JUMP JUMPDEST PUSH1 0x0 PUSH1 0x20 DUP3 ADD SWAP1 POP DUP2 DUP2 SUB PUSH1 0x0 DUP4 ADD MSTORE PUSH2 0x1D5C DUP2 PUSH2 0x1D20 JUMP JUMPDEST SWAP1 POP SWAP2 SWAP1 POP JUMP JUMPDEST PUSH32 0x54686973207265706169722068617320616C7265616479206265656E20706169 PUSH1 0x0 DUP3 ADD MSTORE PUSH32 0x6400000000000000000000000000000000000000000000000000000000000000 PUSH1 0x20 DUP3 ADD MSTORE POP JUMP JUMPDEST PUSH1 0x0 PUSH2 0x1DBF PUSH1 0x21 DUP4 PUSH2 0x16D2 JUMP JUMPDEST SWAP2 POP PUSH2 0x1DCA DUP3 PUSH2 0x1D63 JUMP JUMPDEST PUSH1 0x40 DUP3 ADD SWAP1 POP SWAP2 SWAP1 POP JUMP JUMPDEST PUSH1 0x0 PUSH1 0x20 DUP3 ADD SWAP1 POP DUP2 DUP2 SUB PUSH1 0x0 DUP4 ADD MSTORE PUSH2 0x1DEE DUP2 PUSH2 0x1DB2 JUMP JUMPDEST SWAP1 POP SWAP2 SWAP1 POP JUMP JUMPDEST PUSH32 0x4E487B7100000000000000000000000000000000000000000000000000000000 PUSH1 0x0 MSTORE PUSH1 0x11 PUSH1 0x4 MSTORE PUSH1 0x24 PUSH1 0x0 REVERT JUMPDEST PUSH1 0x0 PUSH2 0x1E2F DUP3 PUSH2 0x1372 JUMP JUMPDEST SWAP2 POP PUSH2 0x1E3A DUP4 PUSH2 0x1372 JUMP JUMPDEST SWAP3 POP DUP3 DUP3 SUB SWAP1 POP DUP2 DUP2 GT ISZERO PUSH2 0x1E52 JUMPI PUSH2 0x1E51 PUSH2 0x1DF5 JUMP JUMPDEST JUMPDEST SWAP3 SWAP2 POP POP JUMP JUMPDEST PUSH1 0x0 PUSH1 0x60 DUP3 ADD SWAP1 POP PUSH2 0x1E6D PUSH1 0x0 DUP4 ADD DUP7 PUSH2 0x13D5 JUMP JUMPDEST DUP2 DUP2 SUB PUSH1 0x20 DUP4 ADD MSTORE PUSH2 0x1E7F DUP2 DUP6 PUSH2 0x170D JUMP JUMPDEST SWAP1 POP PUSH2 0x1E8E PUSH1 0x40 DUP4 ADD DUP5 PUSH2 0x13D5 JUMP JUMPDEST SWAP5 SWAP4 POP POP POP POP JUMP JUMPDEST PUSH32 0x596F7520617265206E6F7420746865206F776E6572206F662074686520636172 PUSH1 0x0 DUP3 ADD MSTORE POP JUMP JUMPDEST PUSH1 0x0 PUSH2 0x1ECC PUSH1 0x20 DUP4 PUSH2 0x16D2 JUMP JUMPDEST SWAP2 POP PUSH2 0x1ED7 DUP3 PUSH2 0x1E96 JUMP JUMPDEST PUSH1 0x20 DUP3 ADD SWAP1 POP SWAP2 SWAP1 POP JUMP JUMPDEST PUSH1 0x0 PUSH1 0x20 DUP3 ADD SWAP1 POP DUP2 DUP2 SUB PUSH1 0x0 DUP4 ADD MSTORE PUSH2 0x1EFB DUP2 PUSH2 0x1EBF JUMP JUMPDEST SWAP1 POP SWAP2 SWAP1 POP JUMP INVALID LOG2 PUSH5 0x6970667358 0x22 SLT KECCAK256 0x27 0xD7 0x2B 0xED ADDMOD 0xCD SUB 0xCE 0x2A 0x28 LT PUSH26 0x8A1A9DA8154A200694EBD2A361722253884007B864736F6C6343 STOP ADDMOD SLT STOP CALLER "
				},
				"gasEstimates": {
					"creation": {
						"codeDepositCost": "1598400",
						"executionCost": "infinite",
						"totalCost": "infinite"
					},
					"external": {
						"addRepair(string,uint256)": "infinite",
						"bookServiceOnDate(uint256)": "infinite",
						"getRepairsCount()": "2512",
						"getServiceOnDate()": "infinite",
						"payRepair(uint256)": "infinite",
						"registerCar(string,string,uint256,string)": "infinite",
						"registeredCars(address)": "infinite",
						"repairs(uint256)": "infinite",
						"serviceAddress()": "2603",
						"transferOwnership(address)": "infinite"
					}
				},
				"methodIdentifiers": {
					"addRepair(string,uint256)": "d92cc1f1",
					"bookServiceOnDate(uint256)": "0b51698f",
					"getRepairsCount()": "7379170a",
					"getServiceOnDate()": "6d7b0f46",
					"payRepair(uint256)": "afac49f8",
					"registerCar(string,string,uint256,string)": "703174bb",
					"registeredCars(address)": "94d2da2d",
					"repairs(uint256)": "e6289a78",
					"serviceAddress()": "8d5b87b6",
					"transferOwnership(address)": "f2fde38b"
				}
			},
			"storageLayout": {
				"storage": [
					{
						"astId": 25,
						"contract": "contracts/CarRegistratiom.sol:CarRegistration",
						"label": "repairs",
						"offset": 0,
						"slot": "0",
						"type": "t_array(t_struct(Repair)21_storage)dyn_storage"
					},
					{
						"astId": 27,
						"contract": "contracts/CarRegistratiom.sol:CarRegistration",
						"label": "serviceAddress",
						"offset": 0,
						"slot": "1",
						"type": "t_address_payable"
					},
					{
						"astId": 32,
						"contract": "contracts/CarRegistratiom.sol:CarRegistration",
						"label": "registeredCars",
						"offset": 0,
						"slot": "2",
						"type": "t_mapping(t_address,t_struct(Car)14_storage)"
					}
				],
				"types": {
					"t_address": {
						"encoding": "inplace",
						"label": "address",
						"numberOfBytes": "20"
					},
					"t_address_payable": {
						"encoding": "inplace",
						"label": "address payable",
						"numberOfBytes": "20"
					},
					"t_array(t_struct(Repair)21_storage)dyn_storage": {
						"base": "t_struct(Repair)21_storage",
						"encoding": "dynamic_array",
						"label": "struct CarRegistration.Repair[]",
						"numberOfBytes": "32"
					},
					"t_bool": {
						"encoding": "inplace",
						"label": "bool",
						"numberOfBytes": "1"
					},
					"t_mapping(t_address,t_struct(Car)14_storage)": {
						"encoding": "mapping",
						"key": "t_address",
						"label": "mapping(address => struct CarRegistration.Car)",
						"numberOfBytes": "32",
						"value": "t_struct(Car)14_storage"
					},
					"t_string_storage": {
						"encoding": "bytes",
						"label": "string",
						"numberOfBytes": "32"
					},
					"t_struct(Car)14_storage": {
						"encoding": "inplace",
						"label": "struct CarRegistration.Car",
						"members": [
							{
								"astId": 3,
								"contract": "contracts/CarRegistratiom.sol:CarRegistration",
								"label": "make",
								"offset": 0,
								"slot": "0",
								"type": "t_string_storage"
							},
							{
								"astId": 5,
								"contract": "contracts/CarRegistratiom.sol:CarRegistration",
								"label": "model",
								"offset": 0,
								"slot": "1",
								"type": "t_string_storage"
							},
							{
								"astId": 7,
								"contract": "contracts/CarRegistratiom.sol:CarRegistration",
								"label": "year",
								"offset": 0,
								"slot": "2",
								"type": "t_uint256"
							},
							{
								"astId": 9,
								"contract": "contracts/CarRegistratiom.sol:CarRegistration",
								"label": "vin",
								"offset": 0,
								"slot": "3",
								"type": "t_string_storage"
							},
							{
								"astId": 11,
								"contract": "contracts/CarRegistratiom.sol:CarRegistration",
								"label": "owner",
								"offset": 0,
								"slot": "4",
								"type": "t_address"
							},
							{
								"astId": 13,
								"contract": "contracts/CarRegistratiom.sol:CarRegistration",
								"label": "serviceDate",
								"offset": 0,
								"slot": "5",
								"type": "t_uint256"
							}
						],
						"numberOfBytes": "192"
					},
					"t_struct(Repair)21_storage": {
						"encoding": "inplace",
						"label": "struct CarRegistration.Repair",
						"members": [
							{
								"astId": 16,
								"contract": "contracts/CarRegistratiom.sol:CarRegistration",
								"label": "description",
								"offset": 0,
								"slot": "0",
								"type": "t_string_storage"
							},
							{
								"astId": 18,
								"contract": "contracts/CarRegistratiom.sol:CarRegistration",
								"label": "cost",
								"offset": 0,
								"slot": "1",
								"type": "t_uint256"
							},
							{
								"astId": 20,
								"contract": "contracts/CarRegistratiom.sol:CarRegistration",
								"label": "paid",
								"offset": 0,
								"slot": "2",
								"type": "t_bool"
							}
						],
						"numberOfBytes": "96"
					},
					"t_uint256": {
						"encoding": "inplace",
						"label": "uint256",
						"numberOfBytes": "32"
					}
				}
			},
			"userdoc": {
				"kind": "user",
				"methods": {},
				"version": 1
			}
		}
	}
}